:020000040002F8
:10300000D8D30020C93D0200D13D0200BD350200E9
:10301000D53D0200D73D0200D93D0200000000006E
:10302000000000000000000000000000DB3D020086
:10303000DD3D020000000000DF3D0200E13D020036
:10304000B95D0200E33D0200E33D0200316402008D
:1030500041640200ED5A0200ED560200F5600200E4
:10306000E33D0200E33D0200E33D0200E33D0200D8
:10307000E33D0200795F0200E33D0200E33D020010
:10308000696B020001600200E33D0200E33D0200C3
:103090005164020015670200216702008167020087
:1030A000E33D0200E33D0200E33D0200716A0200DD
:1030B000415E0200C55C020000000000000000004C
:1030C000E33D0200DD5E0200E33D0200E33D02005D
:1030D000E33D0200E33D0200E33D0200000000008A
:1030E00000000000000000000000000000000000E0
:1030F00000000000000000000000000000000000D0
:1031000000000000000000000000000000000000BF
:1031100000000000000000000000000000000000AF
:10312000000000000000000000000000000000009F
:10313000000000000000000000000000000000008F
:10314000000000000000000000000000000000007F
:10315000000000000000000000000000000000006F
:10316000000000000000000000000000000000005F
:10317000000000000000000000000000000000004F
:10318000000000000000000000000000000000003F
:10319000000000000000000000000000000000002F
:1031A000000000000000000000000000000000001F
:1031B000000000000000000000000000000000000F
:1031C00000000000000000000000000000000000FF
:1031D00000000000000000000000000000000000EF
:1031E00000000000000000000000000000000000DF
:1031F00000000000000000000000000000000000CF
:10320000DFF80CD000F0AAFF00480047E1FC030003
:10321000D8D3002030B4044654E8000F0D4644E8EB
:103220000053002BF8D1156030BC704730B4044611
:1032300054E8000F40EA010544E80053002BF7D1A1
:10324000156030BC704730B4044654E8000F00EA03
:10325000010544E80053002BF7D1156030BC7047DE
:1032600030B4044654E8000F80EA010544E80053F6
:10327000002BF7D1156030BC704730B4044654E8D9
:10328000000F00EB010544E80053002BF7D1156057
:1032900030BC704730B4044654E8000FA0EB010581
:1032A00044E80053002BF7D1156030BC7047000094
:1032B00030B4044654E8000F0D4644E80053002B98
:1032C000F8D1156030BC704730B4044654E8000FA4
:1032D00040EA010544E80053002BF7D1156030BCEB
:1032E000704730B4044654E8000F00EA010544E892
:1032F0000053002BF7D1156030BC704730B4044642
:1033000054E8000F80EA010544E80053002BF7D190
:10331000156030BC704730B4044654E8000F00EB31
:10332000010544E80053002BF7D1156030BC70470D
:1033300030B4044654E8000FA0EB010544E8005304
:10334000002BF7D1156030BC7047000030B4044644
:1033500054E8000F0D4644E80053002BF8D11560E7
:1033600030BC704730B4044654E8000F40EA010511
:1033700044E80053002BF7D1156030BC704730B4DF
:10338000044654E8000F00EA010544E80053002B0E
:10339000F7D1156030BC704730B4044654E8000FD4
:1033A00080EA010544E80053002BF7D1156030BCDA
:1033B000704730B4044654E8000F00EB010544E8C0
:1033C0000053002BF7D1156030BC704730B4044671
:1033D00054E8000FA0EB010544E80053002BF7D19F
:1033E000156030BC7047000030B4044654E8000F4C
:1033F0000D4644E80053002BF8D1156030BC7047EF
:1034000030B4044654E8000F40EA010544E8005394
:10341000002BF7D1156030BC704730B4044654E837
:10342000000F00EA010544E80053002BF7D11560B6
:1034300030BC704730B4044654E8000F80EA010500
:1034400044E80053002BF7D1156030BC704730B40E
:10345000044654E8000F00EB010544E80053002B3C
:10346000F7D1156030BC704730B4044654E8000F03
:10347000A0EB010544E80053002BF7D1156030BCE8
:103480007047000030B4044654E8000F0D4644E88D
:103490000053002BF8D1156030BC704730B404469F
:1034A00054E8000F40EA010544E80053002BF7D12F
:1034B000156030BC704730B4044654E8000F00EA91
:1034C000010544E80053002BF7D1156030BC70476C
:1034D00030B4044654E8000F80EA010544E8005384
:1034E000002BF7D1156030BC704730B4044654E867
:1034F000000F00EB010544E80053002BF7D11560E5
:1035000030BC704730B4044654E8000FA0EB01050E
:1035100044E80053002BF7D1156030BC7047000021
:1035200030B4044654E8000F0D4644E80053002B25
:10353000F8D1156030BC704730B4044654E8000F31
:1035400040EA010544E80053002BF7D1156030BC78
:10355000704730B4044654E8000F00EA010544E81F
:103560000053002BF7D1156030BC704730B40446CF
:1035700054E8000F80EA010544E80053002BF7D11E
:10358000156030BC704730B4044654E8000F00EBBF
:10359000010544E80053002BF7D1156030BC70479B
:1035A00030B4044654E8000FA0EB010544E8005392
:1035B000002BF7D1156030BC70470000094B1EF09E
:1035C000040F1CBFEFF309801847EFF3088006498A
:1035D000064A884201D8904202D88D464FF000003A
:1035E00018470000FD580200D8D30020D87E0020E4
:1035F00030B450E8012F93B2C48923448489A34294
:1036000028BF1B1B0489A34202BFBFF32F8F0020DA
:1036100007E0C3EA020340E80134002CE9D14FF08F
:1036200001000A6030BC704750E8012FC2EA024234
:1036300040E801210029F7D1704730B450E8022F4B
:103640001FFAA2F3C488A34202BFBFF32F8F00204A
:103650000DE0C48923448489A34228BF1B1BC2EA0E
:10366000034340E80234002CE8D14FF001000A6027
:1036700030BC704750E8022FC2EA224240E80221E3
:103680000029F7D17047034653E8022FD988B2EBDF
:10369000324F4FF0000017BF92B241EA014142EAB7
:1036A000014104E05A68B2EB324F08BF012043E801
:1036B0000212002AE8D1704730B4044654E8000FE3
:1036C0000D4644E80053002BF8D1156030BC70471C
:1036D00030B4044654E8000F40EA010544E80053C2
:1036E000002BF7D1156030BC704730B4044654E865
:1036F000000F00EA010544E80053002BF7D11560E4
:1037000030BC704730B4044654E8000F80EA01052D
:1037100044E80053002BF7D1156030BC704730B43B
:10372000044654E8000F00EB010544E80053002B69
:10373000F7D1156030BC704730B4044654E8000F30
:10374000A0EB010544E80053002BF7D1156030BC15
:103750007047000030B4044654E8000F0D4644E8BA
:103760000053002BF8D1156030BC704730B40446CC
:1037700054E8000F40EA010544E80053002BF7D15C
:10378000156030BC704730B4044654E8000F00EABE
:10379000010544E80053002BF7D1156030BC704799
:1037A00030B4044654E8000F80EA010544E80053B1
:1037B000002BF7D1156030BC704730B4044654E894
:1037C000000F00EB010544E80053002BF7D1156012
:1037D00030BC704730B4044654E8000FA0EB01053C
:1037E00044E80053002BF7D1156030BC704700004F
:1037F00030B4044654E8000F0D4644E80053002B53
:10380000F8D1156030BC704730B4044654E8000F5E
:1038100040EA010544E80053002BF7D1156030BCA5
:10382000704730B4044654E8000F00EA010544E84C
:103830000053002BF7D1156030BC704730B40446FC
:1038400054E8000F80EA010544E80053002BF7D14B
:10385000156030BC704730B4044654E8000F00EBEC
:10386000010544E80053002BF7D1156030BC7047C8
:1038700030B4044654E8000FA0EB010544E80053BF
:10388000002BF7D1156030BC7047000030B40446FF
:1038900054E8000F0D4644E80053002BF8D11560A2
:1038A00030BC704730B4044654E8000F40EA0105CC
:1038B00044E80053002BF7D1156030BC704730B49A
:1038C000044654E8000F00EA010544E80053002BC9
:1038D000F7D1156030BC704730B4044654E8000F8F
:1038E00080EA010544E80053002BF7D1156030BC95
:1038F000704730B4044654E8000F00EB010544E87B
:103900000053002BF7D1156030BC704730B404462B
:1039100054E8000FA0EB010544E80053002BF7D159
:10392000156030BC7047000030B4044654E8000F06
:103930000D4644E80053002BF8D1156030BC7047A9
:1039400030B4044654E8000F40EA010544E800534F
:10395000002BF7D1156030BC704730B4044654E8F2
:10396000000F00EA010544E80053002BF7D1156071
:1039700030BC704730B4044654E8000F80EA0105BB
:1039800044E80053002BF7D1156030BC704730B4C9
:10399000044654E8000F00EB010544E80053002BF7
:1039A000F7D1156030BC704730B4044654E8000FBE
:1039B000A0EB010544E80053002BF7D1156030BCA3
:1039C0007047000030B4044654E8000F0D4644E848
:1039D0000053002BF8D1156030BC704730B404465A
:1039E00054E8000F40EA010544E80053002BF7D1EA
:1039F000156030BC704730B4044654E8000F00EA4C
:103A0000010544E80053002BF7D1156030BC704726
:103A100030B4044654E8000F80EA010544E800533E
:103A2000002BF7D1156030BC704730B4044654E821
:103A3000000F00EB010544E80053002BF7D115609F
:103A400030BC704730B4044654E8000FA0EB0105C9
:103A500044E80053002BF7D1156030BC70470000DC
:103A600034B555F804AB1A1F55F804BB2CDD54F8D7
:103A700004CB1CFB0A6654F804EB1CFB1A77121FDC
:103A80001CFB0B881CFB1B991CFB3A6655F804AB0E
:103A90001CFB2B771CFB3B881CFB2A99C8BF54F8E6
:103AA00004CB1EFB0B661EFB1B771EFB0A881EFB4E
:103AB0001A991EFB3B6655F804BB1EFB2A771EFBBA
:103AC0003A881EFB2B99D4DC121D36DD34F802CB6C
:103AD000521E1CFB0A66C8BF34F802EB1CFB1A77A7
:103AE0001CFB0B881CFB1B9927DD1EFB1A66521E54
:103AF0001EFB0B7735F802AB1EFB1B88C8BF34F8E2
:103B000002CB1EFB0A9918DD1CFB0B66012A1CFB6D
:103B10001B7735F8022B1CFB0A88C8BFB4F800E0FD
:103B20001CFB029909DD1EFB1B66B5F800B01EFBED
:103B30000A771EFB02881EFB0B9934BD2DE9F04F5E
:103B40000D460999044615F0030F4FF001003BD0D4
:103B5000B3F1040C4FF0000E35F8028B19DD54F868
:103B6000046B4FEA084855F8049B16FB18EE54F80E
:103B7000047B16FB29EE55F8048B17FB19EEBCF1FC
:103B8000040C17FB28EEC8BF54F8046BEBDC4FEABB
:103B900018481CF1040CA2BF34F8026B16FB08EEA7
:103BA000BCF1010CC8BF35F8028BF4DCA4EB430474
:103BB000A5EB4305704505F10205B8BF7046491EE7
:103BC00042F804EB00DCC0E0091F1BDB4FF00006ED
:103BD0004FF000074FF000084FF00009FFF740FFDB
:103BE000B04205F10805B8BF3046B842B8BF384604
:103BF0004045B8BF40464845B8BF4846A2E8C00364
:103C0000091FE3DA891C5FDBB3F1040C4FF0000AF3
:103C10004FF0000B55F8048B20DD54F8046B55F879
:103C2000049B16FB08AA54F8047B16FB18BBBCF1D6
:103C3000040C16FB38AA55F8048B16FB29BBC8BF29
:103C400054F8046B17FB09AA17FB19BB17FB39AA19
:103C5000C8BF55F8049B17FB28BBE2DC1CF1020C23
:103C60000EDD54F8046B16FB08AA55F8049B16FBEE
:103C700018BBACF1020C16FB38AAC84616FB29BBD0
:103C800034F8026B1CF1010C16FB08AAC8BF34F80B
:103C9000027B16FB18BB05DD35F8029B17FB18AA43
:103CA00017FB09BBA4EB4304A5EB4305504505F105
:103CB0000205B8BF5046A1F10201584542F804ABD5
:103CC000B8BF584642F804BB491C3EDBB3F1040CB4
:103CD0004FF0000E1DDB54F8046B55F8048B54F8BC
:103CE000047B55F8049B16FB08EEBCF1040C16FB94
:103CF00038EEA8BF54F8046B17FB09EEA8BF55F8BF
:103D0000048B17FB39EEA4BF54F8047B55F8049BD1
:103D1000E9DA1CF1020CA1BF54F8046B55F8048BCE
:103D200016FB08EEACF1020CA8BF16FB38EE1CF136
:103D3000010CA2BF34F8026B35F8028B16FB08EEBB
:103D4000704542F804EBB8BF7046BDE8F08F000044
:103D5000074808496A4602C09042FCD17047044AAD
:103D60000449054808CA8B4201D10438FAD170478A
:103D7000D87E0020ADDEADDE00550000EFF31480EC
:103D800010F0040F1EBFF1EE101A03B42DED200A3F
:103D900001B420F0040080F314882DE9F15F684637
:103DA000084988478546BDE8F85F01BC80F3148860
:103DB00010F0040F1EBFBDEC200A03BCE1EE101A88
:103DC000184670477D3D0500064880470648004775
:103DD000FEE7FEE7FEE7FEE7FEE7FEE7FEE7FEE7BB
:103DE000FEE7FEE78D670200013202002DE9F05F79
:103DF0000546002092469B4688460646814640245A
:103E00001BE0284641464746224600F048F9534603
:103E10005A46C01A914110D311461846224600F066
:103E200016F82D1A67EB01084F46224601200021A3
:103E300000F00DF817EB00094E41201EA4F101041B
:103E4000DFDC484631462A464346BDE8F09F202A3B
:103E500004DB203A00FA02F1002070479140C2F1E1
:103E6000200320FA03F3194390407047004870473D
:103E70007CA205002DE9FE43994615468846074673
:103E800001AC022942D3002D40D000200290A8F1BD
:103E900001004FF0FF36009022E000FB057201FBAD
:103EA000057011464A469047002805DC54F8260064
:103EB000304444F8260013E060682A4600FB057190
:103EC00054F8040C00FB057007E00B7890F800C074
:103ED00001F801CB00F8013B521E002AF5D17642D1
:103EE00054F8040C61688842D7DC4B462A463846B1
:103EF000FFF7C0FF54F8040C4B46A8EB0001401C30
:103F000000FB05702A46491EFFF7B4FFBDE8FE839B
:103F10002DE9F05F994615460F4683464FF0FF3670
:103F2000DDF828A011E0A819441009FB04708046B0
:103F30000146584652469047002802D004DA2546EA
:103F400003E04046BDE8F09F2646A5EB06000128A9
:103F5000E9DC0020F6E710B5431A934209D2831832
:103F6000881803E010F8011D03F8011D521EF9D254
:103F700010BD40EA01039B0703D009E008C9121FE6
:103F800008C0042AFAD203E011F8013B00F8013B13
:103F9000521EF9D210BDD2B201E000F8012B491E29
:103FA000FBD270470022F6E710B513460A460446D6
:103FB0001946FFF7F0FF204610BD421C10F8011B08
:103FC0000029FBD1801A704710B5002200E0521C76
:103FD000835C8C5CA34201D1002BF8D1D8B2E1B252
:103FE000401A10BD30B504460020034600E05B1CBB
:103FF000934203D2E05CCD5C401BF8D030BD034659
:1040000011F8012B00F8012B002AF9D1184670474E
:1040100030B505460020034600E05B1C934205D204
:10402000EC5CC85C201A01D1002CF6D130BD2DE922
:10403000F04791460F4680460446002614F8015B7F
:104040002DB1FFF713FF0068405DC007F6D12B2D9F
:1040500002D02D2D18D0641E4A463946204600F065
:104060002EF827B13968A14201D1C7F80080710547
:104070004FF002040BD54042002803DD02F00AFE97
:104080000460A007BDE8F08746F48066E4E70028F6
:10409000F8DA02F0FFFD04606FF00040F2E7202A3A
:1040A00004DB203A21FA02F00021704721FA02F3E2
:1040B000D040C2F1200291400843194670472DE9D3
:1040C000F05F82460078002715468B460AF101040E
:1040D000B946302801D09DB113E014F8010B012737
:1040E000782803D0582801D045B10AE00DB1102D31
:1040F00007D10027102514F8010B02E0082500E085
:104100000A250026B0460EE005FB080005FB06F177
:10411000012701EB10461FFA80F8B6F5803F00D367
:10412000B94614F8010B294600F02AF80028EBDA0A
:10413000BBF1000F05D00FB1641E00E05446CBF870
:104140000040B9F1000F06D002F0A4FD0221016089
:10415000C81EBDE8F09F48EA0640FAE7064C074D46
:1041600006E0E06840F0010394E807009847103447
:10417000AC42F6D3FFF748F8E8C1050008C20500D5
:104180003A2800D2303820F02002412A01D3A2F18F
:104190003700884201D34FF0FF30704770B58C185C
:1041A00010F8015B15F0070301D110F8013B2A114B
:1041B00006D110F8012B03E010F8016B01F8016B38
:1041C0005B1EF9D12B0705D40023521E0DD401F834
:1041D000013BFAE710F8013BCB1A921C03E013F8FD
:1041E000015B01F8015B521EF9D5A142D8D3002032
:1041F00070BD30B595B0144604AB05460CAA0293C9
:10420000084619462346039200F0D0FA6288B0FAB5
:1042100080F0013212B28DE81400400914AB03EBB8
:10422000800304F1440153F8482C2846002300F091
:104230000BF821784900284649B200F011FCB0FA89
:1042400080F0400915B030BD2DE9F04FAFB0924677
:10425000399C049094F9007016A83A4689461E4687
:1042600000F096FEBB0002934B4426A819463A463E
:10427000039300F08DFE94F9005006A826B1314654
:104280002A4600F085FE04E0294600F0ADFB01233C
:1042900006932A460EA816A900F07AFE2A461EA802
:1042A00026A900F075FE16A826A906AA234600F046
:1042B0008DF916A826A906AA2346D4F8A450A84723
:1042C0000EA81EA906AA234600F080F9BDF9E060F9
:1042D000023EB6B231B2002928DD504600F0E0FFC0
:1042E000B0FA80F04009C0F101084FEA48180EAB5F
:1042F00003EB080C1EAB984440010EAB03EB000B24
:104300001EAB1D18414660465A462B460094CDF818
:1043100014C000F0CFF8DDF814C0009458462946C8
:104320006246434600F061F8013ED2E7DAF80050F9
:10433000009405F0010585F00105C5F101060EABFD
:10434000760103EB06081EAB1E446D010EAB03EBBA
:10435000050A1EAB1D444046314652462B4604F129
:10436000040B00F0A7F806A816A90EAA5B46009752
:1043700000F044FC06A801463246234600F01EFC2D
:1043800006A801464A46234600F018FC06A8014646
:104390005A463B4600F08CFB06A80146039A23468A
:1043A00000F00CFC06A801464246234600F006FC3D
:1043B0005046294642463346009400F016F82346FC
:1043C0000EA81EA906AA00F001F904980EA93A4603
:1043D00000F0DEFD029A049B134418461EA93A46DB
:1043E00000F0D6FD2FB0BDE8F08F2DE9F0438BB083
:1043F0008046129D15F9046B009614461F468946A7
:104400002B4602A81146424600F0F8FB02A80146DE
:10441000129A00F0E3FB4046414602AA129B00F0CC
:10442000CDFB2046214602AA129B00F0C7FB2B467B
:10443000384639464A46009600F0E0FB02A8394665
:10444000129A00F0CBFB02A8014642462B4600968A
:1044500000F0D4FB02A8014622462B46009600F04D
:10446000CDFB2046214642462B46009600F0C6FB77
:10447000484649462246129B00F0A0FB2046414692
:1044800002AA2B46009600F0B9FB38463946224670
:10449000129B00F093FB384639464A462B4600965D
:1044A00000F0ACFB204602A9324600F071FD0BB0D3
:1044B000BDE8F0832DE9F0439BB00746229C14F938
:1044C000045B0095164698468946234602A8114685
:1044D0003A4600F093FB02A80146229A00F07EFBC8
:1044E0003846394602AA229B00F068FB3046314626
:1044F00002AA229B00F062FB02A841464A462346DC
:10450000009500F0BCFA404641464A4623460095D5
:1045100000F074FB0AA831463A462346009500F0A5
:104520006DFB484649460AAA229B00F047FB2346FA
:104530000AA839463246009500F0A1FA30464146B5
:10454000229A00F04BFB304631460AAA23460095DA
:1045500000F054FB12A8394632462346009500F07D
:104560004DFB4046414612AA229B00F027FB234602
:10457000404641464A46009500F040FB12A802A979
:10458000229A00F02BFB12A801460AAA23460095A6
:1045900000F034FB0AA812A93A462346009500F021
:1045A0002DFB0AA8014602AA229B00F007FB484601
:1045B0000AA94A462346009500F020FB384612A976
:1045C0002A4600F0E5FC1BB0BDE8F083F0B589B0E9
:1045D0001C4607460E461546684611461A4600F028
:1045E000FDFA384639466A46234600F0E7FA68463F
:1045F00069462A46234600F0E1FA304631466A46CB
:10460000234600F0DBFA09B0F0BD1AB1013A8B5C29
:104610008354FAE770472DE9F04793F9006092B0B0
:1046200004468946104631461546984600F018FA69
:10463000002840F0978002A84946424600F0CEFA92
:1046400043460AA8214602AA00F0B8FA02A8014689
:10465000424600F0C3FA4346484649462A4600F01F
:10466000ADFA08F1040728462946424600F0B6FA9A
:10467000204621462A463B46009600F000FA28468E
:1046800029462A463B46009600F0F9F9284621467D
:104690002A463B46009600F0B1FA204621462A46BB
:1046A000434600F08BFA2846214622463B460096B8
:1046B00000F0E5F920463B46009621462A4600F0E8
:1046C000DEF92368DB07204613D5334621463A46F8
:1046D00000F05EF931468246204600F04CFC06F1BF
:1046E0008043013B54F8230040EACA7044F8230099
:1046F00002E0314600F03FFC28462146424600F0E9
:104700006DFA284629460AAA3B46009600F076FA3A
:10471000284629460AAA3B46009600F06FFA0AA8E6
:1047200001462A463B46009600F068FA204621469C
:104730000AAA434600F042FA02A802463B46214636
:10474000009600F05BFA20462946324600F020FC35
:1047500028464946324600F01BFC484602A932462C
:1047600000F016FC12B0BDE8F08770B5061D0446D7
:104770000D460522304600F00BFC3046052100F0C6
:10478000FAFB2B68DB072360204621462A460523D7
:1047900000F0FEF8103440B154F8042F0023121832
:1047A00043F1000322601846F5E770BD2DE9F041A2
:1047B000B3F902508646884603F1240605F11F012D
:1047C000202491FBF4F464B2174640467146324609
:1047D000234600F0DDF850B9B5EB441F09DA29464D
:1047E000404600F05DFD051C18BF012502E00125D3
:1047F00000E00546384641463246234600F0C8F8F8
:104800002846BDE8F08100002DE9F84F1B4F064611
:104810008A4608461146154600F08BFB3B6813B9E3
:104820000020BDE8F88F0424C0EB451015FB04FB05
:1048300000B204FB05644FF0FF39043C29FA00F98B
:104840004FF040083B683046594698470028E7D06B
:10485000236803EA090323603046294600F000F983
:1048600018B1B8F10108EDD1DAE7504631462A46D1
:1048700000F0C6F80128F4D1BDE8F88FD47E0020FE
:10488000F8B507460E4615464024B5F90220202308
:104890001F32304692FBF3F205F1240152B2FFF7CA
:1048A000B3FF08B90020F8BD384631462A46FFF765
:1048B000A0FC10B9013CE8D1F4E70120F8BD0000EC
:1048C0000048704728BF050000487047D8BF050062
:1048D0000048704788C005000048704738C105008F
:1048E000014B1860704700BFD47E00202DE9F047CF
:1048F000A4B093F9017093F8009004AC0CAE82461A
:10490000904620463A461D4602940396FFF77DFEE8
:1049100014A851467A00FFF778FE20462146324619
:104920002B46FFF743FF194B1E6804465EB124ABCC
:1049300003EB8003291D53F8886C4FFA89F2304647
:10494000FFF762FFF8B1B4FA84F024AB400903EB3F
:1049500080026B8801331BB28DE8280014A8014641
:10496000334652F8882CFFF76FFC404614A93A46AC
:10497000FFF74BFE2978490014A849B200F070F8FF
:10498000B0FA80F0400924B0BDE8F087D47E002062
:10499000C3F10803DB0070B501330446002003A512
:1049A0005B1920C940CAAD1920C4184720C940CAA4
:1049B000754120C420C940CA754120C420C940CADD
:1049C000754120C420C940CA754120C420C940CACD
:1049D000754120C420C940CA754120C420C940CABD
:1049E000754120C4404170BD10B5002253B28B42C6
:1049F00005DA1BB2002440F823400132F6E710BD6F
:104A000030B50B4689B0154604461A4621462B465A
:104A1000684600F015FC29460446684600F020F878
:104A2000003418BF01246400002814BF6042C4F1A0
:104A3000010009B030BD10B5013AD2B253B2002B1B
:104A400009DB1BB250F8234051F823309C4204D8B4
:104A5000F2D2FF2002E0002000E0012040B210BDB1
:104A600010B500231A465CB28C4204DA50F8244098
:104A700001332243F7E7B2FA82F0400910BD70B566
:104A80009DF910401D4623460646FFF781FF30B9C9
:104A9000284631462246FFF7CEFF012807D0304690
:104AA00031462A462346BDE8704000F0C9BB70BDC0
:104AB000F0B50646A1B00F460846194615461C46F5
:104AC000FFF7CEFF20B130462146FFF78DFF73E0A0
:104AD00068463946224600F05BFA08A82946224675
:104AE00000F056FA10A82146FFF77EFF012318A810
:104AF00021461093FFF778FF684608A92246FFF782
:104B00009AFF002853D0009BDA0704D46846214658
:104B100000F031FA26E0089BDB0704D408A8214600
:104B200000F029FA3DE000281EDD08AA2346694668
:104B3000684600F085FB6846214600F01CFA10A884
:104B400018A92246FFF777FF002805DA10A80146CA
:104B50002A462346FFF71CFF10A8014618AA234641
:104B600000F06EFB10A81DE008A86A462346014627
:104B700000F066FB08A8214600F0FDF918A810A96E
:104B80002246FFF758FF002805DA18A801462A46F2
:104B90002346FFF7FDFE18A8014610AA234600F0A1
:104BA0004FFB18A82946224600F056FDA4E73046E0
:104BB00010A9224600F0ECF921B0F0BD30B51C463A
:104BC00091B0054693F90030684600F029F8D4F812
:104BD000AC3028466946984711B030BD30B5144610
:104BE00091B0054692F90020684600F0DEF9D4F84D
:104BF000AC3028466946984711B030BD70B59DF974
:104C000010401D462346064600F01AFB38B13046D8
:104C100031462A462346BDE87040FFF7B9BE70BD55
:104C20002DE9F04F08B4F8CA04B451F8042BA3FBE3
:104C3000028940F8048B4FF0000AE4FB629A4FF0BF
:104C4000000BE5FB62AB4FF0000CE6FB62BC4FF0E3
:104C5000000EE7FB62CE51F8042B4FF00008E3FB97
:104C6000628940F8048BE4FB629AE5FB62ABE6FBE9
:104C700062BCE7FB62CE51F8042B4FF00008E3FB67
:104C8000628940F8048BE4FB629AE5FB62ABE6FBC9
:104C900062BCE7FB62CE51F8042B4FF00008E3FB47
:104CA000628940F8048BE4FB629AE5FB62ABE6FBA9
:104CB00062BCE7FB62CE51F8042B4FF00008E3FB27
:104CC000628940F8048BE4FB629AE5FB62ABE6FB89
:104CD00062BCE7FB62CE40F8049B40F804AB40F8AE
:104CE00004BB40F804CB40F804EB0CBC052B00F0EF
:104CF0001E810C68A0F11400A1F11401A2F11402AC
:104D000052F804EB4FF0000550F8046BE4FB6E56CC
:104D100052F804EB50F8047BE4FB6E6752F804EBA6
:104D200050F8048BE4FB6E7852F804EB50F8049BC7
:104D3000E4FB6E8952F804EB50F804ABE4FB6E9A86
:104D4000A0F1140052F8044B51F804EB4FF0000CA2
:104D5000E4FB6EC540F804CB51F804EBE4FB6E565F
:104D600040F8045B51F804EBE4FB6E6740F8046B19
:104D700051F804EBE4FB6E7840F8047B51F804EB47
:104D8000E4FB6E8940F8048B51F804EBE4FB6E9A67
:104D9000A0E80006062B00F0CA800C68A0F11800FD
:104DA000A1F11801A2F1180252F804EB4FF000052E
:104DB00050F8046BE4FB6E5652F804EB50F8047B99
:104DC000E4FB6E6752F804EB50F8048BE4FB6E785A
:104DD00052F804EB50F8049BE4FB6E8952F804EBA4
:104DE00050F804ABE4FB6E9A52F804EB50F804BBA5
:104DF000E4FB6EABA0F1180052F8044B51F804EB41
:104E00004FF0000CE4FB6EC540F804CB51F804EB06
:104E1000E4FB6E5640F8045B51F804EBE4FB6E676C
:104E200040F8046B51F804EBE4FB6E7840F8047B27
:104E300051F804EBE4FB6E8940F8048B51F804EB65
:104E4000E4FB6E9A40F8049B51F804EBE4FB6EAB74
:104E5000A0E8000C072B6AD008B40C68A0F11C0075
:104E6000A1F11C01A2F11C0252F804EB4FF0000565
:104E700050F8046BE4FB6E5652F804EB50F8047BD8
:104E8000E4FB6E6752F804EB50F8048BE4FB6E7899
:104E900052F804EB50F8049BE4FB6E8952F804EBE3
:104EA00050F804ABE4FB6E9A52F804EB50F804BBE4
:104EB000E4FB6EAB52F804EB50F804CBE4FB6EBCA1
:104EC000A0F11C0052F8044B51F804EB4FF0000322
:104ED000E4FB6E3540F8043B51F804EBE4FB6E56FE
:104EE00040F8045B51F804EBE4FB6E6740F8046B98
:104EF00051F804EBE4FB6E7840F8047B51F804EBC6
:104F0000E4FB6E8940F8048B51F804EBE4FB6E9AE5
:104F100040F8049B51F804EBE4FB6EAB40F804ABA3
:104F200051F804EBE4FB6EBCA0E8001808BCBDE837
:104F3000F08F0139C9B24BB2002B0BDA013111F0FD
:104F4000FF0315D059B201F18043013B50F82320F3
:104F5000002304E050F82330002BEAD0EEE712B132
:104F600052080133FBE7481E03EB401080B200E01B
:104F7000184600B2704700EB81010023884206D238
:104F800051F8042D43EA52030B60D307F6E770474C
:104F900030B5002463B2934206DA1BB2013451F8F3
:104FA000235040F82350F5E730BD2DE9F04FB1E82C
:104FB000005E06B4AAFB09124FF00003EBFB692365
:104FC0004FF00004ECFB69344FF00005EEFB69453F
:104FD0004FF00006EBFB6A63ECFB6A344918524160
:104FE00076415B41A9FB09784FF0000949F10009BE
:104FF00018EB0108A0E88001AAFB0A78574158EB9A
:105000000608A0E88001EEFB6A454FF0000A4AF16D
:10501000000A4FF00001ECFB6B14EEFB6B454FF008
:105020000002EEFB6C255FEA590949416441524197
:105030006D4149F10009EBFB6B3A1AEB010AA0E85C
:105040000804ACFB0C6A66415AEB020AA0E8400473
:10505000AEFB0E6A6E415AEB090AA0E8400406BC9A
:10506000052A00F0E680A0F11400A1F11401B1E8D6
:10507000E043A5FB0E344FF00005E6FB6E454FF014
:105080000006E7FB6E564FF00007E8FB6E674FF037
:105090000008E9FB6E784FF00009DB1864416D41B0
:1050A00076417F4158EB080859F1000950F804CBCC
:1050B00013EB0C0350F804CB54EB0C0450F804CB66
:1050C00055EB0C0550F804CB56EB0C0650F804CB0E
:1050D00057EB0C0758F1000859F10009A0F1140032
:1050E000EEFB0E89A0E8F803062A00F0A280A0F1EA
:1050F0001800A1F11801B1E8E047A5FB0E344FF00C
:105100000005E6FB6E454FF00006E7FB6E564FF0DC
:105110000007E8FB6E674FF00008E9FB6E784FF080
:105120000009EAFB6E894FF0000ADB1864416D410B
:1051300076417F4158EB080859EB09095AF1000AFA
:1051400050F804CB13EB0C0350F804CB54EB0C04D5
:1051500050F804CB55EB0C0550F804CB56EB0C067D
:1051600050F804CB57EB0C0750F804CB58EB0C0865
:1051700059F100095AF1000AA0F11800EEFB0E9A4D
:10518000A0E8F807072A54D0A0F11C00A1F11C01E7
:10519000B1E8E04FA5FB0E344FF00005E6FB6E458D
:1051A0004FF00006E7FB6E564FF00007E8FB6E6716
:1051B0004FF00008E9FB6E784FF00009EAFB6E89BA
:1051C0004FF0000AEBFB6E9A4FF0000BDB186441C6
:1051D0006D4176417F4158EB080859EB09095AEBBC
:1051E0000A0A5BF1000B50F804CB13EB0C0350F8E8
:1051F00004CB54EB0C0450F804CB55EB0C0550F8E1
:1052000004CB56EB0C0650F804CB57EB0C0750F8C8
:1052100004CB58EB0C0850F804CB59EB0C095AF1AD
:10522000000A5BF1000BA0F11C00EEFB0EABA0E846
:10523000F80FBDE8F08F0000000000000000000043
:10524000C3F10803DB0070B50133002403A500BFE0
:105250005B1920C940CAAD1B20C0184720C940CAED
:10526000B54120C020C940CAB54120C020C940CAAC
:10527000B54120C020C940CAB54120C020C940CA9C
:10528000B54120C020C940CAB54120C020C940CA8C
:10529000B54120C06441B4FA84F0400970BD00BF3C
:1052A0004A11012301F01F0150F822008B401840E1
:1052B0007047000070B58AB00E4604460521684666
:1052C000FFF792FB05A80521FFF78EFB684606F164
:1052D0001401FFF74AFA6A46052331462046FFF7D4
:1052E00057FB052105463046FFF77EFB304605A9F2
:1052F000FFF73BFA2046214632460523FFF748FBDD
:1053000005443DB1204621460A4A0523013DFFF7E9
:1053100097FFF6E7204607490522FFF78CFB002898
:1053200005DD20462146034A0523FFF789FF0AB021
:1053300070BD00BF2CBF0500F0B5062287B00E4639
:105340000446FFF725FE684606F118010622FFF71E
:105350001FFE21466A4606232046FFF719FBB36964
:105360000293F3690393336A0493736A05930027E6
:10537000054621466A460623204601970097FFF717
:1053800007FBB36A02930093F36A03930544019306
:10539000204621466A46062305970497FFF7F8FA48
:1053A00005443DB120462146074A0623FFF748FF42
:1053B0002D1AF6E7044821460622FFF73CFB012898
:1053C000F0D107B0F0BD00BFDCBF0500F0B50C4662
:1053D00089B007220546FFF7DBFDE3690493236AE2
:1053E0000593636A0693A36A07930027294601AAD7
:1053F00007232846039702970197FFF7C9FAE36A44
:105400000493236B0593636B06930646294601AA12
:10541000072328460797FFF7BBFAE3690193236A3E
:105420000293636A0393A36A0493E36A0593236B6D
:105430000693636B07930644294601AA072328466F
:10544000FFF7FEFEE36A0193236B0293636B039302
:10545000361A2946284601AA072307970697059773
:105460000497FFF7EDFE341A16D5284629460D4A53
:105470000723FFF78DFA0419F7D410E009482946ED
:105480000722FFF7D8FA012809D028462946054AFD
:105490000723FFF7D5FE241A002CEFD0F5E709B05B
:1054A000F0BD00BF8CC00500F0B50C4689B00822E5
:1054B0000646FFF76DFDE36A0393236B0493636B6A
:1054C0000593A36B0693E36B0793002769466A462F
:1054D00008236846029701970097FFF759FA31466B
:1054E00005466A4608233046FFF752FA236B0393BA
:1054F000636B0493A36B0593E36B069305446946C2
:105500006A46082368460797FFF742FA3146054482
:105510006A4608233046FFF73BFA236A0093636A22
:105520000193A36A0293A36B0693E36B079305446D
:1055300031466A4608233046059704970397FFF7DC
:1055400027FA636A0093A36A0193E36AA26B02934A
:10555000636B039304920693E26B236A05920544FE
:10556000079331466A4608233046FFF711FAE36A8B
:105570000093236B0193636B0293236A0693A36AE0
:105580000793054431466A46082330460597049739
:105590000397FFF755FE236B0093636B0193A36B97
:1055A0000293E36B0393636A0693E36A07932D1AEE
:1055B00031466A460823304605970497FFF740FEB8
:1055C000636B0093A36B0193E36B0293236A0393D2
:1055D000636A0493A36A0593236B07932D1A3146DC
:1055E0006A46082330460697FFF72AFEA36B00930E
:1055F000E36B0193636A0393A36A0493E36A0593DD
:10560000636B07932D1A314630466A46082302978A
:105610000697FFF715FE2D1A16D5304631460D4A6E
:105620000823FFF7B5F94519F7D410E009483146CA
:105630000822FFF700FA012809D030463146054A12
:105640000823FFF7FDFD2D1A002DEFD0F5E709B077
:10565000F0BD00BF3CC10500F8B5036813F00105BB
:1056600006460F46144605D001463A462346FFF744
:105670008FF9054630462146FFF77DFC45B104F120
:105680008042013A56F8223043F0004346F8223077
:10569000F8BD2DE9F04115468AB00446884602A8B7
:1056A00000212022FEF780FC2E780323204641466D
:1056B0002A462F1D76B20293FFF790FA2046214624
:1056C00002AA3B460096FFF799FA20462146424639
:1056D0002B46FFF773FA00962046214605F1840217
:1056E0003B46FFF7CCF90AB0BDE8F0812DE9F04F59
:1056F00000258DB06F4C2E464FF4807101222B4651
:10570000CDF8085001F1804000F5C040D0F800C04D
:10571000BCF1010F08D1D4F804C31CEA020F03D076
:105720000660006815430490081D52005B1C81B29E
:10573000082BE7D36048DFF884A10168012909D16B
:10574000066000680090DAF8000045F00045D0F8E7
:10575000100502905A4F15F0FF0F1CBF4FF00109C2
:10576000002419D019EA050F11D0A00000F18041E2
:1057700001F5C041D1F81005D1F81015C0F304208F
:1057800057F82420C1F30141002A18BF90474FEA7F
:105790004909641C082CE5D315F0004F19BF4FF0E0
:1057A000FF30CDE90A600DB0BDE8F08F4FF0000A80
:1057B0005546791991F8640041B220F0C004B1F166
:1057C000FF3F5FD00BA9E60804F007030122895DC3
:1057D00002FA03FB1BEA010F54D04FEA9019381963
:1057E00090F9440057F82080B8F1000F03D0B9F1C8
:1057F000030F03D007E0B9F1030F43D10AA8815D7D
:1058000041EA0B018155202C04D32EA14FF4E870FE
:1058100002F0F2FA4FF0A04000EB84000C90D0F8B8
:105820000007C0F3014102A8805D1BEA000F02D00F
:10583000022902D026E0032924D1B9F1030F1BD19C
:10584000022914BF02260326202C04D31DA14FF4E5
:10585000E87002F0D1FA0C98D0F8001721F440312A
:10586000C0F80017D0F8001741EA0641C0F8001749
:105870000AF1010000F0FF0AB8F1000F02D049461A
:105880002046C0476D1C092D93D3BAF1000F04BF09
:105890000DB0BDE8F08F09480068D0F810050299F6
:1058A000884204BF0DB0BDE8F08F02900A980B90BB
:1058B0007CE70000006000407C610040909B050098
:1058C000306A00202E2E5C2E2E5C2E2E5C2E2E5C3E
:1058D0002E2E5C2E2E5C636F6D706F6E656E747312
:1058E0005C647269766572735F6E72665C68616C27
:1058F0005C6E72665F6770696F2E6800044620F008
:105900008BFC00BF20F0A6F90028FBD1204600F058
:1059100001F8000082B0054672B63C4806683C4F6C
:1059200001247868002821D038883AA144EA004050
:10593000AA6920F0D3FA7868002817D0D5E90201C7
:10594000CDE900013888D5E9002344EA004037A1B9
:1059500020F0E3FA786848B1E8690090D5E90423BB
:10596000388840A144EA004020F0C9FA474800685E
:1059700010F0020F1CBF7868002805D03888444911
:1059800044EA004020F0A6FADFF80881002500BFB5
:1059900004FA05F030421FBF58F82520002A786825
:1059A000002805D038883CA144EA004020F096FA4F
:1059B0006D1C1A2DECD316F0800F1CBF78680028E0
:1059C00007D038480268388837A144EA004020F000
:1059D00085FA16F4004F1CBF7868002807D03A48B3
:1059E0000268388839A144EA004020F077FA20F0B4
:1059F00013FC00BF20F02EF90028FBD13A480168C3
:105A000011F0010FFBD000BEF9E7000028ED00E027
:105A1000A426002048415244204641554C54206160
:105A20007420307825303858000000002020523093
:105A30003A2020307825303858202052313A202022
:105A4000307825303858202052323A2020307825BE
:105A5000303858202052333A2020307825303858BA
:105A60000000000020205231323A203078253038B2
:105A70005820204C523A20203078253038582020A9
:105A80005053523A20307825303858002CED00E041
:105A900034A40500CC21002043617573653A2025AC
:105AA000732E000034ED00E04D656D4D616E616751
:105AB00065204661756C7420416464726573733A45
:105AC000203078253038580038ED00E042757320DA
:105AD0004661756C7420416464726573733A20305A
:105AE0007825303858000000F0ED00E02DE9F84F3F
:105AF000644CD4F8040101270026634D00281CBF24
:105B0000D4F8000310F0020F0DD060480660006862
:105B10000090687830B95E481DF0DCFB5D48C760D6
:105B20000760AE606F70D4F81801DFF86C91002840
:105B30001CBFD4F8000310F0400F1DD05748006878
:105B4000C0F3C800A0F10203554806600068009049
:105B500099F80000302806D099F80000502808BFB6
:105B60002F70E76108E0D5F804C0BCF1000F03D046
:105B7000494A0221E868E047D4F8100100281CBF18
:105B8000D4F8000310F0100F18D0464806600068E3
:105B900000904FF01000C4F808034349C1F800908A
:105BA00001F104010860E761D5F804C0BCF1000F01
:105BB00004D000231A460321E868E047D4F84C01DA
:105BC000DFF8E880DFF8E8B04FF00D0A00281CBFCE
:105BD000D4F8000310F4002F27D036480660006880
:105BE00000902F48066000680090C8F80060D8F860
:105BF000000000902C48C0F800902F494FF0100092
:105C00000860E7614FF48860C4F80403CBF800A093
:105C10002A48C0F800A0D5F804C0BCF1000F04D099
:105C200000231A461946E868E047D4F828010028FE
:105C30001CBFD4F8000310F4806F08D0DBF800001C
:105C4000C8F80060D8F800000090CBF800A0D4F8A5
:105C50001C0100281ABFD4F8000310F0800FBDE823
:105C6000F88F16480168164A1660126811F0010F85
:105C700000921FBF2978002907602E70C0F800A08D
:105C8000BDE8F88F00500040EC2500200451004092
:105C9000FC25002000B00140B47B002024550040CA
:105CA000185100401051004010550040285100404C
:105CB0000C5400404C510040145500400454004026
:105CC0001C51004070B5374A84B0D2F80031364DCF
:105CD00001260024A97C002B05EB810030D0334A3B
:105CE0001460126826EA0101039205EB81025268F2
:105CF0002AB96A7C022A02D0E87C98B11BE08DF8B0
:105D00000840EC746A7C022A04BF01946E7403D0CC
:105D1000426801924460A9748DF800602968684661
:105D2000884708E08DF8086001948DF80040EE7413
:105D3000296868468847687C022808BF6E7421E09D
:105D4000D2F80411F1B11A490C600968039119499C
:105D50000C606C748DF808408DF80040416821B1EA
:105D600001914460296868468847A87C26EA0000BB
:105D700005EB8000416821B10191446029686846C3
:105D80008847AC74687D002804BF04B070BD0194DE
:105D90008DF808408DF800606C7529686846884762
:105DA00004B070BD00D00140A06A002000D10140C5
:105DB00004D1014000D501402DE9F8434FF0804661
:105DC000D6F800011B4D00274FF00108A0B11A487A
:105DD0000760006800900120C6F8080385F801807C
:105DE0004FF0000905F10804216829B10868206016
:105DF000496848468847F7E7D6F80401002808BFF5
:105E0000BDE8F8830D480760006800900220C6F8DE
:105E1000080385F80280012605F110042168002995
:105E200008BFBDE8F88308682060496830468847A5
:105E3000F4E700001C6A002000010040040100405B
:105E4000F8B5244CD4F81001234D002660B1C4F8F5
:105E50001061D4F810010090687910F0040F1FBF92
:105E60002968002901208847D4F8140160B1C4F8DA
:105E70001461D4F814010090687910F0080F1FBF66
:105E80002968002902208847D4F81C0168B1C4F8A9
:105E90001C61D4F81C010090687910F0100F04D137
:105EA000296800291CBF00208847D4F80401002875
:105EB00008BFF8BDC4F80461D4F8040100900120C3
:105EC00028712968002908BFF8BD032001B0BDE88A
:105ED000F040084700C00140B86A0020F8B5244CE3
:105EE000244DD4F81001002660B1C4F81061D4F834
:105EF00010010090687910F0040F1FBF2968002975
:105F000001208847D4F8140160B1C4F81461D4F8B2
:105F100014010090687910F0080F1FBF296800294C
:105F200002208847D4F81C0168B1C4F81C61D4F879
:105F30001C010090687910F0100F04D12968002925
:105F40001CBF00208847D4F80401002808BFF8BD12
:105F5000C4F80461D4F80401009001202871296874
:105F6000002908BFF8BD032001B0BDE8F040084794
:105F700000100240C06A002070B584B000258DF882
:105F80000050684601F0D4FE21F0FCFD002826D127
:105F9000164CD4F8000100281CBFD4F8080310F0F8
:105FA000010F1CD012484FF00106056000680290F6
:105FB000104800688DF8040001A90F4821F06EF91F
:105FC0000D4821F0DFF850B121F0DCFD18B10B498C
:105FD000742001F011FF0120C4F8080366609DF8E9
:105FE000000001F0D3FE04B070BD000000D00040FE
:105FF00000D1004008D50040989B05007443040080
:106000002DE9F041274882B00027C0F84071C0F860
:106010004471C0F84871C0F84C71C0F80071C0F804
:106020000471214EB468002C04BF02B0BDE8F081B9
:106030004FF000081D480068F168401A20F07F45C5
:106040002068A84217D82D1A80442046E469017CB4
:1060500079B107744169009180690190144A08215F
:10606000684601F0BFFC20B112A24FF4C17101F0EB
:10607000ABFA002CE4D131787078814205D1401C14
:10608000C0B27070022808BF77701948717840F864
:1060900021804FF0E0214FF48010C1F8000202B0DF
:1060A000BDE8F081001001401C25002004150140CE
:1060B000854305002E2E5C2E2E5C2E2E5C2E2E5C33
:1060C0002E2E5C2E2E5C636F6D706F6E656E74731A
:1060D0005C6C69627261726965735C74696D65722A
:1060E0005C6170705F74696D65722E630000000002
:1060F0002C2500202DE9F043544C85B0D4F8040140
:10610000DFF84C810026534D012718B3C8F8006012
:10611000D8F80000009095F82E2012B195F82F00C5
:10612000D8B18DF80060686801902889ADF8080042
:10613000E868002808BF2E7407D0298B698368603F
:106140002981EE60002A08BF2760684629688847D1
:1061500085F82F6095F82E0088B3D4F8000170B34D
:106160003D480660006800906A8B95F82D003B4B17
:10617000824203F1040C0DD9A2EB000189B26983BC
:106180002A89A2EB01016A6802EB41011960CCF88F
:1061900000000EE008D1E96831B185F82F706E83F8
:1061A0001960CCF8000004E0824204BF85F82F702B
:1061B0006E83C8F80060D8F8000000906760D4F8DB
:1061C000100150B126480660006803902E7402202A
:1061D0008DF80000296868468847D4F8140138B162
:1061E00020480660006800902E7405B0BDE8F0837A
:1061F0006C69002C19BF4FF000484FF48C7905B042
:10620000BDE8F083B4FA84F028FA00F18C4309EB7E
:10621000800000F1804101F5E0410A6882B10E6022
:1062200009680391A0F58C70C1088DF8041027EA65
:1062300090008DF800708DF8050029686846884741
:10624000002CDFD105B0BDE8F083000000700040F5
:1062500004710040186B0020007100402C76004053
:106260001071004014710040044900EB400001EB44
:10627000C000416D806D081A70470000D07B00207F
:1062800000F08ABC2DE9F843044600208DF8000098
:1062900015468846684601F04BFD1E4E30780028B2
:1062A00008BF00F079FC04EB440006EBC00000F1ED
:1062B0004807D0F85490866D00244E4511D9B8682F
:1062C000841BA54298BF2C46786822468119404617
:1062D000FDF741FEB8682D1B2644A044B04208BF1C
:1062E0000026A9EB0600854288BF05463DB17868C7
:1062F0002A4681194046FDF72EFE2C442E44002CE0
:1063000018BF3E619DF8000001F040FD2046BDE849
:10631000F8830000D07B0020F8B50D4B14460D46E5
:106320001B780646002B08BF00F036FC00238DF8D2
:106330000030684601F0FCFC22462946304600F059
:1063400009F804469DF8000001F020FD2046F8BD44
:10635000D07B00202DE9F0411546344A00EB400087
:1063600002EBC00000F11804C06A20B1012829D056
:10637000022850D055E02069E668B04284BF32461A
:10638000801A02D8A3689A1B1044401EA84248D322
:10639000A0688846871BBD4206D260682A46304402
:1063A000FDF7D9FD701926E060683A463044FDF7E4
:1063B000D2FDEE1B08EB070132466068FDF7CBFD0E
:1063C000E6602FE02069E768B84284BF3A46801A49
:1063D00002D8A368DA1B1044401EA84238BF054605
:1063E0008846A068C61BAE4207D960682A46384472
:1063F000FDF7B1FD7819E06014E06068324638447A
:10640000FDF7A9FDAF1B08EB06013A466068FDF7F2
:10641000A2FDE76006E02A46204600F0F1FB0546B3
:1064200000E000252846BDE8F0810000D07B002078
:106430000149024810F0EABE486B002000300040DD
:1064400002494FF0402010F0E1BE0000706B0020C8
:106450002DE9F04F83B0DFF8A0C2002600969CF82B
:1064600000009CF801109CF80220884291BF081A95
:10647000101A0844401CC0B2A04D2979884288BF38
:106480002871D5E90223287869780027884230D01E
:10649000401CC0B22870022808BF2F709848297885
:1064A00050F82100C11821F07F41E9600021F2B1CC
:1064B000AC682268824202D9101A206017E0276077
:1064C000D4F81C80C5F80880801AD4F80C901144C8
:1064D0002246B9F1000F07D003EB010A2AF07F4AE8
:1064E000C4E901A9D6612646B8F1000FE0D1012028
:1064F0000090A8684FF00009019098E07E4802786B
:1065000002EB4201521CD2B2027000EBC10183784F
:10651000091D9A4208BF077048680A780446012A94
:106520003ED0022A02D0032A74D130E0D5F808B058
:10653000DA465FEA0A0828D0804506D0C246D8F875
:106540001C80B8F1000FF7D11FE0B8F1000F1CD08C
:10655000C2450BD1DBF81C00A86038B9694901209D
:106560008860EF60E8702F201CF016FED8F800104D
:10657000D8F81C00CAF81C0010B102681144016070
:10658000A868834518BF4FF00109277454E0A86834
:10659000002851D00774C069011EFBD1A9604BE0EF
:1065A000207C002848D188686060C868A0600869BD
:1065B000E0604869A061E878002818BF67606068FB
:1065C000E968514B421A22F07F429A423CBFA068D0
:1065D000104408D3081AA16820F07F4081428CBF84
:1065E000081A276000D9206067600120A760207426
:1065F000E761A868002808BFAC6018D0226801686D
:106600008A429FBF891A0160E061AC6088BF014681
:106610000DD904E010E00146C069D21A20B1036828
:106620009342F8D39B1A03602260E061CC61002E94
:106630001CBF3446F669C2D12F48017840788142A8
:106640007FF45CAFB9F1000F06D1A96801988142CF
:1066500004BF009800284BD0A868E0B3DFF8AC90E6
:10666000D0F800A0D9F80080EE68A8EB060020F072
:106670007F4000F1030BA878B0B922484FF4803175
:10668000C0F84413C0F804134FF0E0224FF4003177
:106690004FF00104C2F88012C2F8001104604FF0FC
:1066A0002F001CF079FDAC70D34528BFDA460AEB09
:1066B0000600174A20F07F411160D9F80000A1EBD5
:1066C0000801A0EB080020F07F4021F07F41C01CB2
:1066D00088420DD900E00BE0D9F8000010602F20AF
:1066E0001CF05AFD4FF0E0214FF40030C1F80002D9
:1066F000EF7003B0BDE8F08F986B00201C250020E0
:106700002C25002000100140FFFF7F0004150140F0
:1067100040150140014801F06DB80000942A0020A6
:1067200010B50021064A084601F05CF9002808BFB0
:1067300010BD04A2BDE8104040F29B1100F044BF20
:10674000C57D02002E2E5C2E2E5C2E2E5C2E2E5C25
:106750002E2E5C2E2E5C636F6D706F6E656E747383
:106760005C736F66746465766963655C636F6D6D99
:106770006F6E5C6E72665F7364682E63000000006B
:10678000014801F037B80000B82A002070B49448DE
:106790000023021D01780125101D4FF0805C0629A1
:1067A00004BF147814F00F0F06D0062904BF147824
:1067B00014F00F0F13D10DE0047804F0F004302C26
:1067C0001CBF402C502CF0D1BCF82443854EC4F3A0
:1067D00004243460047804F0F004302C0CD0062932
:1067E00004BF147814F00F0F0AD0062904BF1478E0
:1067F00014F00F0F17D111E07C4E7B4C746707E04B
:10680000047804F0F004302C1CBF402C502CECD148
:10681000DCF84442764EC4F342343460047804F029
:10682000F004302C0CD0062904BF147814F00F0F9C
:106830000CD0062904BF147814F00F0F1BD115E0FB
:106840006C4C266826F08076266007E0047804F019
:10685000F004302C1CBF402C502CEAD14FF0804467
:10686000C4F80C31C4F81031634C2360047804F090
:10687000F004302C06D0062904BF147814F00F0F52
:106880000AD104E05D4E4FF0030434600BE004785D
:1068900004F0F004302C06D0062904BF137813F05E
:1068A0000F0F12D10CE0564E4FF005043460554CDA
:1068B0002560554C2360A4F104044FF03F0323608E
:1068C000037803F0F003502B0CD0062904BF137893
:1068D00013F00F0F58D0062904BF117811F00F0FD5
:1068E00070D15FE0494B1B68494C2360494B1B68E2
:1068F00004F104042360484B1B6804F10404236082
:10690000464B1B6804F104042360454B1B6804F1EB
:1069100004042360434B1B6804F104042360424BCE
:106920001B68424C2360424B1B6804F10404236043
:10693000404B1B6804F1040423603F4B1B6804F1C7
:10694000040423603D4B1B6804F1040423603C4BAA
:106950001B6804F1040423603A4B1B683A4C236023
:106960003A4B1B6804F104042360394B1B6804F1A3
:1069700004042360374B1B6804F104042360364B86
:106980001B6804F104042360037803F0F003302B48
:106990001CBF402B502B9ED1DCF858122F4A01F01F
:1069A0004F011160007800F0F00030281CBF402833
:1069B000502807D12A48016811F0010F1CBF6FF061
:1069C000010101602748016841F470010160BFF3D3
:1069D0004F8FBFF36F8F25492348086070BC704705
:1069E000E00F00F0403501400DF0ADBA00C00740A7
:1069F0003C050040FCED00E038050040A0050040EB
:106A000010560040885600401856004004040010FC
:106A100020C50040080400100C04001010040010F1
:106A200014040010180400101C04001040C500409D
:106A30002004001024040010280400102C0400106E
:106A4000300400103404001060C500403804001009
:106A50003C0400104004001044040010E40E004008
:106A60000004004088ED00E00090D0031C260020C8
:106A70002DE9F04131480068314E324C10F0030FDF
:106A80004FF0000518BFA56004D000BFC6F8405104
:106A9000BDE8F081A068401CA0600728F6D9012756
:106AA00037611CF0C1FBBFF35F8F27480560BFF360
:106AB0005F8F0760D4F804C0BCF1000F04D000233E
:106AC0001A460121E068E047657020480221C0F8BD
:106AD00004131F49C0F80413A1781E48042908BFF5
:106AE00000211CD0072908BF01210CD010F8011B80
:106AF00010F8012B090441EA022110F8012B11437F
:106B0000154A1160022110F8012B10F8013B120404
:106B100042EA032210F8013B1A43104B1A60026844
:106B2000C07812BA22F0FF0210430D4A1060042010
:106B300040EA81100B490860A8E700003C5400407F
:106B400000B00140EC250020FC5F004000500040F8
:106B500080000800C47B00209855004094550040F8
:106B600090550040A0550040084882B0D0F804037A
:106B700010F0010F04BF02B070470021044801600B
:106B8000006800900348406802B0004700000140E0
:106B9000000101400025002070B5124C0220206148
:106BA000606111A0A06104F17800E0614FF4007011
:106BB00020620020A06260620BA1A164E06204F583
:106BC0001E712025A065C4E913156065E06509A064
:106BD00009A10068C4F80700204600F042F8A5713A
:106BE00070BD0000D07B00205465726D696E616CD1
:106BF00000000000525454005345474745520000DE
:106C00002DE9F047C4681746894606464FF000084C
:106C10003069A0428FBF001BB168201A081A451EB8
:106C2000B068001BA84298BF0546BD4228BF3D463C
:106C300070682A4620444946FDF78DF9B0687F1BED
:106C40002C44A844A944A04208BF0024F460002FAB
:106C5000DED14046BDE8F0870A6802600B79037117
:106C600070470A6802608B88838091F806C080F8BC
:106C700006C07047C9B241EA012141EA0141016001
:106C8000416081607047C9B241EA012141EA014196
:106C900001607047004870474C26002002E008C899
:106CA000121F08C1002AFAD170477047002001E086
:106CB00001C1121F002AFBD1704700002DE9F04FDF
:106CC00083B06C460546D4E90C86A6EB0800A060AC
:106CD0007000C01D20F00700ADEB000D1F4693466D
:106CE0008A46E946002E04DC974A4221002000F043
:106CF0006BFC002F07DA944A4FF042014FF000007E
:106D000000F062FC00E034D0002E13DDA91EA9F1D2
:106D1000020016F0010F03D031F8022F20F8022FE5
:106D2000721007D04B88438031F8043F20F8043FAD
:106D3000521EF7D10020002F1ADD00BF35F91020B8
:106D40003BF9101012FB01F1C91329F81010311A88
:106D500005EB410232F9023C3BF9102013FB02F231
:106D6000D21309EB4101401C21F8022C8742E5DCDB
:106D70004D464FF0010B0BEBC61716F0010F05D077
:106D8000B5F9000010FB00F007EB602706F00100EA
:106D9000B04210DA35F9101011FB01F107EB612256
:106DA00005EB4001B1F9021011FB01F1801C02EB6F
:106DB0006127B042EEDB002F04DC634A4221002051
:106DC00000F002FCB7FA87F0C0F10B0000EBD070C6
:106DD0004710002FD8BF002729DD002E26DDA91E71
:106DE000A9F1020016F0010F08D031F9022F0BFAB9
:106DF00007F302EB63023A4120F8022F721018BF2A
:106E00000BFA07F312D000BFB1F902C00CEB630C10
:106E10004CFA07FCA0F802C031F904CF0CEB630C6C
:106E20004CFA07FC20F804CF521EEDD14D4682B03B
:106E3000A06B08F10109CDE90090294652460846A9
:106E4000A368FCF77BFE002002B0B8F1000F18DB4E
:106E5000A16800220144B1420BDA00BFA1EB000C93
:106E600035F9113035F91CC013FB0C22491CB14215
:106E7000F4DB5AF8201011444AF82010401C404519
:106E8000E6DD7800002807DC4242DAF800100BFA51
:106E900002F21144CAF80010DAF80030B3F1805F52
:106EA00023DAB3FA83F1CA1EB9F1000F18DDAAF193
:106EB000040118F0010F02D1934041F8043F5FEA4A
:106EC00069030DD051F804CF0CFA02FC41F804CB51
:106ED000D1F800C00CFA02FCC1F800C05B1EF1D171
:106EE000A54603B0801ABDE8F08FB3F1005F03DA66
:106EF000A54603B0BDE8F08F0122B3F1804FA8BFD3
:106F00000222B9F1000F19DDAAF1040118F0010FF6
:106F100002D1134141F8043F5FEA69030ED000BF7C
:106F200051F804CF4CFA02FC41F804CBD1F800C070
:106F30004CFA02FCC1F800C05B1EF1D1A54603B0BB
:106F40001044BDE8F08F000094CA02002DE9F74F0D
:106F500098B00E46D1F80080174691006846FDF7BC
:106F600021F8306800281CBF0025002FC8BF002072
:106F70007EDD3EE000206C1E002C2FDD06EB85013F
:106F80000B1DAEF1040C15F0010F08D15CF8040FD5
:106F900053F8041D80FB0110C90F41EA400053F86B
:106FA000042C0021DCF80490641016D05CF808BFB3
:106FB00053F808AD89FB02298BFB0AABD20F42EADA
:106FC000490210444FEADA7A53F8042C4AEA4B0A91
:106FD000DCF804905144641EE8D10844691E08D4CA
:106FE0005EF82110726881FB0212C90F41EA42016A
:106FF000084406EB8501496800EBE100C00041460A
:107000000EF0B0F94042C1104DF825106B1C59101C
:10701000EE4600291BDD0EEB850172464FEA630C3C
:10702000091F13680C6880FB04A94FEADA7A4AEA60
:107030004909994442F8049B80FB0339DB0F43EA7A
:107040004903234441F80439BCF1010CE9D180FB28
:107050000001C00F40EA410080FB0810C90F41EA5F
:107060004000A8EB00083068B8EBA02F05DB00E07B
:1070700003E06D1CAF423FF77DAF7A1E002A20DD92
:1070800018996FF00300891E684417F0010F06D1AC
:1070900050F8043F03F500431B1421F8023F4368F6
:1070A00052100ED050F808CF03F500431B144B804C
:1070B0000CF5004C4FEA2C4C436821F804CF521ECB
:1070C000F0D1781E44BF1BB0BDE8F08F5DF82010F2
:1070D00001F500410A14189921F810201BB0BDE8F1
:1070E000F08F000010B512F019FF022808D0002818
:1070F00008BF10BD05A2BDE81040B42100F064BA7D
:107100000D49002008708870487010BD2E2E5C2E2E
:107110002E5C2E2E5C536F757263655C4D6F6475CB
:107120006C65735C6D5F636F6D735F626C655F61EF
:1071300064762E63000000008C2300202DE9F04FC0
:1071400083B06C469B46D4E90F95D4F838A0B2F1D1
:1071500000080E46074604DC3E4A4221002000F0AB
:1071600033FA012E04DC3B4A4221002000F02CFAC5
:10717000B000133020F00700ADEB000DC4F808D0CC
:1071800082B00122CDE9008B31463846236B0DF0E9
:10719000E7F80095334642463846A16821F0B6F834
:1071A00002B0054642463146636BA0680CF06AFCAB
:1071B000B9F1000F44D0D4F80890C4F800A0002D15
:1071C00004DC244A4221002000F0FEF9B5FA85F0E3
:1071D000C0F11F004FEA600A4FEA4A000E3800284B
:1071E000CEBF45FA00F0404205FA00F005F058FE27
:1071F0000146206811FB00F000F5804040F3CF31DC
:10720000002001220AF1010C02FA0CF339F82020C7
:1072100012B211FB02F202EB630242FA0CF227F8FF
:107220001020401C3D46B042F0DB82B04FF0FF32F0
:10723000CDE9008B31462846236B0DF091F802B062
:107240003146226BA0680DF083FAA54603B0BDE875
:10725000F08F0000204703002DE9FF4F83B06C46FC
:10726000B2F1000BD4E911590E46074604DC334A4B
:107270004221002000F0A8F9012E04DC2F4A42210F
:10728000002000F0A1F9B000C01D20F00700ADEB18
:10729000000DC4F808D02B465A463146684609F01E
:1072A00045F9D4F80880051E04DC244A4221002058
:1072B00000F08AF9B5FA85F0C0F11F004FEA600AC4
:1072C0004FEA4A000E380028CEBF45FA00F040428F
:1072D00005FA00F005F0E4FD10FB09F000F5804030
:1072E00040F3CF31002001220AF1010312FA03F228
:1072F00038F820C00FFA8CFC11FB0CFC0CEB620C74
:107300004CFA03FC27F810C0401C3D46B446B0427E
:10731000EEDB82B0A0694FF0FF32CDE900B06146EC
:107320002846236C0DF01CF802B03146226CA06890
:107330000DF00EFAA54607B0BDE8F08F2047030018
:107340002DE9F84F88460746DFF810B1A2EB080098
:10735000DDF828909A46002500900024B8F1000F2F
:107360005CDDB86805FB00405AF82060002E08BFBD
:107370003B4840D006DC3B4A4FF042014FF0000052
:1073800000F022F9B6FA86F0C0F11F01A1F10F005A
:107390000028CEBF46FA00F0C1F10F0006FA00F057
:1073A000A0F5404000B26FF4AF6210FB02F2D313BD
:1073B00040F6F11202FA83F212B210FB02F2D3137A
:1073C0006FF4A35202FA83F212B210FB02F2D3134B
:1073D00043F6825202FA83F212B210FB02F0C21399
:1073E000214800FA82F000B20D3900110904890920
:1073F00000FA81F000B21BF90410A0EB8110B9680B
:1074000005FB014129F81100B96800F5006005FB92
:107410000141641C29F811004445A2DB00980028B2
:1074200016DDB868009905FB008009EB4000801E5E
:1074300011F0010F02D00D4920F8021F00994910E8
:1074400018BF0A4A04D0428020F8042F491EFAD1FE
:107450000B986D1CA84280DCBDE8F88F48910500B0
:107460000180FFFF9C4B050077E5FFFF00C8FFFF91
:1074700082B072B614462E4E01272BA53288012801
:1074800047EA024C72682AD06FF48053C0182ED09D
:10749000B0F5405F31D06FF44053D8420BD182B188
:1074A00060682388002818BF05462A46604621A147
:1074B0001EF01BFD05E022B10A46604624A11EF025
:1074C0000DFD1EF0A9FE00BF1EF0C4FB0028FBD17D
:1074D0002548016811F0010FFBD000BEF9E7002A32
:1074E0001CBF604621A1ECD01EF0F4FCE9E7002AA5
:1074F0001CBF604625A1F7D1E3E7002AE1D0A068D0
:1075000020F09AFC61682288002918BF0D46CDE959
:1075100000523188034647EA014C25A16046A26823
:107520001EF0FBFCCDE70000554E4B4E4F574E0072
:10753000A4260020415353455254494F4E20464102
:10754000494C45442061742025733A25750000009C
:10755000554E4B4E4F574E204641554C542061746A
:107560002030782530385800F0ED00E0534F465475
:107570004445564943453A20415353455254494F97
:107580004E204641494C454400000000534F4654AC
:107590004445564943453A20494E56414C494420BA
:1075A0004D454D4F52592041434345535300000030
:1075B0004552524F52202575205B25735D20617422
:1075C0002025733A2575000000B583B0ADF8001092
:1075D000CDE901206A46002144F20100FFF748FF8F
:1075E00003B000BD10B5002411B111F0030F01D09C
:1075F000072010BD0A4A0B465160107000215170DF
:1076000000EB40009160C1001846FCF7CBFC1CF079
:10761000D3F910B91CF09AF90446204610BD0000B9
:107620000C2500200849024602EB4203496800206D
:1076300001EBC3010B7D002B08BF704700200875CC
:10764000014610462DF080BB0C25002070B50C4C77
:1076500000EB40050021626802EBC502127D002AA2
:107660001CBF084670BD01212DF06EFB002818BF1D
:1076700070BD0121626802EBC502117570BD00008A
:107680000C2500202DE9F041364D064682B0686891
:107690004FF0000C002802BF082002B0BDE8F081C6
:1076A000002B02BF072002B0BDE8F0816C782F7874
:1076B000BC4222BF042002B0BDE8F0810F7892F8EE
:1076C000008047EA08078DF800704F7892F8018033
:1076D00047EA08078DF801708F7892F8028047EA30
:1076E00008078DF80270CF7892F8038047EA080700
:1076F0008DF8037004EB440700EBC700009F0760A0
:10770000096841601168036181600021017534706E
:10771000601C687014480D46012740680190EC0811
:1077200005F007011DF8040007FA01F6064212D021
:107730000E48005D06420ED10D4A01A928461CF0F4
:1077400075F85FEA000C1CBF02B0BDE8F081074885
:10775000015D314301556D1C202DE0D302B0604620
:10776000BDE8F0810C250020BC9B050014250020FD
:107770009D570300002812BF0029072070472DE9FC
:10778000F04184B00446CDE9001240686F46002500
:1077900080B18DF8085002A800F0CAFA9DF80800E0
:1077A000D4F81480666800F0F1FA1EB142463946FA
:1077B0002046B047694620681FF070FD060015D1CD
:1077C000A068002704F1040880B18DF8085002A8D1
:1077D00000F0AEFAA568D8F814809DF8080000F013
:1077E000D5FA1DB1424639462046A84704B0304676
:1077F000BDE8F081002804BF072070472DE9F0475D
:1078000084B004460068002269461FF037FC002857
:1078100045D104F108068046351D009818B922A10B
:10782000872000F0E9FAE9461CB928A14E2000F0B3
:10783000E3FAE06880B18DF8088002A800F078FAD9
:10784000E7689DF80800D6F814A000F09FFA1FB171
:10785000524649462046B847DDE900108847E946C8
:107860001CB91AA14E2000F0C7FA206980B18DF82A
:10787000088002A800F05CFA27699DF80800D5F896
:1078800014A000F083FA1FB1524649462046B8477B
:107890000022694620681FF0F1FB0028BDD004B02B
:1078A0000020BDE8F08700002E2E5C2E2E5C2E2ED0
:1078B0005C536F757263655C436F6D6D6F6E5C6179
:1078C00070705F6973636865642E63002E2E5C2E92
:1078D0002E5C2E2E5C536F757263655C436F6D6D0D
:1078E0006F6E5C6170705F6973636865642E6300BE
:1078F00000681FF07FBC002818BF042910D27AB19D
:1079000000EB81004FF0000CC0F804C0BFF35F8FA4
:107910004361BFF35F8F4260BFF35F8F002070470A
:107920000720704770B5040003D119A1482000F06A
:1079300063FA206818B916A1492000F05DFA606862
:10794000002818BF81B2226812BF04F1080000218C
:1079500008469047184D686818B918A1322000F001
:107960004BFA68684169C1F3072252FA81F10C228F
:10797000008B02EB8101814203D910A1322000F07B
:107980003BFA21466868BDE8704019F06BBD000005
:107990002E2E5C2E2E5C2E2E5C536F757263655CF2
:1079A000436F6D6D6F6E5C6170705F73636865646B
:1079B000756C65722E630000342200202E2E5C2E22
:1079C0002E5C2E2E5C536F757263655C436F6D6D1C
:1079D0006F6E5C6170705F7363686564756C65720F
:1079E0002E630000002A04BF072070472DE9F047EE
:1079F0002D4D80461746A8680E46814284BF0C2054
:107A0000BDE8F087686818B92849322000F0F4F919
:107A100068684169C1F3072252FA81F14FF00C09FD
:107A2000008B09EB8101814203D92049322000F00B
:107A3000E3F9686819F030FC040004BF0420BDE8D5
:107A4000F0872760B8F1000F12BF002E00206060A1
:107A500006D03246414604F10800FCF77CFA666025
:107A6000224613492868FFF785FE060018D068688B
:107A700018B90E49322000F0BFF968684169C1F3B6
:107A8000072252FA81F1008B09EB8101814203D96F
:107A90000649322000F0B0F92146686819F0E2FC8E
:107AA0003046BDE8F087000034220020BC79020097
:107AB00025790200054810B5446824B904A140F2B4
:107AC0002B1000F099F92068007910BD34220020B5
:107AD0002E2E5C2E2E5C2E2E5C2E2E5C2E2E5C2EE0
:107AE0002E5C636F6D706F6E656E74735C6C696233
:107AF0007261726965735C62616C6C6F635C6E72FB
:107B0000665F62616C6C6F632E680000002812BFB4
:107B1000002907207047034B9A60C3E900014FF02A
:107B20000000704734220020401A20F07F40704748
:107B30000148006870470000041501400A4B9B781B
:107B40003BB1002A12BF0028072070470068037C61
:107B500013B14FF0080070474FF0000303744174F5
:107B60004261184670470000986B00202DE9F041F3
:107B7000012778044FF0E0260024C6F88001184D54
:107B80004010C5F84803C5F808036F602F2006F5BC
:107B9000C0761BF001FBAF60124D2F20EC601BF094
:107BA000FBFA1148AC700621047044708170AC601F
:107BB0002C706C702C713805C6F800010B4AA0219E
:107BC00082F8001446F8800C09480460D01E80F842
:107BD000001408480068E8600020BDE8F08100005B
:107BE000001001401C250020986B002014E000E0EC
:107BF0000815014004150140014800797047000054
:107C00001C2500202DE9F843284CA378002B18BF31
:107C1000002841D005293CBF0720BDE8F88343690F
:107C2000002B39D0437C012B0CBF0F460027814627
:107C30004FF000080D4616468DF80080684600F0AB
:107C400077F86078411C01F0FF0CA178614508BF0E
:107C50004FF0000C2178614521D000EB400004EB8F
:107C6000C000031D1BD0012018701148C3F80490F8
:107C70000068C3E90205C3E9047684F801C09DF8F1
:107C8000000000F083F84FF0E0214FF48010C1F8BD
:107C900000024046BDE8F8830820BDE8F8834FF0B5
:107CA00004089DF8000000F071F8F2E7986B0020DE
:107CB00004150140F8B51D4CA17800291DBF00280E
:107CC00041690029082008BFF8BD4FF00001017488
:107CD00005464FF002070E468DF80010684600F08A
:107CE00027F86078A278411CC9B28A4208BF0021F7
:107CF00022788A4214D000EB400004EBC000021D41
:107D00000ED01770556061709DF8000000F03EF8CD
:107D10004FF0E0214FF48010C1F800023046F8BD6A
:107D200004269DF8000000F031F8F7E7986B00207A
:107D300010B4EFF3108172B6124AD2F808C00123D2
:107D4000BCF1000F18BF037006D000291CBF10BC87
:107D5000704762B610BC704793604FF0E023D3F8D1
:107D60008041DFF824C004EA0C041460C3F880C129
:107D7000D3F884C1C2F804C05A17C3F88421002282
:107D80000270E2E72C6C0020FC06FFBD0C498A68FB
:107D9000002A08BF7047002818BF7047EFF3108013
:107DA00072B60B684FF0E022C2F800314B68C2F89F
:107DB000043100228A60002818BF704762B67047FD
:107DC0002C6C002000B583B00A4968461FF034FFD0
:107DD0000298002804BF03B000BD00BFD0E9001026
:107DE000884768461FF05CFF02980028F6D103B070
:107DF00000BD000090A1050000B583B06A46ADF853
:107E000000000191002144F20200FFF731FB03B0B2
:107E100000BD4FF0E0214FF40000C1F800027047B0
:107E200010B510FB00F000F580504413B4F5004F7E
:107E300004DB17A242210020FFF7C6FB47F6FF70C4
:107E4000011B6FF49C7014FB00F04FF4804202EBB6
:107E5000400042F2550202EBE03010FB04F04EF21B
:107E60001D2200F5804002EBE03010FB04F000F52D
:107E7000804001EBE03004B247F6FE70844204DD3E
:107E800003A242210020FFF79FFB601C00B210BD3F
:107E90002E2E5C2E2E5C2E2E5C536F757263655CED
:107EA0004C69627261726965735C6F7075732D31B4
:107EB0002E322E315C617263682E68002DE9F04F1E
:107EC00083B04FF0000816880746A2F8008090F8AB
:107ED0002D0014460D464FF00C0A4FF00109002802
:107EE0002DD0092EC0F08B8168466DDF00281CBFA5
:107EF00003B0BDE8F08F08212288A95420881B22F6
:107F0000401C80B220802A542088401C80B22080EF
:107F10002844DDF801100160BDF80510818020883B
:107F2000801D80B220809DF8001011F0FE0F12BF5E
:107F300005F80090002129542088401C2080B87842
:107F40004FF0020B08B32088001DB04200F25781A9
:107F5000684679DF00281CBF03B0BDE8F08F03211D
:107F60002288A95420881922401C80B220802A54DB
:107F70002088401C80B220802844BDF80010017089
:107F8000090A41702088801C2080F878B0B12188CF
:107F900097F90300CA1CB24200F2318105F801B022
:107FA0002188491C89B2218005F801902188491C4B
:107FB00089B2218068542088401C20807868B0B144
:107FC000218890F90000CA1CB24200F2188105F81D
:107FD00001B021880A23491C89B221806B54218871
:107FE000491C89B2218068542088401C208038892F
:107FF00070B1CDE900462B460622022107F10800A8
:108000002CF0FEFE5FEA00081CBF03B0BDE8F08F55
:10801000388A70B1CDE900462B460722032107F1CB
:1080200010002CF0EDFE5FEA00081CBF03B0BDE8B5
:10803000F08F388B70B1CDE900462B461522142104
:1080400007F118002CF0DCFE5FEA00081CBF03B04B
:10805000BDE8F08F4FF0070B386AD8B3B4F800C012
:108060000CF106018E42C0F0CA800288062A7DD338
:108070004FF6FF73B2F5486F01D99A4276D1418825
:10808000062973D3B1F5486F01D999426ED19A424E
:108090001CBF99428A4269D8052205F80C20218824
:1080A0001223491C89B221806B542188491C8AB251
:1080B00022802A4401881170090A51702188891C84
:1080C00089B22180294440880870000A48702088BD
:1080D000801C2080D7F82490B9F1000F2ED0B9F879
:1080E00004002188021D0A44801CB24298BFFE2869
:1080F00067D8401C68542088FF21401C80B2208033
:1081000029542088401C81B221802944B9F80000FC
:108110000870000A48702088801C80B22080B9F85E
:1081200004205AB1D9F8081000295FD02844FBF781
:1081300012FF2088B9F804100844208097F82C001A
:10814000F0B3B96A91B14FF0000900283CD900BFE3
:10815000B96A09EB490001EB8008B8F80400801CFB
:10816000FE284CD82188401C685400E03EE020885E
:108170001621401C80B2208029542088401C81B2E6
:1081800021802944B8F800000870000A487020884F
:10819000801C80B22080B8F8042052B1D8F80810B2
:1081A00021B32844FBF7D7FE2088B8F80410084410
:1081B000208009F1010000F0FF0997F82C0001E090
:1081C00004E01CE04845C3D84FF000083878E0B31D
:1081D000C1B2012904BF7878002807D0208800F1B7
:1081E0000202B2420BD801290DD103E003B0584678
:1081F000BDE8F08F79780144891CB14203D903B0FE
:108200005046BDE8F08F301A801E86B2ADF800608F
:108210002088A91C084469467DDF00281CBF03B0E4
:10822000BDE8F08F3978022905D1BDF80000B042D1
:1082300098BF09200CD90820012905D17978B142CD
:1082400098BFADF8001003D900E014E0ADF800606D
:10825000BDF80010FE29D2D82288491CA9542188D3
:10826000491C89B2218068542088401C2080BDF8B8
:1082700000100844208003B04046BDE8F08FF0B500
:108280000C4695B01F2107250027ADF84810ADF822
:108290004C10002804BF0026ADF848700CD0C178FF
:1082A00011F0040F10D012AA01A9FFF707FE002851
:1082B0000EBF01AE15B0F0BD002C04BF0022ADF81A
:1082C0004C700ED0E07810B115B02846F0BD13AA5E
:1082D00009A92046FFF7F2FD00280EBF09AA15B034
:1082E000F0BDBDF84C00C3B2BDF84800C1B2304685
:1082F00072DF15B0F0BD002804BF0E20704773B4C4
:1083000087B004469DF82020217C0020914202BFC6
:1083100009B070BC7047002501260095ADF80060DB
:1083200008A8ADF802500190E188608A6A46A4DF8F
:1083300000281EBF09B070BC70479DF82000207453
:10834000608AA0F57F41FF3919BF207D00280820F1
:1083500009B004BF70BC704702950395049505955C
:10836000E088ADF80800BDF80200ADF80C000198F7
:108370008DF80A60CDF810D00590608A02A9A6DFBA
:1083800009B070BC7047002812BF00290E2070474A
:108390002DE9F043064695B0086830604FF6FF704F
:1083A000708208793075FF20307401278DF846708F
:1083B00041F60F000C46ADF84400321D11A93846B5
:1083C000A0DF00281CBF15B0BDE8F083307D00257C
:1083D000A0B10E959DF8380020F00F00401C20F051
:1083E000F00010308DF83800607B8DF839009DF872
:1083F0003A0020F00600801C8DF83A0000950595A3
:108400009DF80000019540F0020002950395049547
:1084100006958DF80000317D002914BF40F0100052
:1084200020F010008DF80000307D002818BF0EA845
:1084300005908DF83E7042F61920ADF83C000D9580
:10844000A07B8DF83400E07B8DF835009DF8360078
:108450000DF13C0820F00600801C20F019008DF87A
:108460003600207B8DF848000A950DF134090B95F4
:10847000ADF8287012A8CDE90889ADF82A50ADF8FA
:108480002C700C90B088B31D08AA6946A2DF0028A2
:108490001CBF15B0BDE8F083A068002808BFF581B7
:1084A00032D08DF83E7042F60810ADF83C000D95C4
:1084B000207C8DF834009DF8350020F0FF008DF809
:1084C00035009DF8360020F00600801C20F01900D1
:1084D0008DF8360013A8A16801F0DBFB0A950B9517
:1084E000ADF82800ADF82C0013A8CDE90889ADF847
:1084F0002A500C90F08806F10E0208A9A3DF00288C
:108500001CBF15B0BDE8F083284615B0BDE8F08368
:1085100038B5002914BF002838BD0288102A08BFCA
:10852000808827D0112A08BF4FF6FF7022D0502A2A
:1085300018BF38BD0C46097D002908BF38BD30F88A
:10854000061F6289914206BF4189022938BD216810
:10855000002908BF38BD00F10C0001F096FB00288F
:108560000CBF012000208DF80000226869462046DB
:10857000904738BD488238BD002804BF0E207047A0
:1085800070B50446211D144891E86E1080E86E1005
:10859000001F124D0560206848B17ADF002818BF1F
:1085A00070BD2068016840682960686004E00B487D
:1085B0007BDF002818BF70BD09484FF6FF710A4ADB
:1085C00020F8041B074901600021FFF7B7FA0028D3
:1085D00018BF032070BD0000EC6600200E240020B0
:1085E000D4660020B4660020CD4C050002494A6CD8
:1085F000091D29F0A7BB000004670020024B0246BA
:10860000181D196D29F078BB0467002070B50A4C5D
:10861000064602460025201D616C29F06DFB40B125
:108620003246201DE16C29F067FB00280CBF0125B4
:108630000225284670BD000004670020DFF828C02E
:1086400000200121DCF8002001FA00F31A4205D0D5
:10865000401CC0B21828F7D318207047814011433E
:10866000CCF8001070470000046700200549012283
:1086700082400B6813421ABF01EB8000806D00201E
:108680007047000004670020084B4FF0010C0CFA03
:1086900001FC1A6812EA0C0F04BF0020704703EBBC
:1086A00081010246896D181D29F026BB0467002050
:1086B000DFF828C030B413460122DCF800408A40BD
:1086C000144204BF30BC70470CEB8101024630BC41
:1086D0000CF10400583129F057BB0000046700205A
:1086E00010B584B0044601208DF8060041F60A005A
:1086F000ADF80400634A01A90120A0DF00281CBFD7
:1087000004B010BD228862B15F48009004F13C03C0
:1087100042F62920616804F07BFC00281CBF04B0ED
:1087200010BD228962B15948009004F13C0342F621
:108730002420E16804F06CFC00281CBF04B010BDCC
:10874000228A62B15248009004F13C0342F625208F
:10875000616904F05DFC00281CBF04B010BD228BD1
:1087600062B14C48009004F13C0342F62720E169D5
:1087700004F04EFC00281CBF04B010BD228C62B176
:108780004548009004F13C0342F62620616A04F05B
:108790003FFC00281CBF04B010BD228D62B13F48D1
:1087A000009004F13C0342F62820E16A04F030FC1A
:1087B00000281CBF04B010BD206B50B301788DF8A9
:1087C0000810018804F13C03090A8DF809100168BA
:1087D0000822090C8DF80A100168090E8DF80B109B
:1087E00001798DF80C10017A8DF80D100189090AB4
:1087F0008DF80E10806802A9000C8DF80F00284833
:10880000009042F6232004F003FC00281CBF04B0B3
:1088100010BD606B68B1234900910279016804F1D1
:108820003C0342F62A2004F0F3FB00281CBF04B0EE
:1088300010BDA06B10B301788DF8081041888DF839
:108840000910090A8DF80A1081888DF80B10090AA1
:108850008DF80C10C0888DF80D00000A8DF80E0000
:108860001148009004F13C03072202A942F650206F
:1088700004F0CEFB00281CBF04B010BD002004B0E3
:1088800010BD000072240020742400207C240020ED
:10889000842400208C240020942400209C24002088
:1088A000A4240020AC240020B42400202DE9F84F9B
:1088B000844C028800262188012704F11405102A1F
:1088C0002ED0112A7BD0122A00F0B880502A18BF6F
:1088D000BDE8F88F821DC388B5F80EC0634501BF9F
:1088E0005389022BB0F80480414518BFBDE8F88FCA
:1088F00002F10C0001F0C9F9002876D0607A4246F6
:10890000002873D026726969002908BFBDE8F88F76
:108910008DF80070ADF8028068468847BDE8F88F92
:10892000C37B8288012B18BFBDE8F88FA1F57F4378
:10893000FF3B09D0A9690420002908BFBDE8F88FD2
:1089400001B0BDE8F04F08475F49228026720B68EE
:108950004968C4F80A30C4F80E10E18919234FF6AB
:10896000FF7C01F11908192998BF0B46C91A238AFF
:1089700003EB0C09634598BF9C46A3EB0C0C438AA0
:10898000B4F80AA0534524BFB4F80CA09A450AD302
:10899000838A8B4228BF984505D3C08A604524BF8F
:1089A0008145384600D230466072E989002918BFF7
:1089B000BDE8F88F78B126726969002900E016E0F9
:1089C00008BFBDE8F88F00BF8DF80070ADF8022039
:1089D00068468847A2E769686068FFF713F90028CE
:1089E0001CBFA9690029ABD198E71EE00EE0808882
:1089F000814293D16068FFF75DF900281EBFA96925
:108A0000002988474FF6FF70208087E7207A0028EA
:108A100014BFA96869686068FFF7F4F800281CBFF4
:108A2000A96900293FF47AAF8AE76068FFF742F945
:108A300000281CBFA969002982D16FE78288914272
:108A40007FF46CAFE3894FF019094FF6FF7103F122
:108A500019089C46192B88BF4B46ACEB030C238AA4
:108A600003EB01098B4298BF19465B1A4189B4F8A0
:108A70000AA0514524BFB4F80CA08A450AD38189C5
:108A8000614528BF884505D3C089984224BF8145E8
:108A9000384600D23046607228B1267269690029D2
:108AA0003FF43CAF90E7207A002814BFA9686968BA
:108AB0006068FFF7A7F800281CBFA96900297FF4A8
:108AC0003FAF2BE7D46600200E2400202DE9F041B3
:108AD000054601880120424CA4B0102922D011295A
