:1000000038080020111E0000970F00003B10000070
:1000100063160000BF1C0000D51D0000000000009A
:10002000000000000000000000000000B90F000008
:10003000F71D000000000000DD0F0000031E00009F
:100040008F1500002D1E00002F1E0000311E000025
:10005000331E0000351E0000DD190000371E0000B1
:10006000391E00003B1E00003D1E00003F1E000028
:10007000411E0000431E0000451E0000471E0000F8
:10008000491E0000C50D00004B1E00004D1E000063
:100090004F1E0000511E0000531E0000551E0000A0
:1000A000571E0000591E00005B1E00005D1E000070
:1000B0005F1E0000611E0000000000000000000044
:1000C000631E0000651E0000671E0000691E000020
:1000D0006B1E00006D1E00006F1E0000000000007F
:1000E0000000000000000000000000000000000010
:1000F0000000000000000000000000000000000000
:1001000000000000000000000000000000000000EF
:1001100000000000000000000000000000000000DF
:1001200000000000000000000000000000000000CF
:1001300000000000000000000000000000000000BF
:1001400000000000000000000000000000000000AF
:10015000000000000000000000000000000000009F
:10016000000000000000000000000000000000008F
:10017000000000000000000000000000000000007F
:10018000000000000000000000000000000000006F
:10019000000000000000000000000000000000005F
:1001A000000000000000000000000000000000004F
:1001B000000000000000000000000000000000003F
:1001C000000000000000000000000000000000002F
:1001D000000000000000000000000000000000001F
:1001E000000000000000000000000000000000000F
:1001F00000000000000000000000000000000000FF
:100200002DE9F04782B00F46064690460C991D46F0
:10021000404600F0DEFA04006ED0206BDDF8289036
:100220000D9BCDF8008000EB8800A0F1040A4A463F
:100230003946204600F088FA4FEADA002A4631466D
:10024000C00000F0A9FB20600B9800B1046000F032
:10025000D5FBDFF8E866DFF81877306F401C3067B1
:100260004FF01408706928BB7461306F012828D1E1
:10027000002508FB05F03044183000F0D9FB6D1C58
:10028000032DF6D306F18405284600F0D1FB06F1D4
:10029000980A504600F0CCFB304600F0C9FB3846C7
:1002A00000F0C6FB06F15C0000F0C2FB7565C7F804
:1002B00014A006E0F86920B97069C06A814528BFBA
:1002C0007461B86A401CB8620122E06AB16F824072
:1002D0001143B16708FB00F0304400F021FB00F04F
:1002E00095FBF869012420B17069C06A484500F0A7
:1002F00032FB2046BDE8F6874FF0FF34F9E738B50A
:1003000005000CD000F054F8DFF86C46606F2D1833
:1003100000F008F800F00AF800F062F808B900F000
:1003200011F831BD6069001D00F0B4BB40B96069CF
:10033000A16FC06A012202FA00F021EA0000A06762
:1003400028462BE2DFF834164FF08050086040BF9B
:10035000BFF34F8FBFF36F8F704705F1180000F0A8
:1003600099BB1FB50020039002900023DFF80046E0
:100370000FF21C6104F1180001903C220020009053
:100380000FF22130FFF73CFF012808BF00F094FB7B
:1003900001280CD1402080F311880120E061002069
:1003A000DFF8D4154867BDE81F4000F00BBB1FBD48
:1003B000DFF8C405D0F88010491CC0F880107047E1
:1003C000DFF8B4054169C96A11B98169022901D30D
:1003D00000207047DFF89C15C96A406F081A704703
:1003E00070B500F00BFBDFF85455D5F88000401EC7
:1003F000C5F880000024D5F8800000283CD1286F83
:10040000C8B939E0E868C66806F1180000F042FB98
:1004100000F081F9F06AA96F00F02FF8A967504346
:100420002844311D00F07DFAF06A6969C96A884282
:1004300024BF0120E86728680028E3D1DFF834658D
:10044000306A40B90AE000F028F808B10120E867F6
:10045000306A401E3062306A0028F4D1E86F01280B
:100460000AD1DFF818154FF080500124086040BF12
:10047000BFF34F8FBFF36F8F0AE101228240114318
:1004800014227047FFE7DFF8F004406F7047DFF891
:10049000E8144A6F8018486770472DE9F041DFF88B
:1004A0009C64DFF8D054D6F880000024002838D1AE
:1004B000706F401C7067D6F87480B8F1000F08D1D7
:1004C000706D696971656861686A401C686200F0F6
:1004D0009CF9E86A804527D315E0381D00F0DAFA68
:1004E000B86A18B107F1180000F0D4FAF86A00F001
:1004F00047FA3044391D00F014FAF86A7169C96A84
:10050000884228BF0124706D006810B94FF0FF3099
:1005100005E0706DC068C76878688045DDD2E86224
:1005200002E0286A401C2862F06F00B101240EE24C
:10053000DFF84404D0F8801011B10121C167704781
:10054000C1676FF01302816FB1FA81F15143014429
:100550004FF42172114401F108034A6852684A605D
:100560009A4204BF52684A604968C968416170474D
:1005700038B500F035F800F074FA00F005F800F036
:1005800007F800D111E018E06869001D00F082BA98
:1005900040B96869A96FC06A012202FA00F021EA35
:1005A0000000A86714F1010F70476869011D05F18B
:1005B0005C00BDE8344000F048BA686F2018BDE820
:1005C0003240EBE038B500F00BF800F03EFAFFF7F0
:1005D000DBFF20B96869A96F00F0B2F9A867ECE702
:1005E000DFF894530C4669691831704738B5C06814
:1005F000DFF88443C568FFF7B0FED4F8800060B927
:10060000281D00F047FAE86AA16FFFF736FFA167DF
:1006100050432044291D183002E005F118012046FE
:1006200000F013FA6069E96AC06A88423ABF01259E
:10063000E567002500F0E9F8284632BDDFF8301301
:10064000496A0160DFF83013496F4160704770B547
:1006500004460D4600F0D2F9DFF8E002406F296849
:1006600011F1010F11D06268DFF804335B6A26686C
:10067000B34201D090420AD2831A8B4207D2081AA1
:10068000101828602046FFF7D9FF002400E001245D
:1006900000F0BCF9204670BDDFF8DC120120C8670D
:1006A0007047000070B5DFF8CC42DFF8CC521CE098
:1006B000FFF77EFE2068461EB641FFF791FEF60F5B
:1006C0009EB900F09BF9E068C66800F024F8286F36
:1006D000401E2867A86D401EA86500F097F9306B92
:1006E000C046C0463046C046C046A86D0028DFD18F
:1006F000A869022800F012F8FFF762FE0228F4D37E
:10070000FFF756FEFFF75CFE022828BF00F0A3FBB0
:10071000FFF766FEE9E7301D00F0BCB909D3DFF84A
:100720005C124FF08050086040BFBFF34F8FBFF3A3
:100730006F8F7047DFF840120A680120002A06BF59
:10074000C96F002900207047F8B5044615460020FF
:100750000A5C231883F834200A5C12B1401C042878
:10076000F6D30020032D04F1100684F8370028BFCB
:10077000022504F13807F56178603D60201D0021F5
:10078000016104F1180000210161C5F10300B060AE
:10079000346074610020B8603873F1BD38B5044628
:1007A0006648DFF8D05141694C60416F8C4206D2F7
:1007B0004069011D6869BDE8344000F052B94169E3
:1007C000406D091D00F04DF9E86A844238BFEC62C3
:1007D00031BD70B50C4685001CB9284600F098FB69
:1007E00004467CB1482000F093FB060006D0346339
:1007F000A5222946204600F0B1FB04E02046C04671
:10080000C04600E00026304670BD4C49DFF8640168
:100810004A6D126812B94FF0FF3103E0496DC968A3
:10082000C9684968C16270475148C06908B9012068
:100830007047DFF84401D0F8800008B90220704703
:1008400000207047F8B5040038D0DFF82C51E06A7A
:100850006969C96A884231D2A069002804D46869EC
:10086000C06AC0F10300A0611426E16A60697143A7
:100870002944183188421ED100F021F8012750B9CF
:10088000E06A70432844806928B9A86FE16A07FAD2
:1008900001F18843A8676869C06AE06207FA00F25C
:1008A000A96F1143A9677043211D2844BDE8F44096
:1008B000183000F0CAB86869C06AE062F1BD201D56
:1008C00000F0E8B8F8B50446002044B3E16BE26AF2
:1008D000A36B491E9A42E16321D001BBFFF7EFFFF2
:1008E00001251426244F50B9E06A704338448069CA
:1008F00028B9B86FE16A05FA01F18843B867A06BBF
:10090000E062C0F10300A061E06AB96F05FA00F28D
:100910001143B9677043384400F002F80120F2BD7A
:10092000211D183000F091B81348416919B141698F
:10093000CA6B521CCA63406970470000401800200F
:10094000C06A012202FA00F021EA00007047204646
:10095000BDE8F081000008D208494FF080500860DF
:1009600040BFBFF34F8FBFF36F8F70470000000091
:1009700004000020040000204018002004ED00E0E6
:10098000B16F0122824011431422B1675043704776
:1009900049444C450000000010B50FF290031B685D
:1009A000A0F12004A161E36122600FF211016161F5
:1009B0006FF0020140F8241D203810BD402080F364
:1009C0001188FEE710B5164CE020A07400F02BFA59
:1009D000144900200860A06F40F47000A06712481E
:1009E000016841F040410160206840F01000206043
:1009F00000F0D2FA402080F31188FEE7402080F317
:100A0000118808480168491C016070470548016861
:100A1000491E016004BF002080F311887047000068
:100A200010ED00E0B019002034EF00E000000001FC
:100A300000F1080141604FF0FF31816000F10801D1
:100A4000C160016100210160704742684A6093689B
:100A50008B6093685960916008610168491C01606E
:100A6000704730B50A6812F1010F08BF036907D05B
:100A700000F1080300E023465C682568AA42FAD228
:100A80005A684A6091608B60596008610168491C2E
:100A9000016030BD4368016982689A60836842687A
:100AA0005A604A68824204BF82684A60002202613A
:100AB0000868401E086070471FB500F04CF9DFF869
:100AC000DC028168002471B10C3001900394022093
:100AD00000900294002350220FF2C8210FF28D00E3
:100AE000FFF78EFB0446204604B010BD2DE9F0410F
:100AF0000D0004461646984608BF002710D028204F
:100B000000F006FA07000BD000F025F93C60BD614B
:100B1000FE61C7F8208006987862381D00210161C7
:100B20003846BDE8F0817FB59C4E04461D46B0684E
:100B30000023C0B106290091019202940EDAFFF75A
:100B400073FE022803D1089AB068002302E0B0685F
:100B500000230022694600F0C9FA03E02A466946EC
:100B600000F02EFB0346184604B070BDF0B583B00C
:100B70008A4C03E0FFF734FC00F09AF82068016823
:100B800011B90127002502E0C06805680027FFF7BA
:100B90000FFC01A800F039F8064601980028E9D1B9
:100BA0000FBBAE421FD3FFF71BFC2068C068C768AD
:100BB000381DFFF76FFFF869012810D1B869411996
:100BC0002B463246384600F059F8012807D100205C
:100BD000009000232A4600213846FFF7A4FF796AD7
:100BE00038468847C8E7A068A91B00F041FCFFF71A
:100BF000F7FB0028C0D16A494FF08050086040BF21
:100C0000BFF34F8FBFF36F8FB6E72DE9F04182B08E
:100C10000446FFF737FC614E0546306985420BD329
:100C20000020206035612846BDE8F68178603F618C
:100C3000391D3068FFF715FF30680168C9B1C06819
:100C4000D0F80080C768381DFFF724FF796A38465E
:100C50008847F8690128EFD1B86940448045E5D359
:100C6000002000900023424600213846FFF75BFF3A
:100C7000E2E77168706031600120D2E738B5002486
:100C80008A4241600061454D06D3D11A8269914282
:100C900006D2011D686807E09A4203D2994201D347
:100CA000012403E0011D2868FFF7DBFE204632BD6A
:100CB00010B586B006E00298A06181181346204660
:100CC000FFF7DCFF354880680023002201A900F00F
:100CD000AEFA00283DD00198002803D50499039866
:100CE000029A904701980028ECD4039C606910B1E7
:100CF000201DFFF7CFFE05A8FFF787FF02460198EA
:100D00000928DFD8DFE800F00707070506210707F5
:100D10000506D7E7CFE70298A169034609182046E0
:100D2000FFF7ACFF0128CDD1616A20468847E06912
:100D30000128C7D10020009000230298A1690A1859
:100D400000212046FFF7EFFEBCE72046C046C04624
:100D5000B8E706B010BD10B5FFF750FE0F4CA06805
:100D6000C0B904F11400FFF763FE04F12800FFF797
:100D70005FFE04F114002060002204F1280060608E
:100D80001021202000F095F9A06018B10FF21C018D
:100D900000F05AFBBDE81040FFF738BE44190020B0
:100DA00004ED00E0546D722053766300546D72516F
:100DB0000000000081B0002242504058009000988E
:100DC00001B07047F8B5474E4FF4A0713046FFF7B9
:100DD000F1FF0024EFF31185402080F31188424891
:100DE00007684FF480713046FFF7E4FFFFF74AFBD6
:100DF000381A20F07F46022E08D3FFF715FD02288F
:100E000004D0012602E0FFF748FB04433046461EAB
:100E10000028F8D124B135494FF08050086040BF18
:100E200085F31188F1BD80B5002000F072FB3049D8
:100E30001F20086001212F480160012229498A6092
:100E40000A6002210164E0202B4908704FF4003051
:100E50002A49086001BD2DE9F04104462848844232
:100E600028BF284C72B6204E3568FFF763FC002877
:100E700035D0204FDFF86C80012078604FF4A071EE
:100E8000601920F07F40F0634046FFF793FF4FF476
:100E900080303860BFF34F8F2CB120BF1A490A68E9
:100EA00049681143F9D078604FF4A0714046FFF7CC
:100EB00081FF4FF480714046FFF77CFF01203860CE
:100EC0004FF400313068114A401B20F07F408442CB
:100ED000116088BF044614B12046FFF7D8FA62B605
:100EE000BDE8F081001001400415014004ED00E070
:100EF000081501400413014011E400E000E100E0A6
:100F0000FEFFFF00FDFFFF0000E200E080E200E0E6
:100F100038B50546002415F0070F04D005F1080088
:100F200005F00701451AFFF743FA0B48416821B95C
:100F300000F11001C908C900416040F6F87301686A
:100F40006A189A4238BF914202D2436802605C1824
:100F5000FFF746FA204632BD3808002062F30F2220
:100F600062F31F4200B500BF130096469446103945
:100F700028BFA0E80C50FAD85FEA417C28BF0CC01B
:100F800048BF40F8042BC90728BF20F8022B48BFF0
:100F900000F8012B00BDFEE70548006880F30888D3
:100FA00062B661B6BFF34F8FBFF36F8F00DF00BF34
:100FB0000000000070470000064B19680868B0E8A0
:100FC000F04F80F30988BFF36F8F4FF0000080F37C
:100FD000118870475418002070470000EFF3098013
:100FE000BFF36F8F134B1A681EF0100F08BF20ED70
:100FF000108A20E9F04F106008B44FF0400080F3F1
:101000001188BFF34F8FBFF36F8FFFF791FA4FF047
:10101000000080F3118808BC19680868B0E8F04F38
:101020001EF0100F08BFB0EC108A80F30988BFF3E0
:101030006F8F7047541800207047FEE7EFF3118060
:10104000402181F31188704738B504460D46FFF7FB
:10105000D5FCE16B226C206851430844606000209D
:10106000A0632068E16B226CA060491E2068514398
:101070000844E0604FF0FF306064A0646DB92069FF
:1010800098B100F065F901280FD1DFF8DC134FF0BB
:101090008050086000F052F907E004F11000FFF7FB
:1010A000C7FC04F12400FFF7C3FCFFF7AFFC0120ED
:1010B00032BDF8B50D4600260446002D0EBF4C206B
:1010C00005FB04F04D30FFF723FF07000CD0002D87
:1010D0000EBF3F6007F14C003860FC633D640121A6
:1010E0003846FFF7B1FF3E463046F2BD2DE9F447E2
:1010F00083B004468A461E460027DFF86C834FF013
:10110000805903E000F016F9FFF76AF9FFF776FC63
:1011100000F081F801D3022E12D13246514620460A
:1011200000F01AF9616A21B100F07DF8012803D1BD
:1011300000E008B100F000F9FFF768FC01203EE094
:10114000039810B9FFF762FC38E01FB96846FFF753
:1011500075FA0127FFF75AFCFFF72AF9FFF74EFC53
:1011600000F0F2F804BF0020606400F058F804BFFB
:101170000020A064FFF74AFC03A96846FFF767FA5E
:10118000C0B9FFF73BFC00F046F80CBF0125002575
:10119000FFF73CFC002DB5D0039904F11000FFF7D8
:1011A000E7F900F0C7F8FFF71BF90028AED100F00F
:1011B000C3F8ABE700F0BEF8FFF712F90020B6E085
:1011C0002DE9F0410446884615461F46FFF736FFD5
:1011D00000F020F801D3022F17D13A4641462046AD
:1011E00000F0BAF800F01BF80AD1606A58B100F0BC
:1011F0001AF8002818BF002D05D00120286002E051
:10120000A06C401CA064012000E0002086F311883F
:10121000BDE8F0810646A06BE16B88427047A06C88
:1012200010F1010F704704F12400FFF7DFB92DE939
:10123000F44783B0044689461E460025DFF828A2FD
:101240004FF0805803E000F075F8FFF7C9F8FFF79A
:10125000D5FBA06B10B3E5684946204600F0B3F813
:1012600076B9A06B401EA063206810B9FFF75CFB45
:101270006060206970B100F06BF801280AD105E0C8
:10128000E560606A30B1FFF7CEFF18B1CAF80080A0
:1012900000F054F8FFF7BAFB012048E0039810B9BA
:1012A000FFF7B4FB42E01DB96846FFF7C7F9012517
:1012B000FFF7ACFBFFF77CF8FFF7A0FB00F044F86A
:1012C00004BF00206064FFF7AAFF04BF0020A064F1
:1012D000FFF79CFB03A96846FFF7B9F910BBFFF7BE
:1012E0008DFBA06B471EBF41FFF790FBFF0F002F48
:1012F000A9D0206830B9FFF781FB6068FFF7A2FA38
:10130000FFF784FB039904F12400FFF731F900F0A3
:1013100011F8FFF765F8002899D1CAF8008000F0AD
:101320000DF894E700F006F8FFF75AF8002004B033
:10133000BDE8F087204659E0C8F8009040BFBFF3F1
:101340004F8FBFF36F8F7047606C10F1010F7047C4
:1013500004F11000FFF74AB970B504461646226C36
:10136000002542B9206848BB6068FFF7ABFA054624
:101370000020606022E066B9A06800F037F9A0683C
:10138000216C08446168A060884217D32068A0607F
:1013900014E0E06800F02AF9206CE1684042014462
:1013A000E1602268914202D261680844E060022E46
:1013B00004D1A06B10B1A06B401EA063A06B401CB9
:1013C000A063284670BD10B5026C0B466AB1C168B7
:1013D00044681144C160A14224BF0168C160C16872
:1013E000BDE81040184600F001B910BD38B50446FC
:1013F000FFF704FB07E0FFF716FF08B1FFF74CF912
:10140000A06C401EA064A06C012802DB606A00286A
:10141000F1D14FF0FF35A564FFF7F8FAFFF7EEFAC8
:1014200007E0FFF795FF08B1FFF736F9606C401E43
:101430006064606C012802DB20690028F1D16564DA
:10144000BDE83140FFF7E2BA10B5084B1C68002236
:101450002CB943F8321003EBC201486010BD9C6800
:101460000122002CF5D010BD04ED00E094190020FD
:1014700038B504460D46FFF7C1FAFFF765FF04BF14
:1014800000206064FFF7CBFE04BF0020A064FFF7DC
:10149000BDFAA06B20B9294604F12400FFF792F8A9
:1014A0002046BDE83240A1E74FF0804181B00022E4
:1014B0000A5008580090009801B070474FF08041E2
:1014C000085800B10120C0B2704738B5414D2878A6
:1014D000002408B185240FE0A86068602861E860F6
:1014E0003D480068C00703D40721002000F0BAF887
:1014F0003A49012008602870204632BD0268134630
:1015000000E01B6813B18B42FBD170470A60016099
:10151000704738B52F4C0546A07830B115B16968D1
:101520000120884700F01EF813E000F0CAF825B14A
:10153000294604F11000FFF7E1FFE06848B94FF4D5
:101540008270FFF7B1FF2749022008600120264979
:101550000860E068401CE060FFE70020BDE8324022
:1015600000F0B0B8002000F0ACB838B5040019485D
:1015700014BF00F1100500F1080504E008682860B8
:1015800020464968884729680029F7D131BD38B518
:101590004FF48070FFF792FF0E4C114D48B14FF49D
:1015A0008070FFF781FF0120286060700020FFF746
:1015B000DCFF4FF48270FFF781FF50B14FF482706F
:1015C000FFF772FF022028600120A070BDE83240C2
:1015D000CBE731BD8019002000E100E01805004094
:1015E00008030040040300400800004062B38B077A
:1015F00008D0521E11F8013B00F8013B00F0248096
:101600008B07F6D1830740F0208000BF103A07D344
:1016100030B4B1E83810103AA0E83810F9D230BC34
:10162000530724BFB1E80810A0E8081044BF51F8E0
:10163000043B40F8043BD20724BF31F8022B20F8CA
:10164000022B44BF0B7803707047083A07D3B1E808
:101650000810083A40F8043B40F804CBF7D253078F
:10166000E4E7FEE710B54901020006D50A4B00F099
:101670000F04234403F8041C01E0084B19544109EA
:10168000012200F01F0002FA00F0054A42F8210092
:10169000044A42F8210010BD18ED00E000E400E02B
:1016A00080E200E000E100E072B607480168491CF2
:1016B0000160704704480168491E016000D162B6AC
:1016C0007047F1E7F6E70000AC19002010B590482C
:1016D0000178062904BF017911F00F0F0FD181683D
:1016E00001F0F002302A1EBF402A01F0F00150291B
:1016F00005D18849884A0968C1F30421116001783D
:10170000062904BF017911F00F0F02BF017A01F021
:10171000F001302902D1814A814911600378814A60
:101720008149062B04BF037913F00F0F0DD1836895
:1017300003F0F004302C1EBF402C03F0F003502BBC
:1017400003D10B68C3F3423353600378062B04BF05
:10175000037913F00F0F02BF037A03F0F003302B6D
:1017600004D1724B1C6824F080741C600378062B33
:1017700004BF037913F00F0F0ED1836803F0F00458
:10178000302C1EBF402C03F0F003502B04D1684BCB
:1017900000241C605C6014600378062B04BF03798E
:1017A00013F00F0F06D1037A03F0F003302B04BFC0
:1017B000032393660278062A04BF027912F00F0F02
:1017C00002BF027A02F0F002302A08D1594A0523FA
:1017D000136001239367002393603F2353600278D3
:1017E000062A04BF027912F00F0F02BF027A02F03C
:1017F000F002502A23D1504B504A1C6814605C6898
:1018000054609C689460DC68D4601C6914615C69F5
:1018100054619C691462DC6954621C6A94625C6A5B
:10182000D4629C6A1463DC6A54631C6B14645C6B42
:1018300054649C6B9464DC6BD4641B6C13650278F9
:10184000062A04BF027912F00F0F0ED1826802F04F
:10185000F003302B1EBF402B02F0F002502A04D1BF
:101860004969374A01F04F0111600178062904BF28
:10187000017911F00F0F10D1806800F0F0013029CC
:101880001EBF402900F0F000502806D12D48016805
:10189000C90744BF6FF0010101602B48C16F41F4DB
:1018A0007001C167BFF34F8FBFF36F8F27490A687D
:1018B000002A5CBF4A68002A21D5254A012313600B
:1018C000244B1C68002CFCD015240C601C68002CD8
:1018D000FCD015244C6019680029FCD0002111604F
:1018E00019680029FCD0BFF34F8F01681A4A01F430
:1018F000E06111430160BFF34F8F00BFFDE7024974
:101900000248086010BD0000000000200090D003D5
:10191000E00F00F0240300104035014074C0074080
:101920000DF0ADBA3805004044020010FCED00E0B7
:101930000C010040105600400404001020C5004077
:10194000E40E0040000400400CED00E00012001026
:1019500004E5014000E401400400FA0500F1804084
:1019600000F5C0400068012818BF0020704700F152
:10197000804000F5C04081B0002101600068009007
:10198000009801B070474FF0A04202EB8000D0F801
:10199000002722F44032C0F80027D0F8002742EA9E
:1019A0000141C0F80017704738B50FF2AC14256834
:1019B0000095034606E05DF82340D4F8104542F850
:1019C000044B5B1C0C18A342F5D331BD012200F07F
:1019D0000703C0089A40085C104070472DE9F04F9B
:1019E00085B0002600964FF48079012708250FFA6C
:1019F00089F0FFF7B3FF00281EBF55480068384242
:101A000004D00FFA89F0FFF7B2FF3E437F006D1E4E
:101A100009F10409EBD14FF4BE70FFF79FFF50B1FD
:101A20004FF4BE70FFF7A3FF6A4601210020FFF7C5
:101A3000BBFF46F000463006DFF8109115D00127B5
:101A4000444C37420DD054F8250054F8251059F86D
:101A50002520130005D0090C01F00301C0F3042078
:101A600090477F006D1C082DEBD3002E67D503A88F
:101A7000002101604FF0FF30029003AF02E00090C0
:101A8000039802900026002509EB050090F950000C
:101A9000C4B210F1010F24F0C00842D002A94046A0
:101AA000FFF794FF00283CD0A00900F0030409EBE5
:101AB000080090F9300059F820A0BAF1000F02D1C7
:101AC000032C2ED101E0032C08D14FEAD8000122CB
:101AD000395C08F007039A401143395469461A48A3
:101AE00050F82800000C00F0030B4046FFF76EFF93
:101AF00018B1BBF1020F14D102E0BBF1030F10D1FA
:101B0000032C08D1BBF1020F0CBF03210221404678
:101B1000FFF739FF761CBAF1000F02D0214640468C
:101B2000D0476D1C042DAFD3F6B246B101AA0121F6
:101B30000020FFF739FF0198009988429FD105B036
:101B4000BDE8F08F0000000000070050EC180020F6
:101B500004630040106500400000005041EA42016B
:101B600041EA8302009942EA0122019942EA0141D5
:101B7000144A42F820107047012202FA00F0124A7B
:101B800009B950607047106070470FF26C02105C2A
:101B90000121F1E710B500242046FFF7F6FF641C91
:101BA000042CF9D310BD0FF25001085C07490A68F4
:101BB000012303FA00F020EA02034B601040886022
:101BC0007047000000070050080500500405005051
:101BD00030B583B000240FF2200500200190009062
:101BE0000023285D01220121FFF7B8FF641C042CAB
:101BF000F3D3BDE83740CDE71112131480B50020B0
:101C0000FFF7D1FFC820FEF77AFBF8E70120FFF7C6
:101C1000CABF1FB5FFF759FC08B100F03FF8FFF746
:101C2000D7FF0020039002900023144C0FF25C01B8
:101C3000201D01904FF48272022000901048FEF7A0
:101C4000DFFA10480090002301224FF47A710FF25E
:101C50004400FEF74BFF2060FEF714FC0246002014
:101C60000090002320680121FEF75DFF064801680F
:101C700041F004010160FEF774FBFEE7A4190020A7
:101C8000FD1B00000D1C000010ED00E04C45443031
:101C9000000000004C4544310000000010B584B045
:101CA00069460022002300241CC100F001F81FBD7A
:101CB00002906A46002144F2010000F001B8FEE7FC
:101CC00008480068C00700D500BEBFF34F8F064824
:101CD000064A016801F4E06111430160BFF34F8FD0
:101CE00000BFFDE7F0ED00E00CED00E00400FA05B8
:101CF00019E050F8041BCB0744BFA9F101035918A0
:101D0000121F0023042A41F8043BF9D25FEA827CC7
:101D10000B4604D54FF0000CA1F800C09B1CD10766
:101D200044BF0021197050F8042B002AE1D17047FC
:101D300030B5016842688468014401EB5203D20760
:101D400048BF4C44994201D10C3030BD11F9012BF0
:101D500011F8015B002A04F8015B02D5521CF9D18D
:101D6000F0E7521EF4D5EDE710B507497944183174
:101D7000064C7C44163404E00A68081D1144884768
:101D80000146A142F8D110BD2C000000480000001F
:101D90004EF68851CEF20001086840F470000860E9
:101DA000BFF34F8FBFF36F8F4FF00070E1EE100A5B
:101DB000704700003DFFFFFF7C1100003808002045
:101DC000000000006DFFFFFFA800000012000000EF
:101DD00000000020FEE700000120C046002801D0DE
:101DE000FFF7C2FF0020AFF30080FFF712FF00F003
:101DF00000F800F001B8FEE70746384600F002F8A8
:101E0000FBE7FEE72021090326311820ABBEF9E7E6
:101E10000148804701480047CD160000211E000000
:101E2000AFF30080FFF7B4FFFFF7D6FFFEE7FEE752
:101E3000FEE7FEE7FEE7FEE7FEE7FEE7FEE7FEE77A
:101E4000FEE7FEE7FEE7FEE7FEE7FEE7FEE7FEE76A
:101E5000FEE7FEE7FEE7FEE7FEE7FEE7FEE7FEE75A
:101E6000FEE7FEE7FEE7FEE7FEE7FEE7FEE7FEE74A
:091E7000030090D003D400FCFF34
:0400000500001E21B8
:00000001FF
