:020000040000FA
:1000000000040020E90800007D050000C908000088
:1000100087050000910500009B050000000000001E
:100020000000000000000000000000000D090000BA
:10003000A505000000000000AF050000B9050000A4
:10004000C3050000CD050000D7050000E105000054
:10005000EB050000F5050000FF05000009060000A3
:10006000130600001D0600002706000031060000F0
:100070003B060000450600004F0600005906000040
:10008000630600006D060000770600008106000090
:100090008B060000950600009F060000A9060000E0
:1000A000B3060000BD060000C7060000D106000030
:1000B000DB060000E5060000EF060000F906000080
:1000C000030700000D0700001707000021070000CC
:1000D0002B070000350700003F070000490700001C
:1000E000530700005D07000067070000710700006C
:1000F0007B070000850700008F07000099070000BC
:10010000A30700001FB500F003F88DE80F001FBD26
:1001100000F0E0BB1FB56FF00100009040100390AD
:10012000029001904FF010208069000B420900F00E
:100130001F045DF822300120A04083434DF8223097
:10014000684600F045F91FBDF0B54FF6FF734FF458
:10015000B4751A466E1E11E0A94201D3344600E080
:100160000C46091B30F8027B641E3B441A44F9D14B
:100170009CB204EB134394B204EB12420029EBD17E
:1001800098B200EB134002EB124140EA0140F0BD8F
:10019000DE4992B00446D1E90001CDE91001FF2209
:1001A0004021684600F03CFB94E80F008DE80F000A
:1001B000684610A902E004C841F8042D8842FAD12B
:1001C00010216846FFF7C0FF1090AA208DF8440068
:1001D000FFF7A0FF00F0F3F84FF01024A069102201
:1001E0006946803000F002F9A069082210A900F0E9
:1001F000FDF800F0D8F84FF080510A6949690068AD
:100200004A43824201D8102070470020704710B541
:10021000D0E900214FF0805002EB8103026944696C
:100220006243934209D84FF01022536903EB8103D4
:100230000169406941438B4201D9092010BD5069D1
:10024000401C01D0002010BD0F2010BD70B501680A
:100250000446AF4D4FF01020072952D2DFE801F0DD
:10026000330419293C1E2500D4E902656468294637
:10027000304600F0CDF82A462146304600F0B6F868
:10028000AA002146304600F09FFA002800D0032043
:1002900070BD00F051FB4FF4805007E0201DFFF7C8
:1002A000AAFF0028F4D100F047FB60682860002016
:1002B00070BD241D94E80700920000F085FA002824
:1002C000F6D00E2070BD8069401C12D0201DFFF7B3
:1002D0009EFF0028F6D109E08069401C09D0201D4E
:1002E000FFF789FF0028EDD1606820B12046FFF7B5
:1002F0004FFF042070BDFFF70DFF00F060F800F025
:1003000052F8072070BD10B50C46182802D0012005
:10031000086010BD2068FFF799FF206010BD4FF006
:100320001024A069401C05D0A569A66980353079E4
:10033000AA2808D06069401C2DD060690068401C64
:1003400029D060692CE010212846FFF7FDFE3168B6
:1003500081421CD1A16901F18002C03105E030B1B8
:1003600008CA51F8040D984201D1012000E0002094
:100370008A42F4D158B1286810B1042803D0FEE7AE
:10038000284600F057F862496868086008E000F005
:1003900016F800F008F84FF480500168491C01D0AD
:1003A00000F0A4FAFEE7BFF34F8F5A4801685A4A9B
:1003B00001F4E06111430160BFF34F8FFEE74FF09E
:1003C00010208169491C02D0806900F0AEB87047E6
:1003D000524A01681160121D416811604F4A8168DC
:1003E00010321160111DC068086070472DE9F0419E
:1003F00017460D460646002406E03046296800F000
:10040000A7F8641C2D1D361DBC42F6D3BDE8F08153
:1004100070B50C4605464FF4806608E0284600F0AB
:1004200084F8B44205D3A4F5806405F58055002C0A
:10043000F4D170BD4168044609B1012500E00025F2
:100440004FF010267069A268920000F0BDF9C8B1A3
:10045000204600F01AF89DB17669A56864684FF4EB
:10046000002084420AD2854208D229463046FFF74E
:10047000CFFF2A4621463046FFF7B8FFFFF79FFF20
:10048000FFF791FFFFF746FEF8E72DE9FF414FF038
:100490001024616980680D0B01EB800000F6FF708D
:1004A000010B0020009001900290024603906846E4
:1004B00001230BE0560902F01F0C50F8267003FAD6
:1004C0000CFC47EA0C0740F82670521CAA42F1D3F4
:1004D0000AE04A0901F01F0650F8225003FA06F616
:1004E000354340F82250491C8029F2D3A169090BF9
:1004F0004A0901F01F0150F822408B409C4340F80C
:100500002240FFF765FFBDE8FF8100005C090000A5
:10051000000000200CED00E00400FA050006004099
:10052000144801680029FCD07047134A0221116069
:1005300010490B68002BFCD00F4B1B1D186008687E
:100540000028FCD00020106008680028FCD070470C
:10055000094B10B501221A60064A1468002CFCD021
:10056000016010680028FCD0002018601068002886
:10057000FCD010BD00E4014004E5014008208F4993
:1005800009680958084710208C4909680958084724
:1005900014208A49096809580847182087490968BA
:1005A0000958084730208549096809580847382004
:1005B00082490968095808473C2080490968095858
:1005C000084740207D4909680958084744207B496D
:1005D00009680958084748207849096809580847B0
:1005E0004C20764909680958084750207349096822
:1005F0000958084754207149096809580847582084
:100600006E490968095808475C206C49096809580F
:100610000847602069490968095808476420674904
:100620000968095808476820644909680958084753
:100630006C20624909680958084770205F490968B9
:100640000958084774205D49096809580847782007
:100650005A490968095808477C20584909680958C7
:10066000084780205549096809580847842053499C
:1006700009680958084788205049096809580847F7
:100680008C204E4909680958084790204B49096851
:10069000095808479420494909680958084798208B
:1006A00046490968095808479C204449096809587F
:1006B0000847A0204149096809580847A4203F4934
:1006C000096809580847A8203C490968095808479B
:1006D000AC203A49096809580847B02037490968E9
:1006E00009580847B4203549096809580847B8200F
:1006F0003249096809580847BC2030490968095837
:100700000847C0202D49096809580847C4202B49CB
:10071000096809580847C82028490968095808473E
:10072000CC202649096809580847D0202349096880
:1007300009580847D4202149096809580847D82092
:100740001E49096809580847DC201C4909680958EE
:100750000847E0201949096809580847E420174963
:10076000096809580847E8201449096809580847E2
:10077000EC201249096809580847F0200F49096818
:1007800009580847F4200D49096809580847F82016
:100790000A49096809580847FC20084909680958A6
:1007A00008475FF480700549096809580847000048
:1007B00003480449024A034B704700000000002030
:1007C000680900006809000040EA010310B59B07B2
:1007D0000FD1042A0DD310C808C9121F9C42F8D0AB
:1007E00020BA19BA884201D9012010BD4FF0FF305C
:1007F00010BD1AB1D30703D0521C07E0002010BD72
:1008000010F8013B11F8014B1B1B07D110F8013BFD
:1008100011F8014B1B1B01D1921EF1D1184610BDDE
:1008200002F0FF0343EA032242EA024200F005B865
:100830007047704770474FF000020429C0F01280E3
:1008400010F0030C00F01B80CCF1040CBCF1020F83
:1008500018BF00F8012BA8BF20F8022BA1EB0C0158
:1008600000F00DB85FEAC17C24BF00F8012B00F84E
:10087000012B48BF00F8012B70474FF0000200B574
:10088000134694469646203922BFA0E80C50A0E8B3
:100890000C50B1F12001BFF4F7AF090728BFA0E861
:1008A0000C5048BF0CC05DF804EB890028BF40F82D
:1008B000042B08BF704748BF20F8022B11F0804F6F
:1008C00018BF00F8012B7047014B1B68DB68184705
:1008D0000000002009480A497047FFF7FBFFFFF7B7
:1008E00011FC00BD20BFFDE7064B1847064A10600B
:1008F000016881F30888406800470000680900002B
:10090000680900001F030000000000201EF0040F13
:100910000CBFEFF30881EFF3098188690238007892
:10092000182803D100E00000074A1047074A126860
:100930002C3212681047000000B5054B1B68054AB1
:100940009B58984700BD00000703000000000020EE
:100950005809000004000000001000000000000022
:0809600000FFFFFF0090D0032F
:10100000A8110020F5EA0100BD2F000067EA0100E9
:10101000BD2F0000BD2F0000BD2F0000000000000C
:101020000000000000000000000000004DEB010087
:10103000BD2F000000000000BD2F0000BD2F0000EC
:10104000B5EB0100BBEB0100BD2F0000BD2F000080
:10105000BD2F0000BD2F0000BD2F0000BD2F0000E0
:10106000C1EB0100BD2F0000BD2F0000C7EB010048
:10107000BD2F0000CDEB0100D3EB0100D9EB010047
:10108000BD2F0000BD2F0000BD2F0000BD2F0000B0
:10109000BD2F0000BD2F0000BD2F0000BD2F0000A0
:1010A000BD2F0000DFEB0100BD2F0000BD2F0000B1
:1010B000BD2F0000BD2F0000BD2F0000BD2F000080
:1010C000E5EB0100BD2F0000BD2F0000BD2F00008B
:1010D000BD2F0000BD2F0000BD2F0000BD2F000060
:1010E000BD2F0000BD2F0000BD2F0000BD2F000050
:1010F000BD2F0000BD2F0000BD2F0000BD2F000040
:10110000BD2F0000BD2F000000F002F81DF0DFFC35
:101110000AA090E8000C82448344AAF10107DA4552
:1011200001D11DF0D4FCAFF2090EBAE80F0013F0A4
:10113000010F18BFFB1A43F001031847F8DE010046
:1011400018DF01000A444FF0000C10F8013B13F0C7
:10115000070408BF10F8014B1D1108BF10F8015B10
:10116000641E05D010F8016B641E01F8016BF9D103
:1011700013F0080F1EBF10F8014BAD1C0C1B09D15A
:101180006D1E58BF01F801CBFAD505E014F8016BCC
:1011900001F8016B6D1EF9D59142D6D3704700005E
:1011A0000023002400250026103A28BF78C1FBD870
:1011B000520728BF30C148BF0B6070471FB500F011
:1011C0003DF88DE80F001FBD1EF0040F0CBFEFF3BC
:1011D0000880EFF30980014A1047000011B80000B1
:1011E0008269034981614FF001001044704700009B
:1011F000F511000001B41EB400B511F01DFF01B4DB
:101200000198864601BC01B01EBD0000F0B4404606
:10121000494652465B460FB402A0013001B506486C
:10122000004700BF01BC86460FBC804689469246F7
:101230009B46F0BC70470000091100001DF044BC43
:1012400070B51A4C054609202070A01C00F05FF80C
:101250005920A08029462046BDE8704007F02CBBED
:1012600007F035BB70B50C461149097829B1A0F1DA
:101270006001562908D3012013E0602804D06928B2
:1012800002D043F201000CE020CC0A4E94E80E009C
:1012900006EB8000A0F58050241FD0F8806E284611
:1012A000B047206070BD012070470000080000209A
:1012B0001C00002014EC010010B5044600210120A0
:1012C00000F03DF800210B2000F039F8042119202E
:1012D00000F035F804210D2000F031F804210E2033
:1012E00000F02DF804210F2000F029F80421C84354
:1012F00000F025F80621162000F021F8062115201F
:1013000000F01DF82046FFF79BFF002010BDA5212F
:1013100001807047FFF7A4BF11487047104870471D
:10132000104A10B514680F4B0F4A08331A60FFF7C4
:1013300099FF0C48001D046010BD704770474907B5
:10134000090E002806DA00F00F0000F1E02080F816
:10135000141D704700F1E02080F800147047000071
:1013600003F90042100502400100000130B5FA4DBA
:10137000044610280AD0112C06D02846122CC17819
:1013800006D0132C08D0FFDFEC7030BDFFDFFBE789
:101390001129F9D0FFDFF7E71129F5D0FFDFF3E7D7
:1013A0002DE9F04110F000FB044611F094FC201AE6
:1013B000C5B206200EF094FB044606200EF098FB02
:1013C000211AE54CE078132818D000200F180720C8
:1013D0000EF086FB064607200EF08AFB301A3918FD
:1013E000E07812280CD0002001442078022809D08F
:1013F00000200844281AC0B2BDE8F0810120E5E7CA
:101400000120F1E70120F4E7D34810B5817900F11C
:101410000700490805D00CF079FEBDE8104007F040
:10142000FFB80CF054FEF8E702210EF0B1BB2DE935
:10143000FC411D4690460E460746FFF7F5FF0400A7
:101440000AD02078222804D3A07FC0F34010A842FD
:1014500005D10820BDE8FC8143F20200FAE7ADF8AF
:1014600000703DB101208DF802008DF803608DF809
:10147000048002E000208DF8020068460DF015FCA3
:10148000A07F65F34510A0770020E3E730B5044660
:10149000A1F120000D460A284AD2DFE800F0050736
:1014A0000C1C2328353A3F44FFDF42E020782028F7
:1014B0003FD1FFDF3DE0A8480178032939D0C0784B
:1014C000132836D02078242833D0252831D023285B
:1014D0002FD0FFDF2DE0207822282AD0232828D8FB
:1014E000FFDF26E02078222823D0FFDF21E02078CC
:1014F00022281ED024281CD026281AD0272818D00D
:10150000292816D0FFDF14E02078252811D0FFDF2E
:101510000FE0207825280CD0FFDF0AE0207825286E
:1015200007D0FFDF05E02078282802D0FFDF00E0A9
:10153000FFDF257030BD1FB504466A46002001F06C
:101540005EFCB4B1BDF802204FF6FF700621824266
:1015500001D1ADF80210BDF80420824201D1ADF8EE
:101560000410BDF80810814203D14FF44860ADF873
:10157000080068460DF067F807F052F804B010BD97
:1015800070B514460D46064611F0D6FF58B90DB198
:10159000A54201D90C2070BD002408E056F82400B3
:1015A00011F0CAFF08B1102070BD641CE4B2AC4257
:1015B000F4D3002070BDF0B50024059D10B1A94200
:1015C00003D850E009B90020F0BD0920F0BD055D49
:1015D000D5B1071997F801C0BCF1150F2DD03BDC30
:1015E000BCF1150F38D2DFE80CF037122020262688
:1015F00028282F2F373737373737373737372000F7
:10160000025D22BB641CE4B28C42F9D3DBE7022DFD
:10161000DBD1BD781D70072D01D26D0701D40A20E2
:10162000F0BD157845F0010515E0EF43FF0707E031
:10163000012D07D010E00620F0BD2F07A7F180573D
:10164000002FF5D03046F0BD1578AF0701D50B203F
:10165000F0BD45F002051570055D641C2C44E4B234
:101660008C4202D9B1E74FF448568C42AFD3AAE777
:1016700010B50278540809D0012243F20223012C4C
:1016800007D0022C0DD0032C13D10FE000200870DE
:1016900005E080790324B4EB901F0AD10A70002082
:1016A00010BD8079B2EB901F03D1F7E780798009F4
:1016B000F4D0184610BD284A117C39B1517C02295A
:1016C00008D0032908D043F2022070470146901D3C
:1016D00001F002BC032100E00121017000207047ED
:1016E00038B50C460546694601F0F6FB00280DD1D9
:1016F0009DF80010207861F34700207055F8010F25
:10170000C4F80100A888A4F80500002038BD38B549
:101710001378C0B1022816D010A46D462468009436
:101720004C7905EB9414247864F347031370032871
:101730000ED003F0FE0010700868C2F8010088881F
:10174000A2F8050038BD23F0FE0313700228EED185
:10175000D8B240F00100EEE7C80100200302FF010B
:1017600038B50C460978222901D2082038BDADF8D9
:1017700000008DF8022068460CF010FD06F050FFC6
:10178000050003D121212046FFF780FE284638BD01
:101790001CB500208DF80000CDF80100ADF8050063
:1017A000FE48007C022801D0012000E000208DF8D6
:1017B000070068460CF030FE002800D0FFDF1CBD9B
:1017C0002DE9FF470220F54E8DF804000027B08A6E
:1017D000ADF80600B84643F202094CE001A80EF04D
:1017E0003EF9050006D0B08AA8B3A6F81480ADF87B
:1017F00006803EE0039CA07F01072DD504F1240064
:101800000090A28EBDF80800214604F1360301F0D5
:101810007DFF050005D04D452AD0112D3CD0FFDFBE
:101820003AE0A07F20F00800A077E07F810861F314
:101830000000C10861F34100E07794F8210000F056
:101840001F0084F820002078282826D1292120464E
:10185000FFF71CFE21E014E040070AD5BDF80800A0
:1018600004F10E0101F050FB05000DD04D4510D1E3
:1018700000257F1CFFB202200EF032F9401CB84256
:10188000ACD8052D12D008E0A07F20F00400A0778E
:1018900003E0112D00D0FFDF0025BDF80600B08267
:1018A000052D05D0284604B0BDE8F087A6F81480C1
:1018B0000020F8E770B50646FFF7B6FD054607F0CD
:1018C00079F8040000D1FFDF6680207820F00F0057
:1018D000801C20F0F000203020700620207295F847
:1018E0003E006072BDE8704007F067B82DE9F04730
:1018F00086B0040000D1FFDF2078A84E20F00F0052
:10190000801C20F0F0007030207060680178091FA2
:10191000182931D2DFE801F0FD30303053FC300CB3
:10192000FCFC40FD3030FD76FDFD3030FDFDFBFA66
:1019300086883046FFF778FD0546304608F0E0FB24
:10194000E0B16068807985F83E0021212846FFF7E4
:101950009DFD304603F0CBFF304605F037F93146A8
:10196000022011F09DFDA87F20F01000A877FFF75E
:1019700027FF002800D0FFDF06B095E7207820F091
:10198000F000203020700620207266806068807928
:10199000607207F012F8D8E785882846FFF744FD03
:1019A00000B9FFDF60688078012800D0FFDF606841
:1019B000817906B02846BDE8F04708F07DBF8688EB
:1019C0003046FFF731FD050000D1FFDF06F0F5FFDF
:1019D00060683146C08828816068008968816068D5
:1019E0004089A881022011F05BFD0020A875A87F26
:1019F00000F003000228BFD1FFF7E2FE0028BBD0B1
:101A0000FFDFB9E780783C2803D0002502280AD000
:101A100000E00125002720B13C2802D0022800D098
:101A2000FFDF17B1B3E00127F5E706F0C6FF1DB1F0
:101A3000B07801F022FA9CE06568B5F804A0A879B6
:101A4000AD1C012806D03079814606F055FD07000F
:101A500003D101E0B078F7E7FFDF00220221504612
:101A60000EF08DF8040000D1FFDF22212046FFF7A1
:101A70000DFD2879012800D00220A17F804668F35F
:101A80000101A177288B2081688B6081A88BA081C0
:101A900084F822908DF80880B8680090F86801906A
:101AA0006A46032150460EF06AF800B9FFDFB88895
:101AB000ADF81000B8788DF8120004AA0521504640
:101AC0000EF05DF800B9FFDFB888ADF80C00F878CB
:101AD0008DF80E0003AA042150460EF050F800B90C
:101AE000FFDF062105F1120001F02CFA28B3687916
:101AF000800700D5FFDF6979E07D61F34700E0757D
:101B0000D5F80600A0616889A08303E05CE055E099
:101B10004EE060E0062105F10C0001F013FAB0B1CF
:101B2000B0794108607861F347006070D6F807002B
:101B3000C4F80200B6F80B0012E0E07D20F0FE00D1
:101B4000801CE075D5F81200A061E88ADCE76078B7
:101B500020F0FE00801C6070E868C4F80200288A4B
:101B6000E080B8F1010F04D0B8F1020F0FD0FFDF11
:101B700002E73078032800D0FFDF0021084611F08B
:101B80008FFC06B00120BDE8F04701F045B9F078C0
:101B9000132800D0FFDF0021062001E0C80100204B
:101BA00011F07EFC06B01120BDE8F047FFF7DEBB68
:101BB00006B02046BDE8F04702F030B806F0FDFE62
:101BC000B07C40F0020004E006F0F7FEB07C40F08C
:101BD0000400B074D0E606B0BDE8F04706F0EDBEF4
:101BE0002DE9F04705460078914600270209FB4899
:101BF0000C463E46012A6DD000234FF6FF71022AA3
:101C000069D0072A09D00A2A71D0FFDFA9F800603D
:101C10000CB127806680002046E6D5F804C09CF809
:101C20000060142E7DD010DC04F1080204F11808C5
:101C30000F2E21D004DC042E5AD0082E57D10DE0EF
:101C4000122E6FD0132EF9D11FE0153E072E4ED263
:101C5000DFE806F0C14D4D099FEAB00012271026BB
:101C6000BCF8040014E11C27092694B3BCF8020058
:101C7000A080686800795AE11B2709264CB303202D
:101C8000207268684088A080C0E79CF802003C2869
:101C900027D0102718260CF1020CD4B1BCF8020092
:101CA000A080BCF818006082BCF818002082BCF844
:101CB0001A00A082BCF81C00E0829CF805000CF120
:101CC0000601FFF724FD9CF8040028B10120E07311
:101CD0009CE703E0BFE0DFE00220F8E7A9F800603E
:101CE00099E71B270926002CF8D023728EE720E104
:101CF0001D273726002CF1D0A18069680879491D7D
:101D0000FFF705FD686890F82B00A0756868C0783B
:101D10000428E07D16D020F00100E0756968C978DC
:101D200001E06DE011E061F34200E07569681F2297
:101D3000C97A61F3C700E075696840460C311CF050
:101D4000C4FD63E740F00100E7E71D273726002CBC
:101D5000C4D0A1806868411D0079FFF7D8FC69688C
:101D600004F10F0201F10C00CB7A01461846FFF78F
:101D7000CEFC6868807CA0756868C178E07D61F3FE
:101D8000420020F0F900E0751F2140461CF03EFEA5
:101D90003CE720271026002CA0D0A180686804F121
:101DA0000902407A20726968CB1C88781946FFF7CF
:101DB000AEFC2BE721270A26002C8FD0BCF802109E
:101DC000A180696809792172696849796172817CA9
:101DD00021F0040157E022270B26002C84D0BCF808
:101DE0000400A0806868807820726868807901F0BB
:101DF000B8F860726868C07901F0B3F8A07205E7BE
:101E000024271026002CA3D0BCF80200A08068680C
:101E1000007920816868007A60816868C088A08144
:101E200068684089E081F1E623271026002C8FD0D6
:101E3000BCF80210A1806968898821816968C98815
:101E4000618169680989A18169684989E181817C29
:101E500021F0020117E0297A012903D0022914D0C8
:101E6000FFDFD3E61F271026002C95D06988A180BC
:101E7000A9892181E9896181298AA181698AE18110
:101E8000817C21F001018174C0E612276888102648
:101E9000214601F044F8B9E6287A072850D2DFE855
:101EA00000F0373D3D484848040011270926002C22
:101EB00094D0B5F802804046FFF7B6FA90F822A019
:101EC000A4F80480687A2072042140460DF072FE66
:101ED000052140460DF06EFE002140460DF06AFEE1
:101EE000012140460DF066FE032140460DF062FEE2
:101EF000022140460DF05EFE062140460DF05AFEDE
:101F0000072140460DF056FE504600F0B6FF7DE634
:101F10001B270926002C8AD0A180E6E61B2709266C
:101F2000002C84D0A180287A012800D002202072C1
:101F30006CE64A4621462846BDE8F04701F0F8BF66
:101F4000FFDF63E670B5254DE878132801D008203F
:101F500070BD0CF0B3FC06F063FB040002D12879DD
:101F600000F08BFF0021062011F09AFA204670BD88
:101F70001A4810B5C078122801D0082010BD0021E1
:101F800008460CF0FAFA06F04BFB0028F6D10021C7
:101F9000062011F085FA1120FFF7E8F9002010BDA6
:101FA00010B50E4C207801280ED000200CF0A1FDB9
:101FB00006F036FB002808D10021084611F070FA1F
:101FC0002078032802D004E0082010BDA07800F09B
:101FD00054FF012000F020FF002010BDC8010020A8
:101FE00070B5002538B1022817D0062836D007284A
:101FF00000D0FFDF70BDFFF7D3FF0028FAD106F055
:10200000D9FC0028F6D0017821F00F01891C21F0BD
:10201000F0012031017005723FE08EB23046FFF7CB
:1020200003FA040000D1FFDF20782128E2D006F077
:10203000C1FC60B1017821F00F01891C21F0F00191
:1020400010310170022101724680A57525E02146FC
:102050003046BDE870401322FFF782BBFE48C478CB
:10206000122C03D0132C04D0FFDF70BDFFF780FFCC
:1020700001E0FFF767FF0028F7D106F09BFC00287E
:10208000F3D0017821F00F01891C21F0F0012031FB
:102090000170122C05D002210172BDE8704006F0DB
:1020A0008CBC0121F8E72DE9F04116460C00804672
:1020B00000D1FFDF307820F00F00801C20F0F0000E
:1020C000103030702078012804D0022817D0FFDFAC
:1020D000BDE8F0814046FFF7A7F9050000D1FFDF1A
:1020E0000320A87506F069FC94E80F00083686E81E
:1020F0000F00D948817C41F001018174E8E7404636
:10210000FFF792F9050000D1FFDFA1884FF6FF70BD
:102110000027814202D1E288824203D0814201D16C
:10212000E08840B106F049FC94E80F00083686E8E4
:102130000F00AF75CCE7A87D0128C9D17823002214
:102140004146022011F002F90220A875C0E738B517
:1021500005460C46084611F0EFF920BB203D072D3F
:1021600051D2DFE805F0041C383D4349310000211D
:10217000072011F06BF908B1112038BDA01C0CF03C
:1021800010FC06F04DFA05003ED10022082311464E
:10219000072011F0DBF8072836D0FFDF34E0606855
:1021A00011F00EFA08B1102038BD618820886A4607
:1021B0000CF0CBFD06F034FA050025D1606818B3A9
:1021C000BDF8001001801FE0A07800F00101208818
:1021D0000CF0F1FD14E0206802F057F9054613E019
:1021E000207800F001000CF058FE09E0207800F0A3
:1021F00001000BF05FFF03E0618820880CF02DFDEB
:1022000006F00EFAEAE70725284638BD70B5054600
:102210000C46084611F0B6F908B1102070BD203DFB
:10222000072D1BD2DFE805F0041818181A1A180039
:102230002088FFF7F9F820B10078222804D208207E
:1022400070BD43F2020070BD2088A11C0CF003F8A1
:10225000BDE8704006F0E4B9062070BD072070BDEF
:102260007D48801D704738B516217B481CF0ACFBBB
:10227000012000F0D1FD1120FFF778F8764C684678
:10228000E11D06F02DFB9DF80010A07961F34700D9
:1022900020F00100A071002020744FF46170E081F3
:1022A00002206074FFF7B0F800B1FFDF00F0BEFE5F
:1022B00001F07FFC38BD10B50C46402120461CF0D3
:1022C00083FBA07F20F00300A07720202070002057
:1022D000A07584F8230080E670477CB5054611F0B0
:1022E0002BF908B110207CBD5B4CA11DD4F8060071
:1022F0000090D4F80A0001902846FFF7F1F9002871
:10230000F1D1FFF781F80028EDD00099C4F806104C
:10231000BDF8041061819DF8061021737CBD10B5D5
:10232000044611F02FF908B1102056E64A4922461A
:102330008879C91D4008FFF7EAF900204DE6FEB58F
:102340000D4604004FF0000711D00822FFF718F9DE
:10235000002811D1002608E054F826006946FFF74E
:1023600087F9002808D1761CF6B2AE42F4D30BF000
:102370000BFE10B143F20320FEBD374E7771FCB166
:1023800000271AE054F8270002A9FFF771F900B1FD
:10239000FFDF9DF808008DF8000054F8270050F882
:1023A000011FCDF801108088ADF8050068460BF0DC
:1023B00010FE00B1FFDF7F1CFFB2AF42E2D37571A8
:1023C0000020FEBD2DE9F0478AB01546894604007D
:1023D0001DD00F4608222946FFF7D2F8002810D159
:1023E000002612E054F826006946103000F074FD13
:1023F000002806D13FB157F8260011F09DF810B122
:1024000010200AB008E4761CF6B2AE42EAD30026E9
:10241000A5F101081CE000BF06F1010A0AF0FF0760
:1024200012E000BF54F82600017C4A0854F8271037
:102430000B7CB2EB530F05D10622113011311CF089
:1024400018FA70B17F1CFFB2AF42EBD30AF0FF065F
:102450004645E1DB4E4601E0C801002024B10120E1
:1024600003E043F20520CCE700200BF0D2FD10B9C9
:102470000BF0DBFD10B143F20420C2E764B3002788
:102480000DF1170826E000BF54F827006946103008
:1024900000F022FD00B1FFDF54F82700102250F8B1
:1024A000111FCDF801108088ADF8050054F82710F1
:1024B0000DF107001CF009FA96B156F8271010220A
:1024C00040461CF002FA68460BF068FD00B1FFDFE1
:1024D0007F1CFFB2AF42D7D3FFF75AF9002090E735
:1024E000404601F0C6FFEEE730B585B0044611F076
:1024F00023F818B9606811F06CF810B1102005B01D
:1025000030BD60884AF2B811884206D82078F74D6D
:1025100028B1012806D0022804D00720EFE7FEF7F3
:1025200073FF17E06078022804D0032802D043F23A
:102530000220E4E76874C1B200200090ADF8040006
:1025400002292BD0032926D0FFDF68460BF0DEFDE1
:1025500006F066F80028D2D1606801F07DFF20788F
:1025600058B101208DF800000DF1010001F081FF4C
:1025700068460CF07CFC00B1FFDF20782874FFF780
:1025800007F9608860B1E88180B20BF03AFD00B1D4
:10259000FFDF0020B3E78DF80500D6E74020FAE71B
:1025A0004FF46170EFE710B5044610F0EBFF20B96F
:1025B000606838B111F004F808B110200DE56068CA
:1025C00001F057FFC948C1896180417C6170007C7E
:1025D0002070002001E52DE9F04186B0054600207D
:1025E0008DF80C008DF804008DF808008DF81000AF
:1025F0001E4614468846284610F0EBFF18B92046C0
:1026000010F0E7FF10B1102006B061E555EA0400B4
:1026100018D01F2702AB03AA414628460097FEF7B1
:10262000CAFF0028F0D104AB01AA3146204600972A
:10263000FEF7C1FF0028E7D19DF80400C00703D0D2
:102640000A20E1E70720DFE73DB1294640460CF0CC
:102650003EFA05F0E5FF0028D6D13CB121463046D0
:102660000CF03EFA05F0DCFF0028CDD19F499DF823
:10267000080048700020C7E72DE9F04387B089467D
:102680004FF000089AA104468DF81080D1E90001AE
:10269000CDE90501204610F04FFF80B920780128D0
:1026A00003D1606810F048FF48B9904D287C50B1C4
:1026B000687C022807D1606810F08BFF18B11020E9
:1026C00007B0BDE8F0832878012801D00820F7E79B
:1026D00007200DF00DFA18B9207878B101280DD037
:1026E000FEF75EFE60B1608943F6E172A0F1200161
:1026F000914221780CD3012904D0B2E01220DFE707
:102700001320DDE700287CD1A189002979D109E0D7
:10271000012907D06978C90704D0A189002970D0A0
:10272000B4296ED8217831B1012908D0022904D00A
:10273000032966D10AE0002609E0022607E008B96D
:10274000A08908B1042609E0012607E00326287CB9
:1027500050B1687C022807D1606828B104A960687C
:10276000FEF786FF0028ABD1207A30B1012806D0D1
:10277000022806D0032874D105E0002704E00127D1
:1027800002E0022700E003270EB1022E0ED16FB146
:102790006879B0B36878800702D043F201208FE7F0
:1027A000022E03D1022F5CD0032F5AD0207808B11B
:1027B000012806D1484600F043FB002880D185F867
:1027C00002906089ADF800006089ADF802008DF8D4
:1027D00004600DF10500FEF76EFF00B1FFDF9DF80C
:1027E00010008DF806002078012806D0287C68B1FA
:1027F000687C02280AD1606840B1606850F8011F07
:1028000000E02EE0CDF80710808802E04046CDF8C9
:102810000780ADF80B008DF80E70A07BC0F340026E
:10282000014662F35F01C0F3800041EA800005A920
:10283000085C8DF80D00A0B168460CF017F905F0A2
:10284000EFFE0028ABD101200CF053F905F0E8FEB3
:102850000028A4D1052E0ED2DFE806F005050A0AED
:10286000050007202CE7A87800F0FAFA032000E022
:10287000022000F0D1FA012E0AD0A08940B1002236
:1028800083001146104610F061FD08B1032017E7E0
:10289000002015E72DE9FC4180460E460325084639
:1028A00010F097FE00286DD14046FEF7BDFD0400F4
:1028B00005D02078222805D20820BDE8FC8143F20B
:1028C0000200FAE7A07F00F003073EB1012F13D00A
:1028D00000203146FEF72FFE0500EED1012F0DD06E
:1028E000022F21D0FFDF2846E7E70000C8010020C3
:1028F00007060504030201000120EAE7A07D314636
:10290000022801D011B107E01120D6E7684600F097
:102910009AFC0028D1D16946404607F090FF050097
:10292000E1D10120A075DEE7A07D032803D1FE4898
:10293000807CC00701D02EB30EE026B1A07F4007F7
:102940001ED4002100E00121404607F098FF050059
:10295000C9D1A075002EC6D03146404600F0D4FA49
:1029600005461128BFD1A07F4107BCD4316844F887
:102970000E1F7168616040F0040020740025B2E70A
:102980001125B0E7102098E770B50C460546FEF714
:102990004BFD010005D022462846BDE87040FEF7F9
:1029A000DFBE43F2020070BD10B50BF05CFBBDE86A
:1029B000104005F035BE0123FEF739BD00231A464D
:1029C0001946FEF734BD7CB5044610F0B5FD08B1DC
:1029D00010207CBD628843F6FD73111F07209942C9
:1029E000F7D2A1880429F4D3B1F5804FF1D89142F0
:1029F000EFD8CD4DE878112801D008207CBDFEF736
:102A0000CFFCB0B32078810701D5697991B300F08C
:102A100001008DF800006088ADF80200A088ADF8D4
:102A2000040020780222C0F3400102EA5000014372
:102A30008DF807100DF10600FEF73DFE00B1FFDF37
:102A400068460BF05EFD05F0EBFD0028D6D10021B5
:102A500001200BF092FD05F0E3FD0028CED1E088C7
:102A600000F044FA0400C9D11220FEF77FFC204692
:102A70007CBD00E001E01320FAE70720F8E72DE92C
:102A8000F043DFF8A482074687B098F80300994620
:102A900015460C46122803D1FFF76AFA00281CD10C
:102AA000204610F049FDB8B9284610F045FD98B908
:102AB0006088ADF80000A088ADF8020020784FF0E3
:102AC0000006C0F340008DF80400207880071ED473
:102AD000384610F031FD08B11020F1E53878400893
:102AE00008D0012809D0022807D0032805D043F2D6
:102AF0000220E5E58DF8056002E001208DF8050073
:102B000057F8010FCDF80600B888ADF80A0003A801
:102B1000FEF7D1FD08B10320D2E52888ADF80E00FC
:102B20006888ADF81000A888ADF81200E888ADF804
:102B30001400ADF81660ADF8186068460BF0A8FDFB
:102B4000B8B998F803004546112801D00820B7E528
:102B500006200CF0CDFF50B12078800701D56879B0
:102B600038B1FEF71DFC022805D21320A8E512207B
:102B7000A6E50720A4E5484600F062F90028ACD19C
:102B800085F8049068460BF0C0FD05F049FD00286B
:102B9000A3D1287900F064F9E08800F0A7F90400D7
:102BA0009BD11320FEF7E2FB204689E570B5054670
:102BB0000C46084610F0E6FC08B1102070BD28460F
:102BC000FEF732FC38B10178222902D3807F8006DB
:102BD00004D4082070BD43F2020070BD214628468F
:102BE0000CF097F8BDE8704005F01ABD38B5054601
:102BF0000C46084610F0A0FC08B1102038BD28464D
:102C0000FEF712FC20B10078222804D2082038BD3B
:102C100043F2020038BD4448807C400701D51120B2
:102C200038BD2078800802D16078800801D0072064
:102C300038BDADF8005020788DF8020060788DF82E
:102C4000030068460BF04EFC05F0EAFC38BD2DE9A8
:102C5000F0418EB014460D460646FEF7E5FB070030
:102C600006D03878222806D208200EB0BDE8F081C0
:102C700043F20200F9E7284610F0ABFC30B94FF000
:102C800000084CB1204610F09BFC08B11020ECE786
:102C9000C4F80080A4F804802348807C800701D514
:102CA0001120E2E797F8220005F026FC8088011D3C
:102CB000FB2901D2001D00E0FB20C0B26A46294674
:102CC00000F0E5F8ADF81060BDF80200ADF81200B4
:102CD000BDF80600ADF81400BDF80000ADF8160010
:102CE000BDF80400ADF8180007A904A80BF03FFBDD
:102CF00000B1FFDFBDF81E00ADF80800BDF82000F0
:102D0000ADF80A00BDF82200BDF82410BDF800207F
:102D10000844ADF80C0007201B2AA6D3BDF802100A
:102D20001B29A2D3FB2A01E0C80100209DD8FB2962
:102D30009BD806278A4210D10121104600F056F890
:102D4000BDF80410884208D1BDF80200012100F04E
:102D50004DF8BDF80610884201D0384685E7BDF829
:102D6000080028B9BDF80A1011B9BDF80C1029B334
:102D70005DB1298849B1698839B124B102982060D0
:102D8000BDF80C00A08013206FE7BDF80010BDF85F
:102D90000A20081A80B2ADF80000BDF80210891AA6
:102DA000ADF80210012100F021F8ADF80400BDF8E3
:102DB0000200012100F01AF8ADF80600ADF8286015
:102DC000BDF80200ADF82A00BDF80600ADF82C00F1
:102DD000BDF80000ADF82E00BDF80400ADF83000DD
:102DE0000AA80BF076FA05F01BFC3EE7022903D097
:102DF000C000703080B2704780003C30FAE710802D
:102E00000888508048889080C88810818888D08041
:102E1000002050819081704730B5564D040008D095
:102E2000012C04D0022C06D0032C04D0FFDF2C7020
:102E300030BDFFDFFBE728780128F8D0FFDFF6E799
:102E400010B5044605F058FB30B1407830B120464B
:102E500005F057FE002010BD072010BD122010BD48
:102E600010B505F049FB040000D1FFDF607800B920
:102E7000FFDF6078401E607010BD10B505F03CFBB0
:102E8000040000D1FFDF6078401C607010BD10B5F9
:102E9000144631B10A68226049686160218839B1FD
:102EA00007E0208060800121FFF7A0FFA0800DE0F7
:102EB0002080618801B96080A08820B92088012124
:102EC000FFF794FFA080E088002804D160880121EA
:102ED000FFF78CFFE08010BD0278520804D0012A71
:102EE00002D043F202207047FEF7C2BB10B548B1D2
:102EF000830000221146062010F028FA062801D08F
:102F0000032010BD002010BD1FB56A46FFF777FFF4
:102F100068460BF0FCFC05F083FB04B010BD70B5F7
:102F20000C0006460DD0FEF77FFA050000D1FFDF4A
:102F3000A68028892081288960816889A081A88944
:102F4000E08170BD10B500231A4603E0845C234382
:102F5000521CD2B28A42F9D30BB1002010BD01201D
:102F600010BD00B5012803D0022801D0FFDF0020EA
:102F700000BD0000C80100200A4810B504680949D6
:102F80000948083108600FF0FCFB0648001D04608A
:102F900010BD0649002008604FF0E0210220C1F872
:102FA000800270471005024001000001FC1F004034
:102FB0000F4A12680D498A420CD118470C4A126810
:102FC0000A4B9A4206D101B510F02AF808F009FC24
:102FD000BDE80140074909680958084706480749FC
:102FE000054A064B7047000000000000BEBAFECA4A
:102FF000B000002004000020A8110020A81100202B
:103000002CFFFFFFDBE5B15100300200A500FFFF00
:1030100084000000284F4C00DA0D499A2F95338424
:1030200077AC2F1307CD6F7D177A70DEFE48002135
:1030300001604160018170472DE9F743044692B079
:103040009146406810F0BCFA40B1606810F0C1FAD7
:1030500020B9607800F00300022801D0012000E0D0
:103060000020F14E3072484610F066FA18B1102078
:1030700015B0BDE8F08349460120FEF75CFA002850
:10308000F6D101258DF842504FF4C050ADF8400004
:10309000002210A9284604F061F80028E8D18DF834
:1030A00042504FF428504FF00008ADF8400047461A
:1030B0001C216846CDF81C801BF0A8FC9DF81C0064
:1030C00008AA20F00F00401C20F0F00010308DF80E
:1030D0001C0020788DF81D0061789DF81E0061F3BA
:1030E000420040F001008DF81E009DF800000AA982
:1030F00040F002008DF800002089ADF83000ADF8F6
:103100003270608907AFADF834000B97606810AC7F
:103110000E900A94684603F016FE0028A8D1BDF868
:10312000200030808DF8425042F60120ADF840007A
:103130009DF81E0008AA20F00600801C20F0010067
:103140008DF81E000220ADF83000ADF8340013A851
:103150000E900AA9684603F0F6FD002888D1BDF854
:1031600020007080311D484600F033F9002887D1D7
:103170008DF8425042F6A620ADF840001C2168466A
:10318000CDF81C801BF042FC9DF81C00ADF83450BB
:1031900020F00F00401C20F0F00010308DF81C00D3
:1031A0009DF81D0008AA20F0FF008DF81D009DF875
:1031B0001E000AA920F0060040F00100801C8DF8D6
:1031C0001E009DF800008DF8445040F002008DF87C
:1031D0000000CDE90A4711A80E90ADF830506846BE
:1031E00003F0B1FD002899D1BDF82000F080002047
:1031F0003EE73EB504460820ADF80000204610F03A
:103200009BF908B110203EBD21460120FEF793F93D
:103210000028F8D12088ADF804006088ADF80600D9
:10322000A088ADF80800E088ADF80A007E4801AB40
:103230006A468088002104F08BF9BDF80010082947
:10324000E1D003203EBD1FB50446002002900820B7
:10325000ADF80800CDF80CD0204610F06DF910B193
:10326000102004B010BD704802AA81884FF6FF708C
:1032700004F0B0FB0028F4D1BDF80810082901D0F3
:103280000320EEE7BDF800102180BDF80210618038
:10329000BDF80410A180BDF80610E180E1E701B59A
:1032A00082B00220ADF800005F4802AB6A46408859
:1032B000002104F04DF9BDF80010022900D00320D0
:1032C0000EBD1CB5002100910221ADF80010019047
:1032D00010F058F908B110201CBD53486A464188C7
:1032E0004FF6FF7004F076FBBDF800100229F3D012
:1032F00003201CBDFEB54C4C06461546207A0F46F1
:10330000C00705D0084610F017F918B11020FEBD0F
:103310000F20FEBDF82D01D90C20FEBD304610F067
:103320000BF918BB208801A903F053FA0028F4D147
:1033300030788DF80500208801A904F0E8F800280D
:10334000EBD100909DF800009DF8051040F00200C0
:103350008DF80000090703D040F008008DF8000048
:103360002088694604F070F80028D6D1ADF80850DE
:1033700020883B4602AA002104F0EAF8BDF80810B4
:10338000A942CAD00320FEBD7CB5054600200090AE
:1033900001900888ADF800000C462846019510F011
:1033A0000FF918B9204610F0EDF808B110207CBDD7
:1033B00015B1BDF8000050B11B486A4601884FF6B0
:1033C000FF7004F007FBBDF8001021807CBD0C20CD
:1033D0007CBD30B593B0044600200D46009014210A
:1033E00001A81BF013FB1C2108A81BF00FFB9DF884
:1033F0000000CDF808D020F00F00401C20F0F000B5
:1034000010308DF800009DF8010020F0FF008DF8CD
:1034100001009DF8200040F002008DF820000120FE
:103420008DF8460002E00000DE01002042F6042094
:10343000ADF8440011A801902088ADF83C006088E8
:10344000ADF83E00A088ADF84000E088ADF842003D
:103450009DF8020006AA20F00600801C20F0010062
:103460008DF802000820ADF80C00ADF810000FA890
:10347000059001A908A803F066FC002803D1BDF857
:1034800018002880002013B030BD000010B504469D
:1034900010F052F808B1102010BD2078C0F30210CF
:1034A000042807D86078072804D3A178102901D808
:1034B000814201D2072010BDE078410706D421796E
:1034C0004A0703D4000701D4080701D5062010BD20
:1034D000002010BD10B513785C08C37F64F30003AF
:1034E000C3771478A40864F34103C3771078C30941
:1034F000487863F34100487013781C090B7864F333
:1035000047130B701378DB0863F3000048705078A2
:10351000487110BD10B5C4780B7864F300030B70CC
:10352000C478640864F341030B70C478A40864F39E
:1035300082030B70C478E40864F3C3030B7003794F
:10354000117863F30001117003795B0863F34101A3
:10355000117003799B0863F3820111700079C00830
:1035600060F3C301117010BD70B514460D460646D8
:1035700005F020FA80B10178182221F00F01891C92
:1035800021F0F001A03100F8081B21461BF0E2F900
:10359000BDE8704005F011BA29463046BDE87040DC
:1035A0001322FEF7DDB82DE9F047064608A8894644
:1035B00090E830041F469046142128461BF026FA56
:1035C0000021CAF80010B8F1000F03D0B9F1000FC4
:1035D00003D114E03878C00711D020680FF0D2FF73
:1035E000C0BBB8F1000F07D12068123028602068F6
:1035F000143068602068A8602168CAF80010387824
:10360000800724D560680FF0DBFF18BBB9F1000F0D
:1036100021D0FEF725FE0168C6F868118188A6F85A
:103620006C11807986F86E0101F0FBFCF94FEF60B8
:10363000626862B196F8680106F2691140081032BA
:10364000FEF765F81022394660681BF03EF900204D
:10365000BDE8F08706E0606820B1E8606068C6F801
:103660006401F4E71020F3E730B5054608780C460E
:1036700020F00F00401C20F0F001103121700020DC
:10368000607095F8230030B104280FD0052811D0C0
:10369000062814D0FFDF20780121B1EB101F04D2DF
:1036A00095F8200000F01F00607030BD21F0F000A0
:1036B000203002E021F0F00030302070EBE721F004
:1036C000F0004030F9E7F0B591B0022715460C46FE
:1036D00006463A46ADF80870092103AB05F089FFAC
:1036E0000490002810D004208DF804008DF801709B
:1036F000E034099605948DF818500AA968460DF033
:1037000039FF00B1FFDF012011B0F0BD10B588B066
:103710000C460A99ADF80000CBB11868CDF802004C
:10372000D3F80400CDF80600ADF80A20102203A853
:103730001BF0CBF868460BF061F904F071FF00282C
:1037400003D1A17F41F01001A17708B010BD002086
:10375000CDF80200E6E72DE9F84F0646808A0D46CF
:1037600080B28246FDF760FE04463078DFF8A4821E
:1037700000274FF00509A8F120080F2870D2DFE8D4
:1037800000F06FF23708387D8CC8F1F0EFF35FF38B
:10379000F300A07F00F00300022809D05FF00000D2
:1037A00080F0010150460CF0F3F9050003D101E06F
:1037B0000120F5E7FFDF98F85C10C90702D0D8F8C0
:1037C00060000BE0032105F11D000FF090FBD5F820
:1037D0001D009149B0FBF1F201FB1200C5F81D007C
:1037E00070686867B068A8672078252800D0FFDF78
:1037F000CAE0A07F00F00300022809D05FF00000BB
:1038000080F0010150460CF0C3F9060003D101E03D
:103810000120F5E7FFDF3078810702D521782529DF
:1038200004D040F001003070BDE8F88F022028700D
:10383000307F287106F11D002D36C5E90206F3E739
:10384000A07F00F00300022808D0002080F00101D2
:1038500050460CF09DF9040004D102E00120F5E788
:10386000A5E1FFDF2078C10604D5072028703D348C
:103870006C60D9E740F008002070D5E7E07FC00613
:1038800000D5FFDF307CB28800F0010301B0504664
:10389000BDE8F04F092106F035BD04B9FFDF7168BE
:1038A00021B1102204F124001BF00FF8282120463A
:1038B000FDF7ECFDA07F00F0030002280ED104F11B
:1038C0002400002300901A4621465046FFF71EFFB1
:1038D000112807D029212046FDF7D8FD307A84F839
:1038E0002000A1E7A07F000700D5FFDF14F81E0F1E
:1038F00040F008002070E782A761E7616178084620
:1039000061F38200410861F3C3006070307AE070B7
:103910008AE7A07F00F00300022809D05FF00000D2
:1039200080F0010150460CF033F9040003D101E0AE
:103930000120F5E7FFDF022104F185000FF0D7FA3F
:103940000420287004F5B4706860B4F885002882FB
:10395000304810387C346C61C5E9028064E703E0CC
:1039600022E15BE02DE015E0A07F00F003000228DB
:1039700007D0002080F0010150460CF009F918B979
:1039800001E00120F6E7FFDF324621465046BDE860
:10399000F84FE9E504B9FFDF20782128A1D9307973
:1039A000012803D1E07F40F01000E0773246214645
:1039B0005046FFF7D9FD2046BDE8F84F2321FDF71B
:1039C00065BD3279AA8005F108030921504605F04A
:1039D00010FEE86010B185F8009025E7A07F00F0A8
:1039E0000300022808D0002080F0010150460CF0AE
:1039F000CFF8040003D101E00120F5E7FFDF04F177
:103A0000620102231022081F0BF049FF0770317971
:103A1000417009E70802002040420F00A07F00F03B
:103A20000300022808D0002080F0010150460CF06D
:103A3000AFF8050003D101E00120F5E7FFDF95F8BD
:103A4000840000F00300012878D1A07F00F0030774
:103A5000E07FC0F3400616B1022F04D132E095F8A2
:103A6000A000C0072AD0D5F8601119B395F88320BB
:103A7000087C62F387000874E27FD5F8601162F376
:103A800041000874D5F8601166F300000874AEB107
:103A9000D5F86001102204F1240188351AF015FFD1
:103AA000287E40F001002876287820F0010005F8F3
:103AB000880900E016B1022F04D02CE095F88800A8
:103AC000C00726D0D5F85C1119B395F88320087C7F
:103AD00062F387000874E27FD5F85C1162F341005D
:103AE0000874D5F85C1166F3000008748EB1D5F83F
:103AF0005C01102204F1240188351AF0E6FE2878D2
:103B000040F0010005F8180B287820F0010005F8B6
:103B1000A009022F44D0002000EB400005EBC000BC
:103B200090F88800800709D595F87C00D5F86421C5
:103B3000400805F17D011032FDF7E9FD8DF8009098
:103B400095F884006A4600F003008DF8010095F8AE
:103B500088108DF8021095F8A0008DF8030021461A
:103B6000504601F047FA2078252805D0212807D0B3
:103B7000FFDF2078222803D922212046FDF786FC8A
:103B8000A07F00F0030002280CD0002080F001018B
:103B900050460CF00FF800283FF451AEFFDF43E62B
:103BA0000120B9E70120F1E7706847703CE6FFDFCC
:103BB0003AE670B5FE4C002584F85C5025660DF0A1
:103BC000A6FC04F11001204604F0B0FE84F8305049
:103BD00070BD70B50D46FDF727FC040000D1FFDF76
:103BE0004FF4B87128461AF011FF04F1240028613F
:103BF000A07F00F00300022808D0012105F1E000B9
:103C00000DF086FC002800D0FFDF70BD0221F5E733
:103C10000A46014602F1E0000DF09ABC70B5054677
:103C2000406886B00178092906D00C2933D00D29C7
:103C30002FD0FFDF06B070BD46883046FDF7F4FB9D
:103C4000040000D1FFDF20782128F3D028281BD1E1
:103C5000686802210C3001F0C2F9A8B16868082137
:103C6000001D01F0BCF978B104F1240130460AF0DE
:103C7000B9FF04F0D5FC00B1FFDF06B02046BDE877
:103C800070402921FDF702BC06B0BDE8704004F089
:103C900094BE01218171686886883046FDF7C4FBB7
:103CA000040000D1FFDFA07F00F00301022902D150
:103CB00020F01000A077207821280AD06868817948
:103CC00009B1807880B1A07F00F00300022862D0A3
:103CD000FFDFA07F00F003000228ABD1FDF770FDED
:103CE0000028A7D0FFDFA5E704F067FEE07FC1074B
:103CF00029D0800705D594F8200000F01F00102877
:103D00001FD0052084F82300207829281DD02428DE
:103D1000DFD1314605200FF0C3FB22212046FDF7FD
:103D2000B5FBA07F00F00300022832D05FF0000056
:103D300080F0010130460BF03DFF0028C9D0FFDFC5
:103D4000C7E70620DEE70420DCE7A07F00F00300E1
:103D5000022809D05FF0000080F0010130460BF02E
:103D600017FF050003D101E00120F5E7FFDF252162
:103D70002046FDF78BFB03208DF80000694605F116
:103D8000E0000DF0DCFB0228A3D00028A1D0FFDF6B
:103D90009FE70120CCE704F010FE9AE72DE9F043FD
:103DA00087B09946164688460746FDF73DFB040056
:103DB0004BD02078222848D3232846D0E07FC00665
:103DC00043D4A07F00F00300022809D05FF0000078
:103DD00080F0010138460BF0DBFE050002D00CE05C
:103DE0000120F5E7A07F00F00300022805D00121A3
:103DF000002238460BF0C3FE05466946284601F00E
:103E000020F9009800B9FFDF45B10098E035056161
:103E10002078222806D0242804D007E0009900202A
:103E2000086103E025212046FDF730FB00980121C1
:103E300041704762868001A9C0E902890DF09AFBB2
:103E4000022802D0002800D0FFDF07B0BDE8F083D1
:103E500070B586B00546FDF7E7FA017822291ED92C
:103E6000807F00F00300022808D0002080F00101CC
:103E700028460BF08DFE04002FD101E00120F5E76C
:103E8000FFDF2AE0B4F85E0004F1620630440178F6
:103E9000427829B121462846FFF715FCB0B9C9E69A
:103EA000ADF804200921284602AB05F0A2FB0390DF
:103EB0000028F4D005208DF80000694604F1E000E8
:103EC0000DF03DFB022801D000B1FFDF02231022DC
:103ED000314604F15E000BF018FDB4F860000028D4
:103EE000D0D1A7E610B586B00446FDF79DFA01785B
:103EF00022291BD9807F00F00300022808D000206F
:103F000080F0010120460BF043FE040003D101E0E4
:103F10000120F5E7FFDF06208DF80000694604F177
:103F2000E0000DF00CFB002800D0FFDF06B010BD54
:103F30002DE9F05F05460C46002700789046010900
:103F40003E4604F1080BBA4602297DD0072902D06B
:103F50000A2909D146E068680178092905D00C29A9
:103F600030D00D292ED0FFDFBCE114271C26002CF9
:103F70006BD04088A080FDF757FA5FEA000900D1B6
:103F8000FFDF99F817005A46400809F11801FDF7BC
:103F9000BEFB68688089208269684868C4F812009E
:103FA0008868C4F81600A07E20F0060002E0000039
:103FB000E801002040F00100A07699F81E0040F0D2
:103FC00040014DE01A270A26002CD1D08088A0801D
:103FD000FDF72AFA050000D1FFDF59462846FFF712
:103FE00043FB7FE10CB1A88BA080287A0B287DD001
:103FF00006DC01287BD0022808D0032804D135E054
:104000000D2875D00E2874D0FFDF6BE11E2709261E
:10401000002CADD0A088FDF707FA5FEA000900D1B7
:10402000FFDF287B00F003000128207A1BD020F05E
:1040300001002072297B890861F341002072297BED
:10404000C90861F3820001E041E1F2E02072297BBE
:10405000090961F3C300207299F81E0040F0800145
:1040600089F81E103EE140F00100E2E713270D261B
:10407000002CAAD0A088FDF7D7F98146807F00F0F8
:104080000300022808D0002080F00101A0880BF076
:104090007FFD050003D101E00120F5E7FFDF99F87E
:1040A0001E0000F00302022A50D0686F817801F0F0
:1040B00003010129217A4BD021F00101217283787B
:1040C0009B0863F3410121728378DB0863F382016B
:1040D000217283781B0963F3C3012172037863F3B0
:1040E00006112172437863F3C71103E061E0A9E090
:1040F00090E0A1E0217284F809A0C178A172022A9F
:1041000029D00279E17A62F30001E1720279520862
:1041100062F34101E1720279920862F38201E17275
:104120000279D20862F3C301E1724279217B62F322
:10413000000121734279520862F3410121734279EF
:10414000920862F382012173407928E0A86FADE7FD
:1041500041F00101B2E74279E17A62F30001E172D4
:104160004279520862F34101E1724279920862F3A6
:104170008201E1724279D20862F3C301E1720279ED
:10418000217B62F3000121730279520862F341013D
:1041900021730279920862F3820121730079C008C9
:1041A00060F3C301217399F80000232831D9262137
:1041B00040E018271026E4B3A088FDF735F98346C0
:1041C000807F00F00300022809D0002080F0010168
:1041D000A0880BF0DDFC5FEA000903D101E00120BB
:1041E000F4E7FFDFE868A06099F8000040F0040100
:1041F00089F8001099F80100800708D50120207384
:104200009BF8000023286DD92721584651E084F8F7
:104210000CA067E015270F265CB1A088FDF704F914
:10422000814606225946E86809F0A8FC0120A073DF
:10423000A2E041E048463CE016270926E4B3287B8B
:1042400020724FE0287B19270E26ACB3C4F808A0D3
:10425000A4F80CA0012807D0022805D0032805D017
:10426000042803D0FFDF0DE0207207E0697B0428FB
:1042700001F00F0141F0800121721ED0607A20F020
:1042800003006072A088FDF7CFF80546007821286A
:1042900028D0232800D0FFDFA87F00F003000228E9
:1042A00013D0002080F00101A0880BF083FC2221B4
:1042B0002846FDF7EBF815E004E0607A20F00300F3
:1042C000401CDEE7A8F8006011E00120EAE70CB12D
:1042D0006888A080287A03282ED004280AD00528D0
:1042E00050D0FFDFA8F800600CB127806680002066
:1042F000BDE8F09F15270F26002CE3D0A088FDF71E
:1043000093F8807F00F00300022809D05FF00000DE
:1043100080F00101A0880BF03BFC050003D101E017
:104320000120F5E7FFDFD5F81D000622594609F008
:1043300025FC84F80EA0D5E717270926002CC1D04C
:10434000A088FDF771F88146807F00F00300022805
:1043500008D0002080F00101A0880BF019FC0500B6
:1043600003D101E00120F5E7FFDF6878800701D580
:10437000022000E00120207299F800002328B1D922
:10438000272157E719270E26002C9BD0A088FDF780
:104390004BF85FEA000900D1FFDFC4F808A0A4F8D9
:1043A0000CA084F808A0A07A40F00300A07299F84D
:1043B0001F1061F38200A07299F81F10C1F3400230
:1043C000114205D099F8201001F01F0110292CD0BE
:1043D00020F00800A07299F81F004108607A61F38C
:1043E000C3006072697A01F003010129A3D140F092
:1043F0000400607299F81E0000F003000228E87AB9
:1044000016D0217B60F300012173AA7A607B62F3EE
:1044100000006073EA7A520862F341012173A97ABD
:10442000490861F3410060735CE740F00800D1E7A0
:10443000617B60F300016173AA7A207B62F3000064
:104440002073EA7A520862F341016173A97A49083C
:1044500061F34100207345E710B5FE4C30B10146D1
:10446000102204F120001AF030FA012084F8300004
:1044700010BD10B5044600F0D4FDF64920461022C8
:10448000BDE8104020311AF020BA70B5F14D060099
:104490004FF0000412D00FF04FF808B110240BE0D9
:1044A0000621304609F051FB411C04D0286601204A
:1044B00085F85C0000E00724204670BD0020F7E787
:1044C000007810F00F0204D0012A05D0022A0CD186
:1044D00010E0000909D10AE00009012807D00228EC
:1044E00005D0032803D0042801D0072070470870A6
:1044F000002070470620704705282AD2DFE800F028
:1045000003070F171F00087820F0FF001EE008784F
:1045100020F00F00401C20F0F000103016E008786A
:1045200020F00F00401C20F0F00020300EE0087852
:1045300020F00F00401C20F0F000303006E008783A
:1045400020F00F00401C20F0F000403008700020E8
:104550007047072070472DE9F041804688B00D462E
:10456000002708460FF035F8A8B94046FCF75CFF75
:10457000040003D02078222815D104E043F2020081
:1045800008B0BDE8F08145B9A07F010603D500F071
:104590000300022801D01020F2E7A07FC10601D459
:1045A000010702D50DB10820EAE7E17FC90601D570
:1045B0000D20E5E700F00300022805D125B12846CB
:1045C000FEF764FF0700DBD1A07F00F003000228A4
:1045D00008D0002080F0010140460BF0D9FA060017
:1045E00002D00FE00120F5E7A07F00F003000228D1
:1045F0000ED0002080F00101002240460BF0BFFAEF
:10460000060007D0A07F00F00300022804D009E0D4
:104610000120EFE70420B3E725B12A4631462046C2
:10462000FEF758FF6946304600F00BFD009800B9D0
:10463000FFDF0099022006F1E0024870C1F82480F3
:104640004A6100220A81A27F02F00302022A1CD0E2
:1046500001200871287800F00102087E62F3010051
:1046600008762A78520862F3820008762A7892083F
:1046700062F3C30008762A78D20862F30410087641
:1046800024212046FCF702FF33E035B30871301DCA
:1046900088613078400908777078C0F34000487727
:1046A000287800F00102887F62F301008877E27FBA
:1046B00062F382008877E27F520862F3C300887752
:1046C000727862F304108877A878C87701F1210224
:1046D00028462031FEF71EFF03E003200871052065
:1046E000087625212046FCF7D1FEA07F20F080002F
:1046F000A07701A900980CF03DFF022801D000B17D
:10470000FFDF38463CE72DE9FF4F534A0D4699B08D
:104710009A4607CA0BAB002783E807001998FCF7F5
:1047200083FE060006D03078262806D008201DB06B
:10473000BDE8F08F43F20200F9E7B07F00F0030913
:10474000B9F1020F03D00020284302D006E0012077
:10475000FAE71B98FEF79AFE0028E8D1B07F00F038
:104760000300022801D11B9979BB022808D0002040
:1047700080F0010119980BF00BFA040003D101E05D
:104780000120F5E7FFDF852D28D007DCF5B1812D6D
:104790001ED0822D1ED0832D08D11DE0862D1FD066
:1047A000882D1FD0892D1FD08A2D1FD00F2020715A
:1047B0000F281DD004F0FEF8E0B101208DF8400074
:1047C000201D11902079B8B165E111E00020EEE7DD
:1047D0000120ECE70220EAE70320E8E70520E6E70E
:1047E0000620E4E70820E2E70920E0E70A20DEE708
:1047F00007209CE711209AE7B9F1020F03D0A56FBB
:1048000003D1A06F02E0656FFAE7606F804632D097
:104810004FF0010000904FF0020001902146304619
:104820001B9AFEF757FE1B98007800F00101A8784C
:1048300061F30100A870F17F61F38200A870F17F3D
:10484000490861F3C300A870617861F30410A8708F
:10485000207803E0E801002068ED0100400928709D
:104860006078C0F3400068701B988078E870002082
:104870006871287103E00220009001200190A8785F
:1048800098F80210C0F3C000C1F3C00108405FEA0D
:10489000000B2CD050460EF04FFE90BBDAF80C0007
:1048A0000EF04AFE68BBDAF81C000EF045FE40BB75
:1048B000DAF80C00A060DAF81C00E06098F801005B
:1048C000617800F0010041EA4000607098F8021041
:1048D000C0B2C1F30011891E08406070002020772B
:1048E000019906F1170002290CD001210BE098F87C
:1048F0000110607801F00101FD2242EA4101084007
:10490000E3E732E0002104EB810148610099701C6B
:10491000022901D0012100E0002104EB810148615E
:10492000A87800F00300012858D198F8020000F0A0
:104930000300012852D1B9F1020F04D02A1D691DCC
:104940001B98FEF7E7FD297998F8040001408DF8DF
:104950003810687998F8052010408DF83C00014324
:104960003CD050460EF0E8FD08B11020DFE60AF119
:1049700010010491B9F1020F18D008465FF0000150
:1049800004F18C03CDE9000304F5AE7202920EAB84
:104990005A462046FEF707FE0028E7D1B9F1020F7C
:1049A00008D0504608D14FF0010107E050464FF0C3
:1049B0000101E5E70498F5E74FF0000104F1A403D5
:1049C000CDE9000304F5B072029281F001010FAB52
:1049D0005A462046FEF7E7FD0028C7D160788007D9
:1049E00034D4A87898F80210C0F38000C1F3800195
:1049F00008432BD0297898F800000BAAB9F1020FD0
:104A000006D032F811204300DA4002F003070AE032
:104A100032F810204B00DA4012F0030705D0012FC6
:104A20000BD0022F0BD0032F07D0BBF1000F0DD0FE
:104A3000012906D0042904D008E00227F5E7012760
:104A4000F3E7012801D0042800D10427F07F40F0CB
:104A500001006BF34100F077607881074FF00300AD
:104A60000CD5A071BBF1000F15D100BF8DF85C0013
:104A700017AA3146199800F0BDFA0CE00221022F66
:104A800018D0012F18D0042F22D00020A071F07F61
:104A900020F00100F07725213046FCF7F7FC10A943
:104AA00004F1E0000CF04BFD10B1022800D0FFDF54
:104AB00000203CE6A171D9E7A1710D2104F120008D
:104AC00019F0A4FF207840F0020020700420CDE708
:104AD0000120A071DFE72DE9F04387B090468946B9
:104AE00004460025FCF7A0FC060006D030782728F5
:104AF00006D0082007B0BDE8F08343F20200F9E7D2
:104B0000B07F00F00300022808D0002080F00101EF
:104B100020460BF03DF8040003D101E00120F5E749
:104B2000FFDFA7795FEA090005D0012821D0B9F19C
:104B3000020F26D110E0B8F1000F22D1012F05D0CD
:104B4000022F05D0032F05D0FFDF2DE00C252BE031
:104B5000012529E0022527E040460EF0EDFCB0B922
:104B6000032F0ED11022414604F11D0019F0ADFEB5
:104B70001AE0012F02D0022F03D104E0B8F1000F98
:104B800012D00720B6E740460EF0D6FC08B1102040
:104B9000B0E7102104F11D0019F016FF0621404670
:104BA00008F0D3FFC4F81D002078252140F0020052
:104BB00020703046FCF76AFC2078C10713D020F043
:104BC0000100207002208DF8000004F11D00029009
:104BD0008DF804506946C3300CF0B1FC022803D0B4
:104BE00010B1FFDF00E02577002083E730B587B004
:104BF0000D460446FCF718FCA0B1807F00F00300CE
:104C0000022812D05FF0000080F0010120460AF077
:104C1000BFFF04000ED028460EF08EFC38B11020E5
:104C200007B030BD43F20200FAE70120ECE720783C
:104C3000400701D40820F3E7294604F13D00202273
:104C4000054619F042FE207840F010002070010760
:104C50000FD520F00800207007208DF8000069466D
:104C600004F1E00001950CF06AFC022801D000B1CB
:104C7000FFDF0020D4E770B50D460646FCF7D4FBF5
:104C800018B10178272921D102E043F2020070BD5A
:104C9000807F00F00300022808D0002080F001018E
:104CA00030460AF075FF040003D101E00120F5E76A
:104CB000FFDFA079022809D16078C00706D02A4614
:104CC00021463046FEF7FFFC10B10FE0082070BD12
:104CD000B4F860000E280BD204F162010223102206
:104CE000081F0AF0DCFD012101704570002070BD35
:104CF000112070BD70B5064614460D4608460EF0EC
:104D00001BFC18B920460EF03DFC08B1102070BD08
:104D1000A6F57F40FF380ED03046FCF785FB38B152
:104D2000417822464B08811C1846FCF7F0FC07E04E
:104D300043F2020070BD2046FDF7F1FA0028F9D1D8
:104D40001021E01D0EF0D3F8E21D294604F11700F2
:104D500000F087F9002070BD2DE9F04104468AB0CB
:104D600015468846002708460EF033FC18B9284639
:104D70000EF02FFC18B110200AB0BDE8F0812046DB
:104D8000FCF752FB060003D0307827281BD102E045
:104D900043F20200F0E7B07F00F00300022809D0E0
:104DA0005FF0000080F0010120460AF0F1FE0400EF
:104DB00003D101E00120F5E7FFDF2078400702D5AD
:104DC0006078800701D40820D6E7B07F00F00300A8
:104DD000022803D0A06F03D1A16F02E0606FFAE751
:104DE000616F407800B19DB1487810B1B8F1000F03
:104DF0000ED0ADB1EA1D06A8E16800F032F910222C
:104E000006A905F1170019F034FD18B1042707E0D1
:104E10000720B1E71022E91D04F12D0019F055FD1E
:104E2000B8F1000F06D0102208F1070104F11D00AF
:104E300019F04BFD2078252140F00200207030460B
:104E4000FCF724FB2078C10715D020F0010020706A
:104E500002208DF8000004F11D0002901030039034
:104E60008DF804706946B3300CF069FB022803D05A
:104E700010B1FFDF00E0277700207DE7F8B5154689
:104E80000E460746FCF7D0FA040004D0207822280A
:104E900004D00820F8BD43F20200F8BDA07F00F066
:104EA0000300022802D043F20400F8BD30460EF0A1
:104EB00043FB18B928460EF03FFB08B11020F8BD9F
:104EC00000953288B31C21463846FEF71FFC112896
:104ED00014D00028F3D1297C4A08E17F62F3000155
:104EE000E1772A7C62F34101E177297C890884F823
:104EF0002010A17F21F08001A177F8BDA17F0907D3
:104F0000FBD4D6F80200C4F83600D6F80600C4F880
:104F10003A003088A0861022294604F1240019F0B6
:104F2000D4FC287C4108E07F61F38200E077297C93
:104F300061F3C300E077287C800884F82100A07F1B
:104F400040F00800A0770020D3E770B50D46064674
:104F50000BB1072070BDFCF767FA040007D020787A
:104F6000222802D3A07F400604D4082070BD43F25B
:104F7000020070BDA5B12946304609F033FE03F0AA
:104F80004FFB297C4A08E17F62F30001E1772A7C2C
:104F900062F34101E177297C890884F8201004E05C
:104FA000304609F042FE03F03BFBA17F21F04001B7
:104FB000A17770BD70B50D46FCF736FA040005D038
:104FC00028460EF0DFFA20B1102070BD43F2020037
:104FD00070BD29462046FEF747FB002070BD04E067
:104FE00010F8012B0AB100207047491E89B2F7D290
:104FF0000120704770B51546064603F0DBFC04003F
:1050000000D1FFDF207820F00F00801C20F0F0009E
:105010002030207066802868A060BDE8704003F0F2
:10502000CCBC10B5134C94F83000002808D104F122
:105030002001A1F110000CF0C4FA012084F8300026
:1050400010BD10B190F8B9202AB10A4890F8350087
:1050500018B1002003E0B83001E0064834300860A1
:10506000704708B50023009313460A460AF08BFFE9
:1050700008BD0000E8010020F0B5007B059F1E463A
:1050800014460D46012800D0FFDF0C2030803A2066
:105090003880002C08D0287A032806D0287B0128E5
:1050A00000D0FFDF17206081F0BDA889FBE72DE964
:1050B000F04786B0144691F80C900E9A0D46B9F15F
:1050C000010F0BD01021007B2E8A8846052807D0BF
:1050D000062833D0FFDF06B0BDE8F0870221F2E7F3
:1050E000E8890C2100EB400001EB400018803320E0
:1050F0001080002CEFD0E889608100271AE000962C
:10510000688808F1020301AA696900F085FF06EBCF
:105110000800801C07EB470186B204EB4102BDF892
:10512000040090810DF1060140460E320CF0B2FAF7
:105130007F1CBFB26089B842E1D8CCE73420108030
:10514000E889B9F1010F11D0122148430E301880BF
:10515000002CC0D0E88960814846B9F1010F00D029
:105160000220207300270DF1040A1FE00621ECE75E
:105170000096688808F1020301AA696900F04CFFF3
:1051800006EB0800801C86B2B9F1010F12D007EBC4
:10519000C70004EB4000BDF80410C18110220AF1E1
:1051A0000201103019F091FB7F1CBFB26089B84238
:1051B000DED890E707EB470104EB4102BDF804009D
:1051C000D0810AF10201404610320CF063FAEBE79D
:1051D0002DE9F0470E4688B090F80CC096F80C8088
:1051E000378AF5890C20109902F10C044FF0000A5F
:1051F000BCF1030F08D0BCF1040F3ED0BCF1070F87
:105200007DD0FFDF08B067E705EB850C00EB4C00B5
:10521000188031200880002AF4D0A8F1060000F0A0
:10522000FF09558125E0182101A819F0EFFB00972F
:105230007088434601AA716900F0EEFEBDF80400D3
:105240002080BDF80600E080BDF808002081A21C87
:105250000DF10A0148460CF01DFAB9F1000F00D01B
:1052600018B184F804A0A4F802A007EB080087B2E4
:105270000A346D1EADB2D6D2C4E705EB850C00EB47
:105280004C00188032200880002ABBD0A8F105000D
:1052900000F0FF09558137E000977088434601AA66
:1052A000716900F0B9FE9DF80600BDF80410E180B8
:1052B0002179420860F3000162F34101820862F340
:1052C0008201C20862F3C301020962F304114209B8
:1052D00062F34511820962F386112171C009607180
:1052E000BDF80700208122460DF1090148460CF067
:1052F000D1F918B184F802A0A4F800A000E007E0FA
:1053000007EB080087B20A346D1EADB2C4D279E74C
:10531000A8F1020084B205FB08F000F10E0CA3F81E
:1053200000C035230B80002AA6D0558194810097B8
:1053300083B270880E32716900F06EFE62E72DE96B
:10534000F84F1E460A9D0C4681462AB1607A00F548
:105350008070D080E089108199F80C000C274FF004
:1053600000084FF00E0A0D2873D2DFE800F09E0708
:105370000E1C28303846556A737373002146484620
:105380000095FFF779FEBDE8F88F207B914608284D
:1053900002D0032800D0FFDF378030200AE000BFB2
:1053A000A9F80A80EFE7207B9146042800D0FFDFB0
:1053B000378031202880B9F1000FF1D1E3E7207B5D
:1053C0009146042800D0FFDF37803220F2E7207BAF
:1053D0009146022800D0FFDF37803320EAE7207BA8
:1053E0001746022800D0FFDF3420A6F800A028804E
:1053F000002FC8D0A7F80A80C5E7207B17460428ED
:1054000000D0FFDF3520A6F800A02880002FBAD0FA
:105410004046A7F80A8012E0207B1746052802D0F4
:10542000062800D0FFDF1020308036202880002F93
:10543000A9D0E0897881A7F80E80B9F80E00B8816C
:10544000A1E7207B9146072800D0FFDF3780372077
:10545000B0E72AE04FF0120018804FF03800170034
:10546000288090D0E0897881A7F80E80A7F8108076
:1054700099F80C000A2805D00B2809D00C280DD06B
:10548000FFDF80E7207B0A2800D0FFDF01200AE051
:10549000207B0B2800D0FFDF042004E0207B0C28B9
:1054A00000D0FFDF052038736DE7FFDF6BE770B5D5
:1054B0000C460546FBF7B8FF20B10078222804D23D
:1054C000082070BD43F2020070BD052128460AF095
:1054D0005FFB206008B1002070BD032070BD30B4B8
:1054E0004880087820F00F00C01C20F0F0009030B9
:1054F00001F8080B1DCA81E81D0030BC03F05DBA3D
:105500002DE9FF4784B0002782460297079890460E
:105510008946123006F086FA401D20F003060798EF
:1055200028B907A95046FFF7C2FF002853D1B9F1A7
:10553000000F05D00798017B19BB052504681BE007
:1055400098F80000092803D00D2812D0FFDF45E0AD
:10555000079903254868B0B3497B4288714391425B
:1055600038D98AB2B3B2011D0AF085F90446078022
:1055700002E0079C042508340CB1208810B1032DEB
:1055800028D02BE007980121123006F07DFAADF803
:105590000C00024602AB2946504604F02AF80700E8
:1055A00001D1A01C029007983A461230C8F80400B6
:1055B000A8F802A003A94046029B06F072FAC0B107
:1055C000072814D200E005E0DFE800F0060811111A
:1055D0000F0A0C00132015E6002013E6112011E637
:1055E00008200FE643F203000CE607200AE603203A
:1055F00008E6BDF80C002346CDE900702A46504667
:10560000079900F019FD57B9032D08D10798B3B2D7
:10561000417B406871438AB2011D0AF040F9B9F13B
:10562000000FD9D0079981F80C90D5E72DE9FE4FEE
:1056300091461A881C468A468046FAB102AB494612
:1056400003F0D7FF050019D04046A61C27880AF0B2
:10565000E3FB3246072629463B46009609F0F1FF58
:1056600020882346CDE900504A465146404600F086
:10567000E3FC002020800120BDE8FE8F0020FBE736
:1056800010B586B01C46AAB104238DF800301388EB
:10569000ADF808305288ADF80A208A788DF80E20CF
:1056A0000988ADF80C1000236A462146FFF728FF51
:1056B00006B010BD1020FBE770B50D4605210AF0BD
:1056C00067FA040000D1FFDF294604F11200BDE8AB
:1056D000704006F0C2B92DE9F8430D468046002619
:1056E00003F068F904462878102878D2DFE800F043
:1056F000773B34533131123131310831313131316D
:105700002879001FC0B2022801D0102810D114BB84
:10571000FFDF35E004B9FFDF052140460AF038FA23
:10572000007B032806D004280BD0072828D0FFDFF1
:10573000072655E02879801FC0B2022820D050B13A
:10574000F6E72879401FC0B2022819D0102817D0D8
:10575000EEE704B9FFDF13E004B9FFDF2879012881
:105760000ED1172137E0052140460AF011FA070053
:1057700000D1FFDF07F11201404606F04BF92CB1D2
:105780002A4621464046FFF7AAFE29E0132140465B
:10579000FDF7FAF824E004B9FFDF052140460AF0DE
:1057A000F7F9060000D1FFDF694606F1120006F0A6
:1057B0003BF9060000D0FFDFA988172901D2172284
:1057C00000E00A46BDF80000824202D9014602E02C
:1057D00005E01729C5D3404600F03EFCD0E7FFDFC7
:1057E0003046BDE8F883401D20F0030219B102FBEA
:1057F00001F0001D00E000201044704713B5009830
:1058000050B100244FEA0D0009F0DFFF002C02D157
:10581000F74A009911601CBD01240020F4E72DE92E
:10582000F0470C4615462421204619F0EFF805B93B
:10583000FFDFA87860732888DFF8B4A3401D20F04C
:105840000301AF788946DAF8000009F0DCFF0600B2
:1058500000D1FFDF4FF000082660A6F8008077B186
:1058600009FB07F1091D0AD0DAF8000009F0CBFFA7
:10587000060000D1FFDF6660C6F8008001E0C4F8D2
:105880000480298804F11200BDE8F04706F0B4B89E
:105890002DE9F047804601F112000D46814606F0E1
:1058A000C1F8401DD24F20F003026E7B14462968D8
:1058B000386809F0D3FF3EB104FB06F2121D03D095
:1058C0006968386809F0CAFF05200AF009F904463A
:1058D00005200AF00DF9201A012802D1386809F0D4
:1058E00087FF49464046BDE8F04706F09AB870B5D4
:1058F000054605210AF04CF9040000D1FFDF04F150
:1059000012012846BDE8704006F084B82DE9F04F3A
:1059100091B04FF0000BADF834B0ADF804B047884B
:105920000C4605469246052138460AF031F9060034
:1059300000D1FFDF24B1A780A4F806B0A4F808B016
:10594000297809220B20B2EB111F7DD12A7A04F1AC
:10595000100138274FF00C084FF001090391102A6D
:1059600073D2DFE802F072F2F1F07F08D2888D9FE7
:105970003DDBF3EEB6B6307B022800D0FFDFA8890E
:1059800008EBC001ADF804103021ADF83410002C44
:1059900025D06081B5F80E9000271DE004EBC70804
:1059A000317C88F80E10F189A8F80C10CDF8009021
:1059B0006888042304AA296900F02EFBBDF81010A2
:1059C000A8F8101009F10400BDF812107F1C1FFA8E
:1059D00080F9A8F81210BFB26089B842DED80DE194
:1059E000307B022800D0FFDFE98908EBC100ADF869
:1059F00004003020ADF83400287B0A90001FC0B2AC
:105A00000F90002CEBD06181B5F81090002725E0B5
:105A1000CDF800906888696903AA0A9B00F0FCFA37
:105A20000A9804EBC70848441FFA80F908F10C02F1
:105A300004A90F980BF02EFE18B188F80EB0A8F844
:105A40000CB0BDF80C1001E0D4E0CFE0A8F81010C5
:105A5000BDF80E107F1CA8F81210BFB26089B842C2
:105A6000D6D8CBE00DA8009001AB2246294630469F
:105A7000FFF71DFBC2E0307B082805D0FFDF03E005
:105A8000307B082800D0FFDFE8891030ADF8040033
:105A90003620ADF83400002C3FD0A9896181F1890E
:105AA000A18127E0307B092800D0FFDFA88900F121
:105AB0000C01ADF804103721ADF83410002C2CD0B7
:105AC0006081E8890090AB89688804F10C0229693B
:105AD00056E0E8893921103080B2ADF80400ADF805
:105AE0003410002C74D0A9896181287A0E280AD03C
:105AF00002212173E989E181288A0090EB89688875
:105B00006969039A3CE00121F3E70DA8009001AB1D
:105B1000224629463046FFF75BFB6FE0307B0A28C0
:105B200000D0FFDF1220ADF80400ADF834704CB3A4
:105B3000A9896181A4F810B0A4F80EB084F80C9083
:105B40005CE020E002E031E039E042E0307B0B280D
:105B500000D0FFDF288AADF834701230ADF80400B1
:105B600084B104212173A9896181E989E181298AAC
:105B70002182688A00902B8A688804F11202696980
:105B800000F04AFA3AE0307B0C2800D0FFDF122008
:105B9000ADF80400ADF834703CB305212173A4F8CE
:105BA0000AB0A4F80EB0A4F810B027E00DA8009039
:105BB00001AB224629463046FFF75EFA1EE00DA8EB
:105BC000009001AB224629463046FFF7B8FB15E0AE
:105BD00036E03B21ADF80400ADF8341084B3A4F8EE
:105BE0000690A4F808B084F80AB007E0FFDF05E0EB
:105BF00010000020297A012919D0FFDFBDF8040028
:105C0000AAF800007CB1BDF834002080BDF8040083
:105C10006080BDF83400392805D03B2803D03C28EB
:105C200001D086F80CB011B00020BDE8F08F3C2107
:105C3000ADF80400ADF8341014B1697AA172DDE753
:105C4000FFE7AAF80000EEE72DE9F84356880F4673
:105C5000804615460521304609F09AFF040000D120
:105C6000FFDF123400943B46414630466A6806F036
:105C70004AF8B6E570B50D46052109F089FF040024
:105C800000D1FFDF294604F11200BDE8704005F0A5
:105C9000D6BE70B50D46052109F07AFF040000D18B
:105CA000FFDF294604F11200BDE8704005F0F4BEA4
:105CB00070B50546052109F06BFF040000D1FFDF38
:105CC00004F1080321462846BDE870400422ADE4F3
:105CD00070B50546052109F05BFF040000D1FFDF28
:105CE000214628462368BDE8704005229EE470B531
:105CF0000646052109F04CFF040000D1FFDF04F146
:105D0000120005F08FFE401D20F0030511E0011D7B
:105D100000880322431821463046FFF787FC0028FD
:105D20000BD0607BABB2684382B26068011D09F0A2
:105D3000ECFD606841880029E9D170BD70B50E4660
:105D4000054602F037FE040000D1FFDF012020727B
:105D500066726580207820F00F00C01C20F0F000F3
:105D600030302070BDE8704002F027BE2DE9F043CE
:105D70008BB00D461446814606A9FFF798FB002814
:105D800014D14FF6FF7601274FF420588CB1032031
:105D90008DF800001020ADF8100007A8059007AAA4
:105DA000204604A90BF095FC78B107200BB0BDE8A4
:105DB000F0830820ADF808508DF80E708DF80000C3
:105DC000ADF80A60ADF80C800CE00698A17801747B
:105DD0002188C1818DF80E70ADF80850ADF80C80A7
:105DE000ADF80A606A4602214846069BFFF788FB29
:105DF000DCE708B501228DF8022042F60202ADF878
:105E000000200A4603236946FFF73AFC08BD08B59F
:105E100001228DF8022042F60302ADF800200A4666
:105E200004236946FFF72CFC08BD00B587B079B1A3
:105E300002228DF800200A88ADF808204988ADF8C4
:105E40000A1000236A460521FFF75AFB07B000BD80
:105E50001020FBE709B1072312E40720704770B553
:105E600088B00D461446064606A9FFF720FB002819
:105E70000ED17CB10620ADF808508DF80000ADF8C9
:105E80000A40069B6A460821DC813046FFF738FB52
:105E900008B070BD05208DF80000ADF80850F0E79F
:105EA00000B587B059B107238DF80030ADF8082050
:105EB000039100236A460921FFF722FBC6E7102061
:105EC000C4E770B588B00C460646002506A9FFF762
:105ED000EEFA0028DCD106980121123005F0D4FD3D
:105EE0009CB12178062921D2DFE801F020050516B2
:105EF0000318801E80B2C01EE28880B20AB1A36877
:105F00001BB1824203D90C20C2E71020C0E704294C
:105F100004D0A08850B901E00620B9E7012913D0C8
:105F2000022905D004291CD005292AD00720AFE773
:105F300009208DF800006088ADF80800E088ADF811
:105F40000A00A068039023E00A208DF80000608812
:105F5000ADF80800E088ADF80A00A0680A250390B3
:105F600016E00B208DF800006088ADF80800A088CE
:105F7000ADF80A00E088ADF80C00A0680B2504908D
:105F800006E00C208DF8000060788DF808000C25E4
:105F90006A4629463046069BFFF7B2FA78E700B515
:105FA00087B00D228DF80020ADF8081000236A4656
:105FB0001946FFF7A5FA49E700B587B071B102228B
:105FC0008DF800200A88ADF808204988ADF80A103D
:105FD00000236A460621FFF793FA37E7102035E7DA
:105FE00070B586B0064601200D46ADF808108DF854
:105FF0000000014600236A463046FFF781FA04009C
:1060000008D12946304601F0BDFA0021304601F0A2
:10601000D7FA204606B070BDF8B51C4615460E46A8
:10602000069F09F0E7FE2346FF1DBCB231462A4613
:10603000009409F0D2FAF8BD30B41146DDE902420D
:106040003CB1032903D0002330BC04F05BB9012329
:10605000FAE71A8030BC704770B50C460546FFF76A
:106060002BFB2146284601F09CFA2846BDE87040EB
:10607000012101F0A5BA000018B18178012938D1B9
:1060800001E010207047018842F60112881A9142FF
:1060900031D018DC42F60102A1EB020091422AD075
:1060A0000CDC41B3B1F5C05F25D06FF4C0500818C7
:1060B00021D0A0F57060FF381BD11CE001281AD058
:1060C00002280AD117E0B0F5807F14D008DC01283F
:1060D00011D002280FD003280DD0FF2809D10AE0E3
:1060E000B0F5817F07D0A0F58070033803D0012878
:1060F00001D0002070470F2070470A281ED007DC0F
:1061000018D2DFE800F0191B1F1F171F231D1F21C6
:10611000102815D008DC0B2812D00C2810D00D2820
:1061200016D00F2806D10DE011280BD084280BD0F3
:1061300087280FD003207047002070470520704744
:10614000072070470F2070470420704706207047D3
:106150000C20704743F20200704738B50C4605002A
:1061600041D06946FEF7ACF9002819D19DF800101E
